:020000041000EA
:1000000000B5324B212058609868022188439860DF
:10001000D860186158612E4B002199600221596106
:100020000121F02299502B49196001219960352056
:1000300000F044F80222904214D00621196600F024
:1000400034F8196E01211966002018661A6600F04E
:100050002CF8196E196E196E052000F02FF8012189
:100060000842F9D1002199601B49196000215960AB
:100070001A491B48016001219960EB211966A021F2
:10008000196600F012F800219960164914480160C1
:100090000121996001BC002800D000471248134993
:1000A000086003C880F30888084703B5996A0420EC
:1000B0000142FBD001200142F8D103BD02B5186610
:1000C0001866FFF7F2FF186E186E02BD00000240BE
:1000D000000000180000070000035F00212200005C
:1000E000F4000018222000A00001001008ED00E03C
:1000F00000000000000000000000000074B24E7A12
:1001000000200420F7010010CB010010CD010010E9
:10011000C9010010C9010010C9010010C901001077
:10012000C9010010C9010010C9010010CF01001061
:10013000C9010010C9010010D1010010D301001045
:10014000C1010010C1010010C1010010C101001067
:10015000C1010010C1010010C1010010C101001057
:10016000C1010010C1010010C1010010C101001047
:10017000C1010010C1010010C1010010C101001037
:10018000C1010010C1010010C1010010C101001027
:10019000C1010010C1010010C1010010C101001017
:1001A000C1010010C1010010C1010010C101001007
:1001B000C1010010C1010010C1010010C1010010F7
:1001C000EFF30580103800BE00BE00BE00BE00BECA
:1001D00000BE00BEF2EB887130B3001054B30010C3
:1001E0003802001090A31AE71E481F49086006C88D
:1001F00081F3088810471D480068002801D019487D
:10020000F3E70DA40ECC002902D000F012F8F9E7B4
:100210001749184A002000E001C19142FCD116495B
:100220008847164988471649884700BEFDE701C937
:1002300001C29A42FBD3704754B30010C0000020A3
:100240007010002004C300100000042000000420EF
:1002500004C300100010042000100420000000005F
:10026000704700000000000008ED00E0000000D032
:100270007010002004A20020997500107505001070
:1002800091750010F8B5C0460448054B10B583427F
:1002900003D0044B002B00D0984710BD70100020F5
:1002A000701000200000000006480749091A8B1052
:1002B000C90FC91810B5491003D0044B002B00D04A
:1002C000984710BD70100020701000200000000042
:1002D00010B5074C2378002B09D1FFF7D5FF054B4C
:1002E000002B02D0044800E000BF0123237010BDA2
:1002F000FC15002000000000489D0010054B10B5C3
:10030000002B03D00449054800E000BFFFF7CCFFF5
:1003100010BDC0460000000000160020489D0010DF
:1003200070B58023D024802524069B0263616D0272
:100330009620A561400004F0C5F896206561400054
:1003400004F0C0F8F4E7C04670B50A2104F096FD49
:10035000002405000A2004F0B5F8012000214042E5
:10036000013407F0FFFEAC42F4D170BD70B505005A
:10037000224807F099FA04F0BBF9002937D0FA2295
:100380000023920004F0B8FD060004F0B1F9002942
:1003900020D0FA220023920004F0AEFD801BA84278
:1003A0001FD202F01FFD164801F05CFC02F052FD66
:1003B00000281BD10A240A2004F084F8012000211F
:1003C0004042013C07F0CEFE002CF4D104F090F93D
:1003D0000029DED1FA21890004F050FD801BA842DB
:1003E000DFD32900074807F0E3FA002070BDFA21A7
:1003F000890004F043FD0600C7E7C046489D001091
:1004000000007A42649D001070B5494C4948A544EB
:10041000FFF7ACFF002818D1D024802524066D02F8
:10042000454807F041FA656100F034FA4348FFF7A8
:100430008BFF00F023FA4248A561FFF785FF414892
:10044000FFF794FF002800D167E03F4807F02CFA3F
:1004500080223E4C00219200200005F011FC20007B
:1004600000F092FB051E55D07626200000F0D2FD4C
:1004700062235E22A65BE35AA25A21880096A82630
:10048000334807F095FAA623A422A021A65BE35ADD
:10049000A25A615A009680262E4807F089FAAE23A8
:1004A000AC22AA217600A65BA25A615AE35A0196B1
:1004B000B226A45B2848009407F07AFA01F01EF9EE
:1004C0000121002002AA00F0F5FB002815D12348E5
:1004D00007F0EAF900240121200002AA00F0EAFB5B
:1004E000012000214042013407F03CFE102CF2D1E3
:1004F000280082239B009D4470BD0821FF236A468B
:100500005B005218D35C1649552B08D0154807F0EC
:100510004FFADCE7144807F0C7F90025E8E76A4618
:100520000820124B1218D35CAA2BEFD11049EDE72B
:10053000F8FDFFFF10270000C49D0010B80B00005D
:10054000E02E0000983A0000AC9D0010C09F0020F3
:10055000089E0010389E0010689E0010B09E00108B
:100560009C9D0010A09E0010F09D0010FF01000057
:100570008C9D0010F0B5DE4657464E464546E121BB
:10058000E0B50D2385B00C224902824807F0EAFA53
:10059000642003F097FF804807F086F97F4807F052
:1005A00083F97F4807F080F97E4807F07DF96A46B5
:1005B0007D4BD02613CB13C2EB466C4601271B683C
:1005C0003606136020CC280003F03CF93B00AB401A
:1005D0007362736104AB9C42F4D100F023F9734859
:1005E000734907F0E5F980231B039946714BD02529
:1005F000002700269A462D066D4CA41B502C00D9CE
:1006000050244B466B618023DB026B6180239B028D
:100610006B6180235B02380007216B6198460137CC
:1006200004F02CFC052959D8534689005B589F4695
:1006300080239B02AB61200003F044FF5E4B361920
:100640009E42D9D9D024802324061B0363618026CF
:1006500080238025DB026D02B602636100216661A2
:100660000020656109F09CF8544801F0FBFA01F0A4
:10067000B5FA534807F018F96661656100F00AF9A8
:10068000FA204000FFF760FE00F0F8F84D48A56141
:10069000FFF75AFEFFF7B8FE002822D14A4807F0BC
:1006A00003F9FFF73DFE8023DB02AB6180239B0251
:1006B000AB61C0E78023DB02AB61BCE74B46AB61BB
:1006C0008023DB02AB61B6E74B46AB61B3E7802327
:1006D0009B02AB6180235B02AB61ACE74346AB613D
:1006E000A9E700235A46A66107210120137001F0F3
:1006F000CBFB002836D05B463448197807F058F910
:10070000334800F077FC0400C20A2100314807F0AA
:100710004FF9200002F09CFF2F4807F0C5F82F4E3C
:1007200001200021404207F01DFD02F05FFF00287C
:10073000F6D003F0DDFF05000C1E18D002F050FFCC
:10074000FA220700002328002100920004F0D4FBC5
:10075000194BC11B9942E3D9300007F029F902F087
:1007600059FFDDE71E4807F09FF8FFF7D9FD02F0BB
:1007700037FFFA2104008900280004F07FFB0E4BAC
:10078000011B9942CCD9300007F012F902F042FF68
:10079000C6E7C04600400340C89E0010F49E00100B
:1007A000149F00103C9F0010A4AC0010689F001024
:1007B000881300008CAC0010871300000000484034
:1007C000849F0010DC050000A09F0010E09F001037
:1007D000C09F002000A0001024A0001034A0001032
:1007E000C49F001010B502F001FF002803D002F0F2
:1007F0000BFF002803D0054807F056F810BD044849
:1008000007F052F802F006FFF8E7C04680A000109B
:1008100060A0001010B5024807F046F810BDC046B1
:100820009CA0001070B50220D02503F00BF8042323
:100830002D066B620320AB6103F004F8082300224D
:100840006B62012103206B6102F0E8FF04240126A2
:10085000200002F0F7FF3300A34020000022012116
:10086000AB62013402F0DAFF082CF1D1092002F06A
:10087000E9FF80239B006B62AB6170BDD0238022B7
:1008800010B51B06920002485A6107F00DF810BD22
:10089000ACA00010D023802210B51B0692000248A5
:1008A0009A6107F001F810BDC0A0001070B582B0C9
:1008B000050003F01DFF00292CD0FA22002392002E
:1008C00004F01AFB06006B46DC1D03F011FF002943
:1008D0001BD0FA220023920004F00EFB801BA842DA
:1008E00010D20023220007210120237001F0CCFA4E
:1008F000002808D023781A0705D45AB2002AE4DB6E
:10090000DB07E2D5002002B070BDFA21890004F0B7
:10091000B5FAE3E7FA21890004F0B0FA0600D2E75D
:1009200070B582B06B46002604001500DE710A0027
:1009300001200221073301F0D3FA002802D1002060
:1009400002B070BD6B460321DE710120E2B20733B5
:1009500001F0C6FA0028F2D06B46220ADE710421AB
:100960000120D2B2073301F0BBFA0028E7D06B4672
:10097000220CDE7105210120D2B2073301F0B0FA5A
:100980000028DCD06B46DE71E0232201120F1A43EF
:100990006B4606210120073301F0A2FA0028CED0D1
:1009A0006B462A00DE7107210733012001F098FA17
:1009B000C6E7C046F0B585B000236A469373D3738B
:1009C0000E336B4405000C001A000721012001F0D2
:1009D0005BFA00283CD06B4601269A7B16420ED16A
:1009E00093063BD424490B0000912448290006F0CB
:1009F000DFFF2100224806F0DBFF05B0F0BD0F232A
:100A00006B441A000121012001F03EFA00281FD09A
:100A10006B46997BDF7B0A000E408B0629D4164B70
:100A2000002E1CD0174A154800920A00290006F033
:100A3000BFFF7B0715D5144AFB0615D5134B790666
:100A400015D5134900911348390006F0B1FFD0E7DE
:100A500022002900104806F0ABFFCEE70F4B0649F5
:100A6000C2E7054AFB06E9D4034B7906E9D40249FB
:100A7000E8E70A4BD4E7C04630A4001020A10010DC
:100A8000D0A3001038A10010DCA00010E4A00010DA
:100A9000ECA0001040A10010F4A00010D8A000109D
:100AA000F0B5C64600B582B080460F00150003F0D1
:100AB0001FFE00294DD0FA220023920004F01CFAF8
:100AC00006006B46DC1D0023237011E0FA22002390
:100AD000920004F011FA801B854214D922000721EC
:100AE000012001F0D1F900280DD023787F2B19D9EE
:100AF00003F0FEFD0029E9D1FA21890004F0BEF9D6
:100B0000801B8542EAD8390042461D4806F050FF56
:100B100041463800FFF74EFF0025280002B080BC98
:100B2000B846F0BD00236A46072193710120237067
:100B3000063201F0A9F9051E11D06B469B79DA0740
:100B400013D421221A42E8D041463800FFF732FF81
:100B5000E2E7FA21890004F091F90600B1E7424684
:100B60003900084806F024FFD6E7220001210120C1
:100B700001F08AF90028F2D06B469B79E1E7C04684
:100B800054A100107CA10010F0B54F46D646464651
:100B90000023C0B582B098466B46DC1D3D4B8146B4
:100BA00000279A4603F0A4FD002935D0FA2200233D
:100BB000920004F0A1F90500374E277011E0FA22E7
:100BC0000023920004F098F9401BB04214D8220090
:100BD0000721012001F058F900280DD023787F2B40
:100BE00020D903F085FD0029E9D1FA21890004F01C
:100BF00045F9401BB042EAD9504606F055FE43463F
:100C0000012B38D00121254806F0D2FE0123984659
:100C100003F06EFD0029C9D1FA21890004F02EF9F4
:100C20000500C9E72300002202210120277001F0FE
:100C300057F9002819D02300EC2207210120277042
:100C400001F04EF9002810D01548FFF72FFE0028BC
:100C50001CD001234A460021012001F071F9051E34
:100C6000CDD0104806F020FE09E00F4806F01CFE2B
:100C70004346012BC6D10D4806F016FE002528007C
:100C800002B0E0BCBA46B146A846F0BD084806F03E
:100C90000BFEB4E7A8A100100F2700001CA2001053
:100CA000983A000004A20010C4A1001038A200105D
:100CB000ECA10010F0B55746DE464E4645460023EF
:100CC000E0B585B0994602ABDC1D00239A46594B2E
:100CD000070088469B46019203F00AFD002955D083
:100CE000FA220023920004F007F905005346FA2681
:100CF0002370760011E0FA220023920004F0FCF841
:100D0000401BB04214D222000721012001F0BCF8A0
:100D100000280DD023787F2B1AD903F0E9FC002995
:100D2000E9D1FA21890004F0A9F8401BB042EAD3C6
:100D30004A463900584606F03BFE4B46012B2BD164
:100D4000002005B0F0BCBB46B246A946A046F0BDA7
:100D5000202241463800FFF7E3FD002851D0FA2059
:100D60004001FFF7A3FD002842D0434600210120A7
:100D7000019A01F0E5F8002852D0FA2238002E49F5
:100D8000D200FFF78DFE0028DBD1D6E7FA218900DB
:100D900004F074F80500A9E73A000121274806F09D
:100DA00007FE03F0A5FC002930D1FA21890004F0E8
:100DB00065F805000023237011E0FA220023920059
:100DC00004F09AF8401BC72827D8220007210120E9
:100DD00001F05AF8002820D023787F2B1DD903F08A
:100DE00087FC0029E9D1FA21890004F047F8E9E7F6
:100DF0003900134806F0DCFD39000F48FFF7DAFD33
:100E00009BE739000F4806F0D3FD96E7FA2200234E
:100E1000920004F071F80500CCE7012399465BE7E6
:100E20004146094806F0C4FD39000348FFF7C2FDFA
:100E300083E7C04650A20010C8A20010F0A2001024
:100E4000A4A2001078A20010D0A20010F0B557465E
:100E5000DE464E4645460023E0B585B0994602ABD6
:100E6000DC1D00239A465A4B070088469B46019298
:100E700003F03EFC002900D181E0FA220023920019
:100E800004F03AF805005346524E237011E0FA225E
:100E90000023920004F030F8401BB04214D8220026
:100EA0000721012000F0F0FF00280DD023787F2BD0
:100EB0003FD903F01DFC0029E9D1FA21890003F094
:100EC000DDFF401BB042EAD94A463900584606F0D9
:100ED0006FFD4B46012B4AD03A0001213E4806F0F7
:100EE00067FD03F005FC00295DD1FA21890003F0BC
:100EF000C5FF05000023374E237011E0FA220023BE
:100F0000920003F0F9FF401BB0425DD82200072198
:100F1000012000F0B9FF002856D023787F2B53D949
:100F200003F0E6FB0029E9D1FA21890003F0A6FFCE
:100F3000E9E7302241463800FFF7F2FC002824D0D0
:100F40002648FFF7B3FC002824D0434600210120A7
:100F5000019A01F089FB00282CD038002049214A51
:100F6000FFF79EFD002803D14B46012BB4D1002092
:100F700005B0F0BCBB46B246A946A046F0BDFA217A
:100F8000890003F07BFF05007DE73900164806F075
:100F90000FFD9EE73900154806F00AFD390010489C
:100FA000FFF708FD95E7FA220023920003F0A4FF63
:100FB00005009FE741463A000D4806F0F9FC39006C
:100FC0000748FFF7F7FC84E70123994650E7C0463E
:100FD00010A3001087130000BCA3001088130000AA
:100FE0008CA30010102700003CA3001068A3001081
:100FF00094A3001079227823825CC35C12021A4306
:101000007A23C35C1B0413437B22805C00061843D5
:101010007047C046F0B5DE4657464E46454604008A
:10102000E0B599B01522002107A804F029FE0DAD06
:101030000922002104A804F023FE2922002128000F
:1010400004F01EFE237E607E1B02804F1843E37E69
:1010500038401B041843A37E00021B06000A1843F5
:10106000237F617F1B021943E37F39401B0419432F
:10107000A37F09021B06090A194320232122E35CEE
:10108000A25C1B021A432323E35C3A401B041A436D
:101090002223E35C12021B06120A1A432423E35C98
:1010A0000A921B029C4625236646E35C02AA334350
:1010B00027263B402627A65DE75D360433431B0207
:1010C0003F061B0A3B4394460B932723277D099138
:1010D0003E02677D00213743E67D089036043743A2
:1010E000A67D3F0236063F0A37430797634400E078
:1010F00013001A78202A04D107A819705A1E9842A2
:10110000F6D12F23E35C02932E23E25C0333160017
:101110000392E25C013B9146E25C03339046E25C61
:10112000013BE75C0333E05C013BE15C33024E468C
:101130003604B346029E9446334346463606B246CC
:101140005E463343564633430604B346664604932D
:101150003B0233430E06B2465E46334356463343A4
:1011600000220593202920D102ABDA7320281CD15C
:101170009A73202F19D15A736346202B15D16B46D1
:101180001A754346202B10D102ABDA724B46202B46
:101190000BD102AB9A72039B202B06D102AB5A7281
:1011A000029B202B01D16B461A7422002B00363291
:1011B00017A8517819701178023259700233984289
:1011C000F7D128230022EA5402AA94462B330021A7
:1011D000634400E013001A78202A03D119705A1EC4
:1011E0009D42F7D17823E25C0133E35C29001B02C6
:1011F00013437A22A25C164812041A437B23E35C51
:101200001B061343DA0A0192009307AA04AB06F007
:10121000CFFB2200AA23AA325078E35C00021843D5
:10122000A423E15CA33B0A001A4019420CD00949EF
:1012300001230340084806F0BBFB19B0F0BCBB46D5
:10124000B246A946A046F0BD0449F1E7FFFF00FF02
:10125000ECA30010E0A3001034A40010DCA30010E5
:10126000F0B583B06B466A46DD1C002313715371E1
:101270002B706B46012205330621002000F030FE62
:101280002A000721012000F0FFFD2B78002801D063
:10129000DA0731D45BB2002B01DB03B0F0BD674845
:1012A00006F002FB03F024FA002932D0FA220023D0
:1012B000920003F021FE06006B46DC1D0023237024
:1012C00011E0FA220023920003F016FE801B63282F
:1012D00025D822000721012000F0D6FD00281ED0CD
:1012E00023787F2B6BD903F003FA0029E9D1FA2187
:1012F000890003F0C3FDE9E7012101AA012000F004
:10130000C3FD6B4629781A794D4806F051FB2B78BE
:10131000C0E7FA21890003F0B1FD0600CCE7012007
:101320000021404206F01EFF464806F0BDFA6B461B
:10133000002205330221002000F0D2FD052003F039
:10134000C1F801200021404206F00CFF6B4602224A
:1013500002210533002000F0C3FD03F0C9F9002984
:1013600066D0FA220023920003F0C6FD07006B4608
:101370009E1D0023337019E0FA220023920003F02F
:10138000BBFDC01BC72825D832000321002000F078
:101390007BFD002802D033789B071BD4052003F087
:1013A00091F801200021404206F0DCFE03F0A0F994
:1013B0000029E1D1FA21890003F060FDE1E7012075
:1013C0000021404206F0CEFE2A000721012000F055
:1013D0005BFD62E703F08CF9002922D1FA21890034
:1013E00003F04CFD06000023237011E0FA220023D5
:1013F000920003F081FD801BC728E0D8220007215E
:10140000012000F041FD0028D9D023787F2BD6D9C8
:1014100003F06EF90029E9D1FA21890003F02EFDCD
:10142000E9E7FA220023920003F066FD0600DAE7FE
:10143000FA21890003F022FD070098E788A4001034
:1014400060A40010ACA40010F0B5C64600B582B090
:101450000700884603F04CF900294ED0FA220023F9
:10146000920003F049FD05006B46FA26DC1D0023BF
:10147000F600237011E0FA220023920003F03CFDF5
:10148000401BB04214D222000721012000F0FCFCD6
:1014900000280DD023787F2B13D903F029F90029D8
:1014A000E9D1FA21890003F0E9FC401BB042EAD3FC
:1014B00039001A4806F07CFA002002B080BCB84619
:1014C000F0BD202201213800FFF72AFA0028F3D0CE
:1014D000FA204001FFF7EAF900281DD00123424617
:1014E0000021012000F02CFD00280CD0FA22380049
:1014F0000B49D200FFF7D4FADFE7FA21890003F0A5
:10150000BDFC0500B0E70748390006F051FA390084
:101510000348FFF74FFACFE70348F5E7C8A40010E8
:1015200008A5001010A50010E4A40010F0B5C646F0
:1015300000B582B00700884603F0DAF800294DD0E4
:10154000FA220023920003F0D7FC05006B46FA262E
:10155000DC1D0023F600237011E0FA220023920024
:1015600003F0CAFC401BB04214D222000721012024
:1015700000F08AFC00280DD023787F2B13D903F0CC
:10158000B7F80029E9D1FA21890003F077FC401B64
:10159000B042EAD339001A4806F00AFA002002B035
:1015A00080BCB846F0BD302201213800FFF7B8F901
:1015B0000028F3D0FA20C000FFF778F900281CD0EB
:1015C000012342460021012001F04EF800280BD0F3
:1015D00038000C490C4AFFF763FAE0E7FA2189006A
:1015E00003F04CFC0500B1E70848390006F0E0F9CB
:1015F00039000448FFF7DEF9D0E70548F5E7C046B3
:1016000034A5001074A50010881300007CA50010FC
:1016100050A5001070B582B003F06AF800292BD0F5
:10162000FA220023920003F067FC05006B46DC1DE4
:101630000023314E237011E0FA220023920003F0C0
:101640005BFC401BB04214D822000721012000F0AF
:101650001BFC00280DD023787F2B13D903F048F80A
:101660000029E9D1FA21890003F008FC401BB042AF
:10167000EAD9002002B070BDFA21890003F0FEFB18
:101680000500D3E70023E022237007212300012077
:1016900000F026FC0028ECD003F02AF8002924D022
:1016A000FA220023920003F027FC05000023124ECB
:1016B000237011E0FA220023920003F01DFC401B6E
:1016C000B042D6D822000721012000F0DDFB00281F
:1016D000CFD023787F2BCDD903F00AF80029E9D1A8
:1016E000FA21890003F0CAFBE9E7FA21890003F037
:1016F000C5FB0500DAE7C04687130000F0B5DE46FB
:1017000057464E464546E0B5734889B006F0CCF8DA
:10171000724806F0C9F8724806F0C6F848239B469E
:10172000704B17249A46704B704F9946BB446C44DB
:101730003B787A6819005046984606F039F902F06D
:10174000D7FF002936D0FA220023920003F0D4FB01
:1017500005000023664E237011E0FA220023920058
:1017600003F0CAFB401BB04214D82200072101201D
:1017700000F08AFB00280DD023787F2B20D902F0BF
:10178000B7FF0029E9D1FA21890003F077FB401B5C
:10179000B042EAD9484606F087F808375F45C7D116
:1017A0000A2006F037F809B0F0BCBB46B246A9469D
:1017B000A046F0BDFA21890003F060FB0500C8E7F0
:1017C00000252300424601210120257000F088FBFE
:1017D0000028DFD02300C22207210120257000F05D
:1017E0007FFB0028D6D002F083FF002924D0FA2204
:1017F0000023920003F080FB050000233C4E237081
:1018000011E0FA220023920003F076FB401BB04265
:10181000C0D822000521002000F036FB0028B9D0F6
:1018200023789B070ED402F063FF0029E9D1FA2147
:10183000890003F023FBE9E7FA21890003F01EFB8E
:101840000500DAE706AD2A000121012000F01CFBAB
:1018500000289FD01922022101206A4400F014FBC5
:10186000002897D01A22032101206A4400F00CFBC3
:10187000002800D18EE71B22042101206A4400F0D9
:1018800003FB002800D185E70521012007AA00F00D
:10189000FBFA002800D17DE71D22072101206A44C0
:1018A00000F0F2FA002800D174E7EB786978AA78A2
:1018B0002E796D799846E8070AD50E4B9C4663460B
:1018C00001950293009643460B4806F071F864E7D1
:1018D0000A4B9C46F3E7C046A0A50010C4A5001023
:1018E00004A6001024A6001068A60010B4AC0010D6
:1018F0008713000038A1001040A6001030A400108B
:1019000080239B009C46F0B54E4657464546DE4632
:1019100084446346E0B587B00493002302930193A7
:101920000093664B00269A4640239946303B9846E2
:101930000C3B9C46039605914F4605784478AE01D2
:101940003E4047462B09DB01334326013E406746B4
:10195000817833438E003E402027334366003E406B
:1019600033434E083700082637403E001E43B34637
:1019700002265F46C2780430D30833403B43012738
:10198000039E17403B43DBB2370A7B4057465B0060
:10199000FB5A360220275E40B3B24E4603936B09D2
:1019A0002740DB013B436F01374046463B43E7009E
:1019B000374008263B438F08374066463B434F007D
:1019C000374002263B43170937403B43013E570847
:1019D00037403B43009FDBB23E0A3F02BB465746BF
:1019E00073405B00FB5A5F467B4067464E469BB2A6
:1019F0000093AB090F40DB013B432F0137403B43D2
:101A000067083E0020273E4033434646A700374044
:101A100008263B43CF0837403B43063E5709374033
:101A20003B43012796083E403343019EDBB2370A11
:101A30003602B34656467B405B00F35A5E4673401F
:101A40009BB20193E3095B019B465E46CB09DB0039
:101A500033437F272E00BE433343D60976003343FA
:101A60004E46ED0035401D43434664001C4063462E
:101A70004908194001232C430C43D1081940029B0B
:101A800021431A0A51401A02534649005B5A5340F7
:101A90009BB20293049B984200D04DE70599009BAE
:101AA000039E4B80019B0E808B80029BCB8007B0F6
:101AB000F0BCBB46B246A946A046F0BDFCAC001047
:101AC000012130B53E4A3F4D136887B08B43136008
:101AD0002B78002B57D000233B49394C1A0008883B
:101AE000123292000133105102311A2BF6D1374BCA
:101AF000EC21186880239B020493354B89050393DE
:101B0000344B059303F0FEFF051C04F041F884B24A
:101B10000023002C0ED0200004F012F8011C281C19
:101B200003F0EDFF8721C90504F003F804F030F855
:101B3000C3B21B0224041C43029401240621022088
:101B400001F052FE0621032001F04EFE0022012189
:101B5000032001F063FE01230222002100941848B3
:101B600006F036F80123032200210094144806F001
:101B70002FF802AB00220021114806F083F8164B23
:101B80001C7007B030BD0220053101F02DFE06218A
:101B9000032001F029FE00220121032001F03EFE76
:101BA00004242000062101F01FFE20000022012154
:101BB000013401F033FE082CF3D101232B708AE7A6
:101BC00000002050FBA10020FCAE0010A00F002060
:101BD0000090010363881124FEA10020F0B51A4C87
:101BE00085B02378002B01D005B0F0BD012006F0B0
:101BF00097F8164B00211860154805F0D1FF154BDA
:101C00001B78012B01D0FFF75BFF01232370124BE0
:101C10001D68281C03F0C2FF0F008121002306006D
:101C2000C905281C029303F084FF011C0B4803F034
:101C30006CFF03F0B3FF0A4C0090019132003B00AF
:101C4000200005F0B5FECFE7FFA10020A40F002083
:101C500000002050FEA10020A00F00200000FA424A
:101C600020A70010134B70B51860134B1B78002B86
:101C70000FD0EC21890503F045FF051C03F088FF18
:101C800084B20023002C05D124041C43C8230B4A32
:101C9000D45070BD200003F053FF011C281C03F03A
:101CA0002EFF8721C90503F044FF03F071FFC3B283
:101CB0001B02E9E7A00F0020FFA100200000205038
:101CC000F0B5DE46574645464E46E0B5654B89B011
:101CD0001F780D0093460490002F00D1A1E03F260D
:101CE000064040233100194308002B0E2A0C0193B3
:101CF00002921B02D2B27F2612040B438446134386
:101D000009222C0A039121060B43B14606A9783E0D
:101D1000B04692460693624600230020AC460D7101
:101D2000063E059401E0C2108A5C4D469C095B00AA
:101D30002B40454685432A413240A24202D05246BA
:101D40005340DBB201302828EDD101225B00134360
:101D5000DBB298464B71444B65461B78059C012BC2
:101D600001D0FFF7ADFE01218020404A0006136834
:101D70008B4313603E4B1860186010203D4B186079
:101D8000D8233D48D0503D48D0500020D050136853
:101D90000B4380211360490253680B42FCD1384B3E
:101DA00080201361FF23019A234012041343029AF7
:101DB0002D061206120C1343039A2C4916061E43D5
:101DC00043461B042B4340024A680242FCD1802058
:101DD0000E61264940024A680242FCD10B6102F0C2
:101DE00087FC002926D1FA21890003F047F8040076
:101DF0001E4D6B68DB052ED502F07AFC002920D041
:101E0000FA220023920003F077F8001B6428F0D92F
:101E100004991C4805F0CCFD0121144A13688B433A
:101E200013600027380009B0F0BCBB46B246A94693
:101E3000A046F0BDFA220023920003F05DF80400F2
:101E4000D6E7FA21890003F019F8001B6428DFD8CF
:101E50006B68DB05D0D45A462B6A002AE2D01360A7
:101E6000E0E7C046FFA10020FEA1002000002050B6
:101E7000D01020500020205081E0000001E0000040
:101E800027002F0050A70010F0B5C646E023C0265B
:101E900090460325002700B5DB0504071C400F4BC7
:101EA0004902194082B00C4336022100342001AAB5
:101EB0000197FFF705FF002802D0019B334207D0AE
:101EC000013D002DF1D1002002B080BCB846F0BD2C
:101ED0004246002AF8D01370F6E7C04600FEFF0322
:101EE000F0B5C6469846E0238026C0240325002787
:101EF000DB0500B500071840104B4902104319409C
:101F00000843360682B0064324023100342001AA79
:101F10000197FFF7D5FE002802D0019B234207D08E
:101F2000013D002DF1D1002002B080BCB846F0BDCB
:101F30004246002AF8D01370F6E7C04600FEFF03C1
:101F4000F0B55746DE464E464546E0B59A46D04B7C
:101F500014001B78A7B0002B09D100230493049828
:101F600027B0F0BCBB46B246A946A046F0BD002350
:101F7000E0222193D205030713405246D205D20D29
:101F800013434A02C34935200A40802113430905FF
:101F9000194321AAFFF794FE04900028DDD0C02247
:101FA000219B12021342D8D10120BB4B19688143F7
:101FB0001960BA498B460978022957D01968B84D7B
:101FC00081431960B749B8489964B849D964B84998
:101FD00018655965B7499965DD65B74D1D66822558
:101FE0005D669866B548D866196748215967B4494F
:101FF0009967B44BEC211868B34B8905259390235E
:102000001B032493239203F07DFD061C03F0C0FD07
:1020100085B20023002D0ED0280003F091FD011C95
:10202000301C03F06CFD8721C90503F082FD03F02D
:10203000AFFDC3B21B022D04002200211D439648B0
:1020400022AB229505F01EFE0023042200210093FE
:102050009148043305F0BCFD0123022200930021C6
:102060008D4805F0B5FD02235A4613705346002BE8
:1020700000D1D0E20023A0460393013399465B468A
:10208000D346C246914F844E043C06934A46336879
:10209000A0209343802233608D4B12061A601A6091
:1020A00010228C4BC0051A60D82300228446396860
:1020B000F250894ACB021340884A89481A438B015F
:1020C0006344186050465860802098601A618022EE
:1020D000520273681342FCD18223DB0033614B460A
:1020E0008B40A02219008623D205DB00D1504A463E
:1020F00033681343336002F0FBFA002900D1BBE0E0
:10210000FA220023920002F0F7FE050080235B0410
:102110009846744A3B68944642469B0163441B6858
:1021200013423AD002F0E4FA00292DD0FA2200231B
:10213000920002F0E1FE6C4B401B9842E9D9069BED
:10214000DA469B4601233A68A02093406749C005C0
:102150004350674B80219C469201624449041368B6
:102160000B42FCD101214C4A13688B431360524649
:102170006048039905F01CFC5B461B78012B00D1DD
:10218000EBE6FFF79DFCE8E6FA21890002F076FE17
:10219000554B401B9842BCD9D1E702F0A9FA00295F
:1021A00070D0FA220023920002F0A6FE05000CE097
:1021B000FA220023920002F09FFE401B63280FD8F2
:1021C000D423FF22F3581A420AD002F091FA0029D0
:1021D000EED1FA21890002F051FE401B6328EFD9AD
:1021E0004A4633680F209343336080239B009C460C
:1021F000A444634605931A68043B110F150E05406D
:10220000090129431971150C110D054009012943D4
:102210005971150A110B0901054029439971DA71A9
:102220009C42E8D1802372685B001A4200D0F5E13D
:10223000356A72681A4200D0F9E1346A72681A424B
:102240005AD1326A726872681A4259D103218022C7
:102250005200336A73681342FBD0012950DC80229C
:1022600092009446039BE24401339BB203939B4547
:1022700000D1CBE1059C09E7FA21890002F0FEFDBF
:10228000050043E7FA21890002F0F8FD05009CE70C
:10229000FFA1002000FEFF0300002050FEA100204F
:1022A00046A00000A080000042A1000027A000007E
:1022B00042B0000004500000C3A0000042B1000082
:1022C00020800000A00F002000080220A40F0020A2
:1022D000D010205000202050FD7F00FF2900020078
:1022E000200020501000005088130000440400001B
:1022F0000C0000509CA70010726802211A42A6D060
:10230000504622A9FFF7FCFA290E280D2B0F149135
:102310000A000D9301000F2315901940280A16900A
:102320001F91010018001A401E922A0C90461A4074
:102330000E922A0B94461A400F922A0917921A40BD
:102340001192220F0892220E10400790200D189033
:1023500018401D90200C199018400990200B1A90DD
:1023600018400A90200A1B9018400B9020091C90DE
:1023700018400C90280019401840234013932B0F4D
:102380005B0010911290190002204B4601401498F6
:102390001840014315984900184001434046184031
:1023A000030049000B43604649465B000840034375
:1023B00016985B0008401843179B40000B4019001B
:1023C0004B46014349001D400D436B004D46210F14
:1023D00029400B4349465B002A401A43189B520090
:1023E0002B401343199A5B002A401A431A9B520050
:1023F0002B401B9D13430D402A005B001C9D1A437C
:1024000052000D4015436D000C402C431EAD2B8A2D
:10241000A2B29A4200D012E14D4602241E991F98A2
:102420004B102B400D9D109A25404C461D434310E8
:1024300023400E9C6D001D4363104C466D002340ED
:102440001D430F9B6D005B1023401D4353104A46F4
:102450002340119C6D001D4363104C4613406D00DA
:102460001D43129B6D005B101340089A1D435310CF
:102470004A4623406D001D43079B6D005B102340BF
:102480001D9C1D43631013406D001D43099B6D008F
:102490005B1013400A9A1D4353104A466D001340C7
:1024A0001D430B9B6D005B1013400C9A1D43531092
:1024B0004A461340139A6D001D4353104A466D005F
:1024C00013401D43AAB21EAD6B8A9A4200D0C2E0EF
:1024D00002220D9D8B106D0815404A4613400E993F
:1024E0001D43831013406D001D438B100F99134043
:1024F0006D001D438B10109913406D001D438B1010
:10250000119913406D001D438B10129913406D00FB
:102510001D438B10089913406D001D438B100799C4
:1025200013406D001D438B1013406D0009981D432F
:10253000A31013406D001D4383100A9813406D00D3
:102540001D4383100B9813406D001D4383100C989E
:1025500013406D001D43831013406D001D43139BFA
:102560006D009B1013401D431EAB9B8AAAB2934281
:102570006BD10D9B1E9ADB10D2105B0013431F9A88
:102580005B00D21013430E9A5B00D21013430F9AD4
:102590005B00D2101343109A5B00D2101343119AC0
:1025A0005B00D2101343129A5B00D2101343089AB7
:1025B0005B00D2101343079A5B00D21013431D9A9D
:1025C0005B00D2101343099A5B00D21013430A9A9E
:1025D0005B00D21013430B9A5B00D21013430C9A8A
:1025E0005B00D2101343139A5B00D2101A431EAB48
:1025F000DB8A934200D132E61500069ADA460321BF
:1026000093462A00174805F0D3F9B0E5069B1B78DE
:10261000012B00D1A3E4FFF753FAA0E47268002570
:10262000140000211C401A4200D110E617E672681F
:10263000012114001C401A4200D108E60FE61500E3
:10264000069ADA4600219346DBE71500069ADA4639
:1026500002219346D5E71500069ADA4601219346F2
:10266000CFE7C04668A70010F0B54546DE4657469E
:102670004E46E0B58FB01C000593074B15001B7844
:10268000002B0BD10023984640460FB0F0BCBB4650
:10269000B246A946A046F0BDFFA100200023E022DB
:1026A0000993D20503071340E205D20D13434A02F2
:1026B000514935200A40882113430906194309AAC4
:1026C000FFF7FEFA80460028DCD0C022099B1202E8
:1026D0001342D7D10120494B1968814319604849F9
:1026E00089460978032960D0482419688143196014
:1026F0004449423099644449D9644449196544497C
:10270000596544499965D8654348186643485866F1
:1027100043489866D9661C675867996741490B20FA
:10272000D9678021585004315A503F4BEC2118682A
:10273000C023DB020C933D4B0AAA0D933C4B890549
:102740000B93170003F0DEF9061C03F021FA84B2A4
:102750000023002C0ED0200003F0F2F9011C301CE5
:1027600003F0CDF98721C90503F0E3F903F010FA6E
:10277000C3B21B0224041C430A9401243B00002220
:1027800000211E4805F07EFA0423042200211B4884
:10279000009405F01DFA012302220021174800943D
:1027A00005F016FA03234A461370059B002B00D14F
:1027B000EBE2002304931F4BCB46069343460AAE3D
:1027C0001D4C039507930296029E039D310028003D
:1027D000FFF796F8832200219200200003F050FAC0
:1027E00007220020944608329246113A9146012170
:1027F000B0460200114F23E000FEFF03000020500E
:10280000FEA10020A080000027A000006060000062
:102810000461000042B1000080E000002FE00000F1
:1028200042A10000CF100000A00F0020840840301B
:1028300000F00004A40F0020F013002001040000A9
:1028400066462B788E43B6001B09B34003435046BF
:102850009200A3502B78664603404846401A304009
:10286000800083404A1CD2089200A05802310343E2
:10287000A350CA089300E0580135B942E0D143465D
:10288000DA880127924680229200944652465212DC
:102890003A40D20090460421464698885D8842120C
:1028A0003A40029352421B880A4032435E12310082
:1028B0006E1239400A43310039404E003100114355
:1028C0006246A25811435246D213D200914688461E
:1028D00004214E46C21352420A4041463243DE139F
:1028E0003243EE13760032431206114352469213DE
:1028F0003A40D2009146884604214E4682133A401F
:1029000052420A4032439E133100AE1339400A430B
:10291000310039404E0041463243120511435246C0
:1029200052133A40D2009146884604214E46421343
:102930003A4052420A4032435E1331006E1339402E
:102940000A43310039404E003243464612043243B6
:102950000613310039404E4204210E405146B14623
:102960000E133E40F600B0464E4641460E43B0467A
:102970001E133E40B146464649460E43B0462E130E
:102980003E407600B146464649460E435146360320
:102990003243CE1204213E40F600B146C6123E40FC
:1029A00076420E40B0464E4641460E43B046DE12D9
:1029B0003E40B146464649460E43B046EE123E40C2
:1029C0007600B146464649460E43514636023243EA
:1029D0008E1204213E40F600B14686123E407642F9
:1029E0000E40B0464E4641460E43B0469E123E4013
:1029F000B146464649460E43B046AE123E407600CA
:102A0000B146464649460E43360132436646A25118
:102A1000524612123A40D2009446042166460212EF
:102A20003A4052420A4032431E123E4032432E1276
:102A30003E40760032435646F6113E40F600B04620
:102A4000C6113E4076420E40B446464661460E43AD
:102A5000B446DE113E40B046664641460E43B4469B
:102A6000EE113E407600B046664641460E43514662
:102A70003606120732434E1004213E40F600B0469F
:102A800046103E4076420E40B446464661460E43EE
:102A9000B4465E103E40B046664641460E43B446DC
:102AA0006E103E407600B046664641460E435146A3
:102AB00032438E1104213E40F600B04686113E405E
:102AC00076420E40B446464661460E43B4469E11D9
:102AD0003E40B046664641460E43B446AE113E40C7
:102AE0007600B046664641460E43514636053243AF
:102AF0004E1104213E40F600B04646113E4076425B
:102B00000E40B446464661460E43B4465E113E4012
:102B1000B046664641460E43B4466E113E407600CE
:102B2000B046664641460E435146360432430E11C6
:102B300004213E40F600B04606113E4076420E406B
:102B4000B446464661460E43B4461E113E40B0466A
:102B5000664641460E43B4462E113E407600B046CE
:102B6000664641460E43514636033243CE10042199
:102B70003E40F600B046C6103E4076420E40B44697
:102B8000464661460E43B446DE103E40B0466646B9
:102B900041460E43B446EE103E407600B0466646CF
:102BA00041460E435146360232438E1004213E40C8
:102BB000F600B04686103E4076420E40B446464689
:102BC00061460E43B4469E103E40B04666464146BE
:102BD0000E43B446AE103E407600B04666464146CF
:102BE0000E43360132438126B600A25104225146DB
:102BF000384040421040F0223940C90001433B4078
:102C00003D400B436D002B4312051B0713438222EB
:102C100039009200A3508022674F12063B680D00D6
:102C20008B433B60654B38001A601A601022644B7E
:102C30001A60042300910C3A002104F0C9FFD82344
:102C40000022A020FA50069BC00519685D4BCA02FD
:102C50001A40192384461A435B488B0163441C6065
:102C60005860832098601A618022029E3D63520260
:102C7000514B5B681342FBD14F48544B02960361A2
:102C800001238B40A02219008623D205DB00D150FE
:102C9000012103680B43036001F02AFD002900D1E4
:102CA00083E0FA220023920002F026F905000122B7
:102CB000414B1B6B1A4251D101F01AFD002940D043
:102CC000FA220023920002F017F9414B401B984270
:102CD000EDD9069BA020196801238B403D4AC00511
:102CE00083503D4B80229C46D946890108185204E6
:102CF00061440B681C0014401342FAD101222E4D8E
:102D00002B6893432B60D4230169EB58FE32C90131
:102D10001A40C90F314804F04BFE059A0499304817
:102D200004F046FE0423042200212800009404F04D
:102D30004FFF4B461B78012B00D1A3E4FEF7C0FEEA
:102D4000A0E4FA21890002F099F8214B401B984237
:102D5000BFD80122184B1B6B1A42ADD00121164A75
:102D6000029613688B43802189008C461360039A76
:102D7000049B624401330392059A9BB204939A42E6
:102D800000D021E5079BD9469846002304220093F2
:102D900000210433084804F01BFF4B461B78012B2D
:102DA00000D171E4FEF78CFE6EE4FA21890002F096
:102DB00065F8029E05007AE700002050D0102050F0
:102DC00000202050FD7F00FF100020501104000063
:102DD00010270000440400000C000050BCA70010A5
:102DE000F0A7001010B5184B82B01B78002B29D02B
:102DF00001240621022000F0F7FC0621032000F048
:102E0000F3FC0621042000F0EFFC0621052000F071
:102E1000EBFC0621062000F0E7FC0621072000F06D
:102E2000E3FC0123022200210848009404F0D0FEB4
:102E30000123032200210548009404F0C9FE00226A
:102E4000034B1A7002B010BDFFA1002000002050FB
:102E5000FEA10020F0B5C64600B582B06A4600214A
:102E60000520FEF72DFF00281CD0009D2B021FD04F
:102E70006B4B1D40642408E0009900291BDB3220C5
:102E8000013C01F01FFB002C0CD06A4629000520F4
:102E9000FEF716FF0028EFD16430013C01F012FB71
:102EA000002CF2D10024200002B080BCB846F0BD56
:102EB000E0256D03DEE75B4804F07AFD142001F0A5
:102EC00001FB6A4600210320FEF7FAFE002800D12C
:102ED0009DE0009C5448240C210004F069FD6A46E2
:102EE00007202104FEF7ECFE002800D193E04F4BB1
:102EF0004F4A1A604F4B1B78002B04D0C821C823BF
:102F00004D4A8902D1500A20C02601F0DBFA032481
:102F1000002536023420494901AA0195FEF7D0FE6A
:102F2000002802D0019B334202D0013C002CF1D199
:102F3000C0260324002536023420414901AA019508
:102F4000FEF7BEFE002802D0019B334202D0013CB6
:102F5000002CF1D1C0260324002536023420394943
:102F600001AA0195FEF7ACFE002802D0019B334276
:102F700002D0013C002CF1D1C026032400253602EA
:102F80003420314901AA0195FEF79AFE002802D0AB
:102F9000019B334202D0013C002CF1D1C026032416
:102FA000002536023420294901AA0195FEF788FE42
:102FB000002802D0019B334202D0013C002CF1D109
:102FC000C0231B020026002798460325C021342079
:102FD00001AAC9000197FEF773FE041E03D0424602
:102FE000019B13420CD0013D002DEFD1642001362E
:102FF00001F068FA642EE8D1154804F055FC51E759
:103000009B07F3D53100134804F0D2FC4BE712487C
:1030100004F04AFC46E7114804F046FC42E7C0468B
:103020000080FF0084A8001024A80010A00F00203A
:1030300000004840FFA1002000002050020E008048
:103040000020028002220280030800800204008027
:103050006CA800104CA8001010A8001038A8001090
:103060000048704764AF00100048704744AF00103C
:1030700070B5002821D0032825D8144B8000C558EE
:10308000280006F0F1FC04001F2812D8002807D001
:1030900000230F4AE95C013311800232A342F9D3C5
:1030A000C023013464009B0023430A489BB2038081
:1030B00070BD1F240028EBD1F2E7074B0548438081
:1030C000063BFF3BF3E70020F2E7C04630AF0010BD
:1030D000061800200418002009040000F0B5C646B8
:1030E0001E00474B04000D00984600B517184346D4
:1030F000186800280ED00023424A117A002905D012
:103100001168A14202D85168A1425FD201330C324A
:103110008342F2D129002000002E0ED0FEF706FADD
:1031200000280ED080239B009C4601346544BC429D
:10313000DDD1002080BCB846F0BDFEF785F900283F
:10314000F0D143462F4D186800222B0000280CD0E8
:10315000197A002905D01968A14202D85968A142FC
:103160000ED201320C339042F2D1002E39D02649D2
:103170002200264804F01CFC4346186800283DD075
:103180002B000022671C197A00290AD01E68596892
:10319000A64201D8A14215D20131A14228D0BE4297
:1031A00021D001320C339042EDD110280AD0431CBB
:1031B0004246136043001B189B00EC50ED1801239E
:1031C0006C602B72FEF74CF80120B3E7002E06D19D
:1031D0000F4922000F4804F0EBFB0120AAE70A493F
:1031E000F7E70B49C4E753009B189B00EC50E9E755
:1031F00053009B189B00EB185C60E3E70123D7E7C3
:10320000709A0020B0990020D0A8001004A90010E6
:10321000D8A80010E0A80010F0B5CE46474680B50B
:1032200083B0040001F064FA00290FD0FA220023D1
:10323000920001F061FE5D4E5D4F30603B78002BE7
:103240000ED103B0C0BCB946B046F0BDFA2189002A
:1032500001F014FE554E564F30603B78002BF0D0F5
:103260002100544804F0A4FBFDF708FBD023802282
:1032700005241B0652029A61642001F023F9012003
:1032800000214042013C04F06DFF002CF4D14A487B
:1032900004F00AFB643405E06430013C01F012F9EB
:1032A000002C6ED001200021404204F05BFFFFF7AC
:1032B00099FD4248FEF7D6FCFFF7CCFD0028EBD085
:1032C0006B46DC1D0023237001F012FA002951D156
:1032D000FA21890001F0D2FD05003F23984617E04E
:1032E000FA220023920001F007FE401B1D281AD885
:1032F000220007210120FEF7C7FD002805D0424625
:10330000237899469343402B0FD0012001F0DAF83F
:1033100001F0EEF90029E3D1FA21890001F0AEFDB8
:10332000401B1D28E4D92378994601F0E1F90029D2
:1033300036D0FA220023920001F0DEFD421B4946FE
:103340001F4804F035FBD02380221B0692029A61AD
:10335000002301223B701B4B1A701B4B1A7001F0AB
:10336000C7F9002916D0FA220023920001F0C4FD0B
:10337000306066E7FA220023920001F0BDFD0500EF
:10338000ABE7124804F090FAD02380221B06920289
:103390005A6156E7FA21890001F070FD306050E76C
:1033A000FA21890001F06AFDC8E7C046C0A10020EB
:1033B00000A2002024A900104CA9001000007A42AD
:1033C0006CA90010A80F0020FCA1002094A90010F7
:1033D000F0B557464E46DE464546E0B587B001910A
:1033E00080219946734B82461B7889008A4210D20D
:1033F000002B20D1002321220521002005F0E2FC32
:103400000120404207B0F0BCBB46B246A946A046E8
:10341000F0BD802189028A427FD2520A0392002B9A
:10342000E8D0654B1B689A45E4D252469B1A039A32
:103430009342DFD305E0604B1B689842DAD2012348
:1034400003934B46002B70D05C48FFF7E5FE5C4BC6
:103450001B78002B00D091E0D02380221B061203A2
:103460009A61584B049300230293574B00269B46C6
:10347000564B0593039B984643469D1B402D00D910
:103480004025019A77023B009446634400935346DB
:103490009C195B46186800280FD000224C4B671916
:1034A000197A002905D019688F4202D959688C42CF
:1034B00015D901320C338242F2D14B462000009ADA
:1034C000E9B2002B2CD0FDF7C1FC002814D12B0051
:1034D00022000499059804F06BFAFDF7C1FE4B46F3
:1034E0002A0020000099FFF7F9FD029B9C468444C6
:1034F00063460293002802D176194645BCD3D024F6
:103500004B462406002B1FD080231B036361029BC4
:10351000002B3AD1039B580274E7FF2203927EE707
:10352000FDF7C8FB0028D2D0E6E72A48FFF774FE73
:10353000234B1B78002B21D1D02380221B06D202E3
:103540009A61254B04938EE78023DB026361029B23
:10355000002BDFD080255146029B039AAD021F4805
:1035600004F026FA5020656100F0ACFF0023112220
:1035700003211800A56105F025FC41E70123042281
:103580000221002005F01EFC3AE780255146029BEF
:10359000039AAD02114804F00BFA5020656100F067
:1035A00091FF0023032218001100A56105F00AFC19
:1035B00026E7C046FAA10020B09B00208CA3001093
:1035C00000A20020D0A80010709A0020B4A900101A
:1035D000B0990020C8A20010D8A80010F8A90010C7
:1035E000014B18687047C046C0A10020044B1B78EF
:1035F000D8B2002B02D0034B1878C0B27047C04637
:10360000A80F0020FCA10020014B1878C0B2704721
:1036100000A2002010B50B4804F046F9FDF7FAFFB0
:10362000322000F04FFFFDF735F9D02380221B0632
:1036300052025A610022044B1A70044B01321A7074
:1036400010BDC04638AA0010A80F002000A200201C
:103650000D4B10B5186001230C4A13700C4A1370FF
:103660000C4A137001F044F8002907D0FA22002315
:10367000920001F041FC084B186010BDFA2189004E
:1036800001F0FCFBF7E7C046B09B0020FAA1002048
:10369000A80F0020FCA10020C0A10020F0B5C64664
:1036A00000B58AB08C4602A998460B00124C170050
:1036B00024CC24C3227805AD1A702B000F4C45CCC6
:1036C00045C3226860461A6022791A710C4B6A461B
:1036D000009300231371082202F0D8FA2900102267
:1036E000380002F0D3FA04226946404602F0CEFACE
:1036F0000AB080BCB846F0BD60AA00106CAA0010E9
:1037000030313030014B18787047C046FAA10020A4
:10371000034B1B680B6080239B0013807047C046DF
:10372000B09B002010B5002B01D0002A01D0012051
:1037300010BD024804F0B8F8F9E7C04680AA0010AE
:1037400070B51E00049B0500DC05E40D0800144361
:1037500011001A00002C04D100233100FFF738FEBD
:1037600070BD064804F024F9002324220521280016
:1037700005F028FB01204042F2E7C04698AA00105D
:1037800070B51E00049B0500DC05E40D0800144321
:1037900011001A00002C04D101233100FFF718FE9C
:1037A00070BD064804F004F90023242205212800F6
:1037B00005F008FB01204042F2E7C046C4AA001011
:1037C00010B504000978064804F0F2F8002320221E
:1037D0000521200005F0F6FA0120404210BDC04648
:1037E000F0AA001001207047094A83009A1810B50A
:1037F00014684022544080322240064CC000A44647
:1038000063441A60044B9C466044416010BDC0464E
:1038100004C0014004D0014000400140074B80003B
:10382000C3181B68C90092000A435A400C23134076
:10383000034A9446604403607047C04604C0014098
:1038400004D001400123D022834012069362936189
:10385000094A83009A1811684022514080320A4078
:103860000649C0008C4663441A60054B9C460523FC
:10387000604443607047C04604C0014004D001402A
:10388000004001408023DB051868000F7047C046E8
:103890000FB400B5084883B004F006F8049B002B71
:1038A00007D005A91800019103F058FE034803F062
:1038B000FBFF012003F06AFE14AB001090A900107A
:1038C00070B5EFF3108C72B60D4D2B68002BFCD049
:1038D000BFF35F8F0724CB08C618C05C01230C40E0
:1038E000A3401C000440034207D118433070BFF3CB
:1038F0005F8F2C608CF3108870BD1000FFF7C8FF3D
:103900002C0100D0F8B54746CE46884680B5EFF387
:10391000108C72B61C4D2C68002CFCD0BFF35F8F4E
:103920009A4222D807210126894602E001329342B9
:1039300018D34D4637001540AF40D4080119045D37
:103940002742F3D110003C430C70BFF35F8F00227D
:103950000D4B1A608CF3108800280EDBC0BCB946F2
:10396000B046F8BD01204042EFE7BFF35F8F002370
:103970002B608CF31088012040424346002BEDD091
:103980000898FFF785FFC0462C0100D0044A107844
:10399000431CDBB2172B00D9102313707047C046AD
:1039A000A90F002010B5064B064C82B00100009311
:1039B00018221F232000FFF7A5FF02B010BDC0464C
:1039C00024AB00107C9B00200021044B044ABFF371
:1039D0005F8F02C39342FAD17047C046000100D006
:1039E000800100D0054B064A1360064A13605360FD
:1039F0009360D360136153619361704780808080CE
:103A000000E400E004E400E01F2318401E3B834074
:103A1000002905D0C021044A490053501360704763
:103A2000802201498B50FAE700E100E070B50D00FB
:103A3000EFF3108672B60F4A1368002BFCD0BFF369
:103A40005F8F0D4B10309B6884001B590B4A9342CB
:103A500003D09D4201D001F0BFF8074B9B681D5178
:103A6000BFF35F8FBFF35F8F0022024B1A6086F3B4
:103A7000108870BD240100D000ED00E0C1010010ED
:103A8000F0B557464E46DE464546E0B585B00600E1
:103A900000911700EFF3108B72B66A4A1368002B7F
:103AA000FCD0BFF35F8F0025674B5D579A46002D12
:103AB00000DAA9E06B00654C01935B199B00984606
:103AC000A146C1444B4652469B7910361370604B59
:103AD000B6009B6899590B1B2F2B33D95D4B99422C
:103AE00000D0ACE0019B42469C465B4B6544AD0078
:103AF00063535A4B0232A218043B9B1A1B05584AC7
:103B00005B0D651913436B80564B0121AB80FF237E
:103B1000AB71009BEF71AB604B460B4319004C4BF4
:103B20009B689951BFF35F8FBFF35F8F0022454BB6
:103B30001A608BF3108805B0F0BCBB46B246A946AC
:103B4000A046F0BD01200A008243D3798C46BB42D7
:103B500031D84546130044491B1B5B415943090DAD
:103B60003D4B63533D4B02356519043B5B1B1B0505
:103B70003B4D5B0D2B43AA464D466B800425AC465E
:103B80005546E044131F44441B1B1B055B0D1D439E
:103B90004B46997100999D8099604946DF71334B7E
:103BA00001431360BBE75800C01880002018C1799A
:103BB000B9422FD902000623D356002BF3DA029321
:103BC0002B4B61460393131D9A4604235B429C468C
:103BD000E14450464B461B1A1B055B0D9C46204B8F
:103BE000957198466346404603439380019B5A195A
:103BF0009200039BA418A380029B1C4AA371009B04
:103C00002260E771A3608AE700F0E6FF00255346D3
:103C10005D574FE7908802934005131D9A460315A0
:103C200061469C464046D444634604302018181A26
:103C3000E0230005400D1B0218430390C5E700F088
:103C4000CBFF4FE7240100D0FDA10020AC0F0020E6
:103C500000ED00E0C101001000A1FFFFDC0F00201B
:103C600000E0FFFF01BDFFFFAAAA00000148804756
:103C700001BD0000F0B5DE4657464E464546E0B56C
:103C80000C0083B0EFF3108872B6634A1368002B00
:103C9000FCD0BFF35F8F614B61499A68030010331A
:103CA0009F00D55901938D4243D0A54254D05D4E1B
:103CB000AA1B2F2A3DD85C4B9B461B6899460123C3
:103CC0001A009C4682404B4613401F229946634689
:103CD000024093409A4680225B4650469850BFF37C
:103CE0005F8FEFF305839B46002B37D0019B5B452D
:103CF00001D000F071FF01232A009A4390688442AA
:103D000008D176E04B005B189B00F318986884425A
:103D100036D01A00062151560029F3DA844254D0D5
:103D20004B46002B27D0C02251463F4B52009950A2
:103D300019603A4B9B68DD51BFF35F8FBFF35F8F14
:103D40000022354B1A6088F3108803B0F0BCBB46E4
:103D5000B246A946A046F0BD0D00EAE72A00634638
:103D60009A4390688442D5D106201056130000284B
:103D70000ADA0D0031E0802351462B4AD150D8E7B2
:103D800006201856002821DB4200111889007418FB
:103D90008B46A1689960E179D971062161569971C4
:103DA000002924DBA488F11A640524155C44091950
:103DB00009051E4C490D2143998013181C4A9B008C
:103DC0001178F31899711070AAE713005946002969
:103DD00014D1FF3191711749918015490A789A7170
:103DE000154A9B1B5B415A43120D0A7098E7114913
:103DF000E2E70620105613000028C5DA0F4A1049E2
:103E0000D21A083A5002400D014399800D495208D8
:103E10000A43DA8084E7C046240100D000ED00E0C8
:103E2000C1010010AC0F002000E100E000E0FFFF46
:103E3000FDA1002001BDFFFFAAAA0000E60F00209F
:103E400000F0FFFF00F8FFFF70B501240443EFF31B
:103E50000581EFF3108C72B6214A1368002BFCD059
:103E6000BFF35F8F1F4B05001F4AED1A6D416A4378
:103E7000120D1E4D8900AE6852B27658A6421CD073
:103E80000621595691421CD012215956914222D0F6
:103E90001E215956914220D02A215956032491427D
:103EA00010D0134B19781A708171BFF35F8F002205
:103EB0000B4B1A608CF3108870BDAB680D4C5C50D6
:103EC000EFE700246100091989005B18FF2199714F
:103ED00009499980E5E70124F4E70224F2E7C046A6
:103EE000240100D0AC0F0020AAAA000000ED00E0E1
:103EF000FDA10020C101001001BDFFFF024B9C4647
:103F000061448900016070474000003470B5114C75
:103F1000114DAC420FD2FF262368002B0CD0FFF7C7
:103F200035FD01002000FFF7E9FFA680BFF35F8F9A
:103F30000834AC42F0D370BDFFF728FD010020002B
:103F4000FFF7DCFF2671BFF35F8F0834AC42E3D389
:103F5000F1E7C046681000207010002010B5040082
:103F6000FFF714FD01002000FFF7C8FFFF232371B6
:103F7000BFF35F8F10BDC04610B504000120FFF7EE
:103F800011FD034BC3189B002360BFF35F8F10BD6F
:103F9000400000340A4B1968EFF3108072B60A68CB
:103FA000002AFCD0BFF35F8F1B68BFF35F8F002236
:103FB0001A6080F3108840BF002000217047C0467F
:103FC000E8A10020F0B5DE4657464E464546E0B52E
:103FD00087B0EFF30583032201251A409540910035
:103FE0008846A946B34B03925C58B34B1D60B34B54
:103FF00004934B46B24843630823E55E002D37DA4D
:10400000A3881BB2002B00DBADE0A379002B00D00E
:10401000EEE00823E05E002820DB430062691B1805
:10402000DB00D3189E68DD68731C00D111E1A44841
:1040300001004144826A0B69B71A9B1A9F4215D34B
:104040000123026A039883401A420FD09C4800F073
:1040500047FB8D4202DCCCD18642CAD940BF07B0B3
:10406000F0BCBB46B246A946A046F0BD0E61EDE7E6
:1040700062696B0092465B19DB009A4453469E6866
:10408000DF6800F02DFB8F42BADC00D103E1002F86
:1040900000DAE8E05246534652691B699346049A97
:1040A000934200D1D9E052460821605E5288000454
:1040B000594610439847009001910099019A0B00CE
:1040C0001000134300D1CEE013000A00B61A9F413E
:1040D000002806DB7A4800F003FB009E019F36189B
:1040E0004F4153469E60DF6000229A5E002A00DA4C
:1040F00086E7530099186069C900411802938B68DC
:10410000C9689B46B94200DD7AE702D1B34200D9C3
:1041100076E708239C46A444059565462281A4467B
:10412000029B2C0006E053009918C90041188D68C5
:10413000C968AB469B18DB00C318B94206DC00D146
:10414000B3E01C000023E25E002AECDA23006446A0
:104150009C4653461A806346059D1D80A3881BB26A
:10416000002B00DA51E72269EFF3108172B6136871
:10417000002BFCD0BFF35F8F0123A7885B42A38095
:104180003FB22369BFF35F8F00221A6081F310886A
:10419000002F00DA39E72300083322009A466669C7
:1041A0007B00DB19DB00F318996850468C46082425
:1041B000115FDD68002910DB029306E0AB4244D0BA
:1041C0000023E15E2000002906DB4C006418E400B7
:1041D0003419E368AB42F1DD029B078000201F5ECB
:1041E0001980002FDCDA1400A379002B00D110E72E
:1041F0000023A37126000823E15E08364B1C00D182
:104200002CE70800A246656902E03E004B1C1AD06C
:104210004B005B18DB00EF180A008C46E95E7B88D8
:104220001BB2002BF1DA01235B42DC17BB60FC60A0
:10423000824205D0534631801B893B8053461A8108
:1042400060464B1CE4D15446E5E6A3686345B7D904
:10425000C2E76B1C00D0EAE6F8E65B4658461B69ED
:10426000984700281BD153461B8822692381EFF30E
:10427000108372B611680029FCD0BFF35F8F5146DE
:1042800062880A8022696580BFF35F8F0021116018
:1042900083F31088B4E6864200D8F8E6B0E65B46C1
:1042A0001A685B680092019307E7B34500D848E7B6
:1042B0004CE7C046CCA100203C700540C53F001033
:1042C0000040054070B52E4C2569002D04D00A2110
:1042D0002C48FFF713FE70BD2B4E0321300000F079
:1042E000F5F9E660FFF752FB284B03229C46D023EA
:1042F00022701B061B6801216370254B6044A3607C
:104300000F23800020610220638063694942A180FD
:1043100019800231198647311D83585218315A527B
:1043200075325C3999521832013199521832013183
:104330009952183201319952083518329D52023182
:10434000183299521832013199521832013199526A
:104350001832013199521832013199521832013113
:1043600099520C4B0C49DC6001303562FFF75EFB63
:1043700001210320FFF748FB084B1D60A7E7C0465B
:10438000F40F0020E8A10020004005404000003468
:10439000FFFF1000CCA10020C53F00103860054091
:1043A00070B501000469EFF3108C72B62068002824
:1043B000FCD0BFF35F8F02200D5E4C69680040198E
:1043C000C00024180869002D36DB26884E80BFF314
:1043D0005F8F002606608CF31088E3606388049882
:1043E000013320615B0405985B0CA26060611A1CBC
:1043F000002B1FD093B22804628018430A69EFF3A0
:10440000108C72B61368002BFCD0BFF35F8F8B88C3
:1044100023808D800B69BFF35F8F00221A608CF3BD
:1044200010880B7801329A40CB6808498C46634467
:104430001A6070BD0122DDE7BFF35F8F00230360C8
:104440008CF3108801204042F3E7C0463C20000076
:1044500010B543890A1493421ADD53009B18426930
:10446000DB00D3180469EFF3108C72B62268002ABF
:10447000FCD0BFF35F8F5A88090494B2090C8A42BA
:1044800008D00369BFF35F8F00221A608CF3108895
:10449000002010BD8022120214435C8001230269B7
:1044A0008371BFF35F8F002111608CF31088044982
:1044B00002788C469340C268012062441360E8E7AA
:1044C0003C200000F0B5C64600B582B0040000F004
:1044D0000FF9FA2206000F002000002300219200AD
:1044E00001F0F0FA8019794104000D1E02DA01246E
:1044F0002E4D644206267642F71736196F41AF42B9
:1045000014D811D000F0F4F832003B00121A8B419D
:10451000002B15DC002B46D02000290000F026F9E6
:1045200002B080BCB846F0BDA642EBD900260027F9
:1045300000F0DEF832003B00121A8B41002BE9DD5F
:1045400000F0D6F832003B00121A8B41002B0ADB38
:1045500000230193164B3200009316483B00FFF7EF
:104560001FFF0130D8D000233900B0469C46124AC4
:104570001248536A994204D8966A4645CCD2994269
:10458000CAD10668EFF3108772B63368002BFCD0EF
:10459000BFF35F8F0368BFF35F8F66461E6087F3CC
:1045A000108820BFE5E7002AB6D0C9E7FFFFFF7FEC
:1045B000953F0010F40F002000400540E8A10020C6
:1045C000F0B557464E46DE464546E0B506000F00BC
:1045D00085B0EFF3058399468B46002B12D03849FE
:1045E00000204B6ABB4206D38A6ADB1B591E8B41F3
:1045F000B2424041184305B0F0BCBB46B246A946A2
:10460000A046F0BD2F4B9A46DB68984653461B7870
:104610004046039300F064F84246039B04000433D1
:104620009B009B580D001B1A39003000001BA9414C
:10463000894510DC0DD020BF214A0020536A5B451C
:10464000D9D3926ADB1B591E8B41B24240411843B9
:10465000D1E78342EFD900F04BF832003B00121A49
:104660008B41002B1ADB00230193174B3200009380
:1046700050463B00FFF794FE011E0FDD104B5A6AB7
:104680005A451BD39B6AB34216D35046FFF7E0FE50
:104690000B4A0020536A5B45ADD3D2E7084A00209D
:1046A000536A5B45A7D30020926ADB1BB2424041AC
:1046B0005A1E934118439EE75A45E6D120BFE4E7CE
:1046C00000400540F40F0020953F001010B5024A4D
:1046D0000248FFF7F5F810BD40AB0010809B0020AA
:1046E0000300416A0A00986A596A8A42FAD17047FF
:1046F000034B596A0A00986A596A9142FAD1704785
:104700000040054070B504000D00174A536A1900B7
:10471000966A536A8B42FAD13000190024184D4131
:10472000AB4216D813D0104B2A005B6A9D4203D9C6
:104730000D494B6A9342FCD3934207D10A4A02E0E7
:10474000516A994202D1916AA142F9D370BDA64241
:10475000E9D9054B5B6A1C005A1CEFD001220124E9
:104760006442E5175242E3E700400540064A536AB7
:104770009942FCD807D1044B02E05A6A914202D117
:104780009A6A9042F9D8704700400540F8B5040095
:1047900006200D0000F078F9002844D0374B384946
:1047A000E3185A1E93418022120494465B429B0DEB
:1047B000344A9B0563441360334A136018000A6847
:1047C0009043FBD12D4B314AE31859424B41802194
:1047D0005B0049000620995200F056F92900C000FC
:1047E00000F04CFB0130C3091ED140270122626258
:1047F000A362266BF30722D4E36A254B0620E51853
:1048000000232B60266300F03FF93900800000F0A0
:1048100035FB7023E26A5A400E3313402B601D4B68
:1048200023630323A364F8BD1B4A93421ED90023CC
:104830001A4A1B4F6262A362266BF307DCD5194B41
:10484000144AE3181A60656AA36A0620AD01ED18E0
:1048500000F01AF9144900F011FBAD020100280024
:1048600000F00CFB0021FFF74DFFC5E74006800E6E
:104870009F011A003F180300B9E7C0460080FCBF43
:1048800008C0004000E0004000F00040ECA1002023
:104890002C10000001030000FEFF0000FFFF0000DD
:1048A000C0FF3F00303000004E0E0000F8B5DE467D
:1048B0004E4657464546E0B58B4605000A99180016
:1048C000160000F0DBFA0A9B6C001F02324B6419E1
:1048D0009C46A4006444636881469F4200D9676097
:1048E0002B1FDBB29846012B30D9C02380229B01BD
:1048F000E31812011A60294BAD0059599A46002954
:104900001BD17301E026226853401E40802342469B
:104910005B01E3181E60012A30D9802380229B01AD
:10492000E31812011A6053464A4667605A51F0BCB8
:10493000BB46B246A946A046F8BD586900F09EFAAB
:10494000013043001B18033BFDD2DAE75B46012B25
:10495000CBD1C02303229B01E3181A60023AA3685B
:104960001A42FCD07301E0262268AD0053401E407D
:1049700080230A4A5B019246E3181E605A4621686A
:10498000514003220A401A6001225B469A40A36804
:104990001A42FCD0C1E7C04600800040889B00203E
:1049A000F0B546464F46D646C0B51F00344B4400CE
:1049B0009C462418A4006444636888461600FF2BB4
:1049C00002D880235B006360031FDBB29A46012B91
:1049D00030D9C02380229B01E31812011A60294BB1
:1049E00085005959994600291BD17301E026226898
:1049F00053401E40802352465B01E3181E60012A8B
:104A000030D9802380229B01E31812011A60802391
:104A10005B0063604B465F51E0BCBA46B146A846B6
:104A2000F0BD586900F02AFA013043001B18033B1F
:104A3000FDD2DAE74346012BCBD1C02303229B01F1
:104A4000E3181A60023AA3681A42FCD07301E02608
:104A50002268850053401E4080230A4A5B0191462C
:104A6000E3181E6042462168514003220A401A6042
:104A7000012342469340A2681342FCD0C1E7C046DE
:104A800000800040889B0020014B8000C058704788
:104A9000889B0020F8B5040021481E0017000D0077
:104AA00000F0ECF90100380000F0E8F9069B36044C
:104AB0001B031E432368002B20DB1A4B1A49E31803
:104AC0005A1E93418022920194465B421B0B174A67
:104AD0001B0363441360164A13601F000A68974360
:104AE000FBD1144B2560E2182123A06013602368DA
:104AF000002BFCDA0823E6601360F8BD3F23226830
:104B00001340AB42D9D1A3681B051B0D8342D4D1FE
:104B1000EE22E368D2021340B342CED1EDE7C046A5
:104B2000001BB7000040FDBF08C0004000E000408F
:104B300000F00040043000008023024A9B000B4339
:104B4000D362704700800540002310B50100988AA9
:104B50001B8B984710BDC046162310B5010018885E
:104B600002331B88984710BDF8B54746CE4680B53E
:104B70000F1E18D014239946043304000025012683
:104B800098464B461888434621681B88984701C4BD
:104B9000431E984101350640AF42F2D13000C0BCFF
:104BA000B946B046F8BD0126F8E7C046AA23064A32
:104BB0001B0113608D235B00D3600449044B196013
:104BC0005368002BFCDA70470040024000B0FA0046
:104BD000006002407047C04610B50148FEF758FE1D
:104BE00064AB001070B5074D074EB54209D20024E2
:104BF000013E761BB60808CD984723000134B34226
:104C0000F9D170BD009D00103C9D0010054B064A77
:104C100006491A60064A074B1A6010000B68984351
:104C2000FBD1704700E00040BFCDFBFE08C0004054
:104C3000FE7F3C0000F00040044BDB6C002B03D1F6
:104C40008022034BD2021A607047C0460000115008
:104C50004C201150044A054B1A60054A1368DB01C9
:104C60008033FBD17047C046FFFFFF0100F00040DA
:104C700008C000404022034B9A675A671A67DA66F9
:104C80007047C04600F0014010B5FEF79DFE10BD14
:104C9000F8B52749274C284D641AA6103200302E4B
:104CA00000D930222800920000F0F0FFBC2C3BD845
:104CB00030202F232C196407204A801BE40F9B1BF4
:104CC000052B16D93700002C02D0B300771CEA5010
:104CD000001B33199B004108EB18C900C9181A6062
:104CE0005A6008339942FAD1012303421CD09843F9
:104CF000C619B300EA50731C2F2E15D09B00EA5042
:104D0000B31C2E2E10D09B00EA50F31C2D2E0BD07E
:104D10009B00EA50331D2C2E06D09B00EA50731DD9
:104D20002B2E01D09B00EA50054B9D60F8BDC0467C
:104D300000010010C001001000000020C10100109F
:104D400000ED00E0002310B5294C82B0A367FFF707
:104D50002DFF0122274B1A60636C012BFCD103222B
:104D6000254B1A60224A936B012BFCD1013300932F
:104D70000121224A22480433FFF78CFE052301213A
:104D80000093204A2048FFF785FE002202210420DC
:104D90001E4BFFF705FE0022012105201C4BFFF7EB
:104DA000FFFD0022002107201A4BFFF7F9FD00222A
:104DB00000210820174BFFF7F3FD8023DB00009351
:104DC000002200210920134BFFF770FD0022104B39
:104DD00000210620FFF7E4FD0420FFF755FE0E49F1
:104DE00000F04CF801000020FFF7A6FE02B010BD55
:104DF000008000403CB0004030B00040002F6859B7
:104E000000800240008C864700C00240001BB700B3
:104E100040597307006CDC0240420F000148042136
:104E2000014B184710100020694B0010124A936F75
:104E30009B0815D29066D166002905D0FFE7FFE7F1
:104E4000FFE7516F106F704704B580210906C21744
:104E50005140002800D0C84304F012FF002104BDD7
:104E6000F0B5146E556E576F166FFFF7E3FF1466BB
:104E7000556657671667F0BD000000D0114A936F62
:104E80009B0813D210665166002905D0FFE7FFE7A3
:104E9000FFE7516F106F704704B5002801D0002064
:104EA000C04304F0EDFE002104BDC046F0B5146E11
:104EB000556E576F166FFFF7E5FF14665566576717
:104EC0001667F0BD000000D094464A4A926F9208DF
:104ED000624601D228E0C046F0B5464E346E756E8B
:104EE000776F366F00F020F89446424A1466556694
:104EF000576716676246F0BD94463E4A926F920825
:104F0000624601D254E0C046F0B53A4E346E756E3A
:104F1000776F366F00F04CF89446364A1466556643
:104F2000576716676246F0BD002B24DB11D00029BD
:104F30003EDA00B5C943404200D1013100F038F8F3
:104F4000C943404200D10131DB43524200D1013319
:104F500000BD002AEBD1002801D1002905D0002096
:104F6000C90FC90701D1C043410800B504F078FE5C
:104F70000022002300BD00B500290ADBDB435242BA
:104F800000D1013300F014F8C943404200D101318F
:104F900000BDC943404200D10131DB43524200D140
:104FA000013300F005F8DB43524200D1013300BD6C
:104FB000002923D1002B18D1002A0CD0BC460D4F5C
:104FC00038667A6600210023FFE7FFE7FFE77A6F84
:104FD000386F67467047002801D00748010000B5C8
:104FE00004F03EFE0022002300BD02000B00002062
:104FF00000217047000000D0FFFFFFFF002B00D012
:10500000BFE0130C28D1002AE7D080B4114F3966D5
:105010007A66FFE7FFE730B4040C7B6F396F1B043F
:1050200023433B667A66FFE7FFE7FFE7C04684B2AB
:105030007B6F3D6F1B0423433B667A66FFE7FFE708
:10504000C04600232C042D0C7A6F386F001969417B
:10505000B0BC7047000000D0F0B594460025140E97
:1050600001D112020835140F01D112010435940F39
:1050700001D192000235D40F01D152000135D40B79
:105080000134254F7C66254C3C660E0C93B2FFE73D
:10509000FFE7FFE73C6F6643360C7703BE4673437A
:1050A000DF0B5B04C01AB941130C7343DB18C91A38
:1050B000CE086643360CB64493B273431F0F1B01F0
:1050C000C01AB941130C73431F0B1B05C01AB94119
:1050D000860D8F023E436643360C092D24DB520AAF
:1050E0007243801A7703460A6643360C16235B1B0D
:1050F000DE40DF40BF1964466643821B70460435BC
:1051000006330100D940A840C01900D30131A242A2
:1051100006D20023F0BD0000000000D0FFFFFFFF1B
:10512000121B0130F3D3F1E709277F1BFE406446D1
:10513000A2B27243801A00D20139220C7243130CBE
:105140001204821A99410B0070460435133701008E
:10515000F940A840801900D30131002B02D1A242AE
:105160000AD2F0BD013000D30131121BFAD2013B4B
:10517000F8D1A24200D2F0BD013000D30131121BA0
:10518000F7E7F0B51C0C00D080E00CB400251C0A39
:1051900004D11B02160E3343120208351C0B04D136
:1051A0001B01160F3343120104359C0B04D19B00E5
:1051B000960F334392000235DC0B02D192185B410B
:1051C00001351C00971864410134464F7C66464CFB
:1051D0003C660E0CFFE7FFE7FFE7C0463C6F664307
:1051E000360C7703BE4697B27743C01B00D2013915
:1051F000C01B00D201399FB27743C91BC91B170CD2
:1052000077437E04FF0B801BB941CE086643360C02
:105210000C2D33DBB644120B1F053A431B0B97B220
:105220007743C01B00D201399FB27743C91B170CCB
:1052300077433E043F0C801BB941860D8F023E43ED
:10524000664329277F1BFE400C3D7746AF40BF19C0
:1052500030BCA2B2ABB272437343801A9941220CA4
:105260007243130C1204801A994102000B0001379B
:10527000001BA941F9D2781E0021F0BD0C277F1B2D
:10528000FE4077467F0BAF40FF19E0E700245D1C2E
:1052900007D0144F7D663966FFE7FFE7FFE7FFE7BA
:1052A0003C6F95B29EB265436643401BB141150CFD
:1052B0001E0C6543664336042F0C3E432D04401BF1
:1052C000B141994204D202000B0020000021F0BD40
:1052D00001D19042F7D3801A994101349942F2D317
:1052E000F6E70000000000D0FFFFFFFF484041400C
:1052F000484018B41B4B5B68FC46019308BD04DFB3
:105300009755001018B4174B1B68FC46019308BD55
:1053100000DFA15500109446134A926F920809D2FB
:10532000624618B40F4BDB68FC46019308BD0CDFE6
:10533000595800100C4AF0B5146E556E576F166F21
:105340006246FFF7EEFF084A146655665767166710
:10535000F0BD18B4034B9B68FC46019308BD08DF01
:10536000FD560010F0110020000000D0FFB55040A5
:105370004240504059404B40594000E0FFB5154F66
:105380004C00640D03D0BC4204D10C0314D800209F
:10539000090D09055C00640D03D0BC4204D11C0357
:1053A0000AD800221B0D1B0501264B4009D44B4097
:1053B00003D58B4200D18242FFBD9942FCD190427D
:1053C000FFBD0B43DB1803431343F5D0C943491812
:1053D000FFBD0000FF07000000B5FFF7CFFF8041D1
:1053E00000BDC04600B5FFF7C9FF01D9002000BDD0
:1053F000012000BD00B5FFF7B9FF01D9002000BDB5
:10540000012000BD00B5FFF7B1FF804100BD0120C4
:1054100040054A00121804D85A00121801D800207A
:1054200070470120704700000021002805D1704717
:10543000C1174840401AFAD0C90713B5064B1B687C
:1054400098470CBC441CA2401005120B0349091BD1
:1054500009051943114310BDE4A100201F040000F9
:1054600010B54C00620D8023D218DB00D21A5B0508
:105470007E2A10DD9E3A13DACC1709034908194336
:105480005242D140640001341532202A05DAD0405E
:105490000843604310BD002010BD0846604310BDA6
:1054A000C80FC018013810BD18B4044B5B6AFC4625
:1054B000019308BD24DF095A00100000F0110020FC
:1054C000132370B51D78012D19D014DD1F48FFF787
:1054D00043FB06001E48FFF73FFB1E4C80223100B5
:1054E000200000F0D3FB022D2DD01B48FFF72CFB32
:1054F0001A4B186070BD1A4B164CA364F5E7184B95
:10550000144C23606360A360E36023616361A36163
:10551000E36123626362A362E36223636363A36361
:10552000E36323646364A364E36423656365A36541
:10553000E36523666366A366E36623676367A36721
:10554000E367A364D1E7064BA364CEE753440000AE
:1055500053460000F01100204C330000E4A100206D
:105560006555001007B5604601880A0A0230DF2A37
:10557000FAD1C9B2820804D30288408800041043DB
:1055800000E00068014A5050039007BDF011002070
:105590000FB403BC0CBCF0B50124E407634000E089
:1055A000F0B50C0DCF0F661E3605891B640503D3BD
:1055B000C943404200D30131640D03D0661CF60A92
:1055C00007D0E41B00207F00791C89078912803CEA
:1055D00024031D0DDF0F6E1E36059B1B6D0503D3C7
:1055E000DB43524200D301336D0D03D06E1CF60A2B
:1055F00007D0ED1B00227F007B1C9B079B12803D88
:105600002D032F1B661B58D4A446202E46DA2037C4
:105610001400BC401D00BD40F24033412A438018B5
:105620005941CB0F05D0C943C043002264425041C9
:10563000514162464D0D28D10D0D07D100281FD0D4
:10564000241940414941013A0D0DF9D0640006D3B7
:10565000013000D30131002C01D140084000013A53
:105660000BD4941CE40A04D112051144DB0719443D
:10567000F0BDD907204B194300E0D9070020F0BD49
:105680000029DDD1002CDBD1F0BD0132C607400876
:10569000CD0728434908002EE1D0D9E73C2E29DA6E
:1056A000203E40371400BC4000D00124F240144397
:1056B0001A00BB401C43D317ACE7AC46202F08DAD6
:1056C00020360400B4400D00B540F840394128436D
:1056D000A5E73C2F0CDA203F40360400B44000D050
:1056E0000124F84004430800B1400C43C117EAE725
:1056F00010001900002494E70000F07FF0B50C0DB5
:10570000661E3605891BE60A6405640D02D0651C19
:10571000ED0A04D0002001210905803C2403A446A1
:105720001C0D671E3F05DB1BE70A6405640D02D0F4
:10573000651CED0A04D0002201231B05803C2403D4
:105740007740644497B484B296B27443070C7E43A6
:10575000150C6F4380B26843361802D30120000451
:105760003F183004350C00197D41844688B29AB246
:1057700050430C0C62431F0C7C438EB27E43921943
:1057800002D301263604A4191604170C36186741F3
:1057900001BC81B29AB25143040C62431B0C5C43BE
:1057A00080B25843121802D30120000424181004B8
:1057B000130C401863412D185E410020474106BC80
:1057C00088B293B258430C0C6343120C544389B211
:1057D00051435B1802D301210904641819041A0CFF
:1057E000091862416D1856410020474118BCF90262
:1057F000720D1143F0026A0D1043ED020A0D03D140
:105800006D1940414941013B124E9B1B7600B3424A
:105810000ED26D0007D30130002671416646354334
:1058200001D1400840001B05C918E4072144F0BD20
:105830000BDA013306D1013004D101314F0D01D013
:105840004908F2E7E1070020F0BD013631050020EC
:10585000EBE70000FF030000F0B51C0D671E3F05DD
:10586000DB1BE70A6405640D02D0661CF60A04D04F
:10587000002201231B05803C2403D0252D06002691
:10588000F6432E661E096E66CE0FF619B446490021
:105890004F0D02D07E1CF60A03D000200021403FAD
:1058A0003F033E1BB600B444013F7F05C91B4908B6
:1058B0002E6F013676089C02950D25437543ED1336
:1058C0007543AD1301356D10F603761B0CB4CC0295
:1058D000450D2C43A2B2B3B25A43270C7B43350C7F
:1058E0006F43A4B26C431B1902D3012424043F1953
:1058F0001C041D0CA4187D4124196D41009A91B21D
:10590000ACB26143170C7C432B0C5F4392B25A43F9
:10591000A41802D301221204BF182204230C521827
:105920007B41019C6C431B19520ED9010A4344016F
:10593000A01A81B2B2B2514303145A43360C7343D6
:1059400087B27743D617D21900277E4136049B19B8
:105950001704160C7F185E417316ED18F30100262C
:1059600080337541A90F06D16400690AE8055B0A16
:10597000184309D22FE00422944480337541A90AC8
:10598000A8059B0A184326D3404149412404009AA4
:10599000019B0D005543641B4343E41A95B286B244
:1059A0007543170C7E43030C5F4392B25A43B618FB
:1059B00002D301221204BF183204330C52197B4166
:1059C00052429C41002C02D4002201305141400837
:1059D000CA071043490802B06246D7079210084B25
:1059E000D218084B9A4203D212058918C919F0BD82
:1059F0000020002A01DC3900F0BD01331905F5E76C
:105A0000FD030000FE070000002200B5203200F078
:105A100004F8080000BD000000220B150AD410B5E0
:105A2000944600F031F81414013400DA0021CB1749
:105A3000144C20470020002170476244343A0CD4B3
:105A40000C2A07DA04009140904052422032D440A0
:105A5000214310BDD843D94310BD203207D40C4692
:105A60009440524220321141D040204310BD0800E2
:105A7000C917203203D452422032104110BD180001
:105A8000190010BD3B5A00100A0DCC0F531E1B0508
:105A9000C91A520503D3C943404200D30131520D04
:105AA00003D0531CDB0A07D0121B00206400611CCA
:105AB00089078912803A1203014BD21A70470000FD
:105AC000FF03000051434343C9188C46110C83B2B5
:105AD0004B4310B4040C614392B280B25043624312
