:020000041000EA
:1000000000B5324B212058609868022188439860DF
:10001000D860186158612E4B002199600221596106
:100020000121F02299502B49196001219960352056
:1000300000F044F80222904214D00621196600F024
:1000400034F8196E01211966002018661A6600F04E
:100050002CF8196E196E196E052000F02FF8012189
:100060000842F9D1002199601B49196000215960AB
:100070001A491B48016001219960EB211966A021F2
:10008000196600F012F800219960164914480160C1
:100090000121996001BC002800D000471248134993
:1000A000086003C880F30888084703B5996A0420EC
:1000B0000142FBD001200142F8D103BD02B5186610
:1000C0001866FFF7F2FF186E186E02BD00000240BE
:1000D000000000180000070000035F00212200005C
:1000E000F4000018222000A00001001008ED00E03C
:1000F00000000000000000000000000074B24E7A12
:1001000000200420F7010010CB010010CD010010E9
:10011000C9010010C9010010C9010010C901001077
:10012000C9010010C9010010C9010010CF01001061
:10013000C9010010C9010010D1010010D301001045
:10014000C1010010C1010010C1010010C101001067
:10015000C1010010C1010010C1010010C101001057
:10016000C1010010C1010010C1010010C101001047
:10017000C1010010C1010010C1010010C101001037
:10018000C1010010C1010010C1010010C101001027
:10019000C1010010C1010010C1010010C101001017
:1001A000C1010010C1010010C1010010C101001007
:1001B000C1010010C1010010C1010010C1010010F7
:1001C000EFF30580103800BE00BE00BE00BE00BECA
:1001D00000BE00BEF2EB887168F100108CF10010D7
:1001E0003802001090A31AE71E481F49086006C88D
:1001F00081F3088810471D480068002801D019487D
:10020000F3E70DA40ECC002902D000F012F8F9E7B4
:100210001749184A002000E001C19142FCD116495B
:100220008847164988471649884700BEFDE701C937
:1002300001C29A42FBD370478CF10010C00000202D
:10024000701000203C010110000004200000042078
:100250003C010110001004200010042000000000E8
:10026000704700000000000008ED00E0000000D032
:100270007010002040A1002069B60010C5040010D5
:1002800061B60010F8B5C0460448054B10B583426E
:1002900003D0044B002B00D0984710BD70100020F5
:1002A000701000200000000006480749091A8B1052
:1002B000C90FC91810B5491003D0044B002B00D04A
:1002C000984710BD70100020701000200000000042
:1002D00010B5074C2378002B09D1FFF7D5FF054B4C
:1002E000002B02D0044800E000BF0123237010BDA2
:1002F000FC1500200000000008DE0010054B10B5C2
:10030000002B03D00449054800E000BFFFF7CCFFF5
:1003100010BDC046000000000016002008DE0010DE
:10032000F0B5DE4657464E464546E0B5534C544878
:10033000A5440BF021FB02F04FF8002811D15148E1
:100340000BF01AFB00F042FC4F4808F0E5F800F013
:1003500031FC4E4808F0E0F802F03EF8002800D1E9
:100360007DE04B480BF008FB80224A4C00219200B4
:10037000200009F0EDFC200005F010FA051E00D168
:1003800068E0200005F058FCA023E35A2188994634
:10039000A423E35A9A46A623E35A9B46A823E35A8A
:1003A0000593AA23E25A0233E05A0233E65A043391
:1003B000E35AB04603938023029276265E225B00C6
:1003C000E75A9E3BE35AA25AA45B04900094324839
:1003D0000BF056FB059B5246494600932F485B465F
:1003E0000BF04EFB039B049A029900932C48434662
:1003F00001970BF045FB05F007FD0121002006AA3F
:1004000005F03EFA002818D126480BF0B5FA002472
:100410002000012106AA013405F032FA102CF7D190
:1004200021480BF0A9FA280087239B009D44F0BCCB
:10043000BB46B246A946A046F0BD0821FF2304AA48
:1004400052185B00D35C1949552B0DD018480BF09E
:1004500017FBD9E717480BF08FFA0025E3E716489A
:100460000BF08AFA0025DEE70820144B04AA1218C4
:10047000D35CAA2BEAD11249E8E7C046E4FDFFFFAE
:1004800028DE001048DE0010B80B0000E02E00004F
:10049000A0DE0010FC9E0020D0DE001000DF001067
:1004A00038DF001084DF0010A0DF001018DE00101D
:1004B00074DF0010B8DE001080DE0010FF010000C5
:1004C00008DE0010F0B5C646E12100B5102282B06A
:1004D000490211234E480BF0ADFB642008F01CF8D4
:1004E0004C480BF049FA4C480BF046FA4B480BF0DD
:1004F00043FA4B480BF040FA092007F0CDF9D0241D
:10050000802324069B000A206362A36107F0C4F9DC
:100510008023DB006362A36100F020FB41480BF005
:100520002BFA00F053FBFA20400007F0F5FF00F033
:1005300041FBC82007F0F0FFFFF7F2FE002803D1CF
:1005400039480BF019FAFEE738480BF015FA38482D
:1005500005F01EFE05F0D2FD6B46DC1D00232200D7
:1005600007210120237005F025FF00283FD13148E5
:100570000BF002FA304805F04FFB0400C20A2100DC
:100580002E480BF07DFA200006F0FCFF2C480BF003
:10059000F3F9002108000DF063F92A480BF0ECF99B
:1005A000294BFA259846AD000120002140420BF06E
:1005B00045FE06F0D3FF0028F6D008F0C3F8070088
:1005C0000C1E19D006F0C4FFFA22060000233800E2
:1005D0002100920008F0F8FC811BA942E4D34046B8
:1005E0000BF04EFA05F0F2FB06F0C6FFDCE72178CF
:1005F00016480BF045FABDE706F0AAFFFA21040001
:100600008900380008F0A2FC011BA942CCD3E6E720
:1006100000400340B4DF0010E0DF0010FCDF0010FA
:100620001CE0001048E0001064E0001088E00010BA
:100630000000C840C8E00010FC9E0020E8E0001068
:1006400010E100102CE1001054E10010A8E00010AF
:10065000F0B54E4645465746DE46E0B53F2385B0E9
:10066000FF246D4618402404013318430C400B0E40
:10067000914629710A0A7F218C4609211B020343F6
:100680001206234313430093002200230727012669
:10069000884601E0D110685C644699095B002340FC
:1006A0003C00944320413040884202D041464B40B8
:1006B000DBB20132282AEDD101225B001343D024A2
:1006C0006B71082324066362023B6B449B46042340
:1006D000A8469A4604259D4E43461F78FB0967D1DC
:1006E0000833A361534663613068002867D1A56170
:1006F0007B0600D4F4E0082363616561A561BB0655
:1007000000D5E6E00823A3616561A561FB0600D57D
:10071000F4E00823A3616561A56108233B4200D092
:10072000E9E0A3616561A56108233D4200D0DFE0F7
:10073000A3616561A561BB0700D5D5E00823A3616E
:100740006561A5610823FF0700D5BFE0A36165616E
:10075000A56101239C46E044D845BDD1D024802525
:10076000073324066361A362043B984604276D00A7
:1007700008E063681B0700D4D6E04346A361013D4F
:10078000002D13D0676130680028F2D007F0E4FF35
:10079000636830681B0700D46EE14346A3610028FC
:1007A000EDD0013D07F0D8FF002DEBD100205CE13A
:1007B00008236361534663613068002897D007F0CF
:1007C000CBFF3068A561002800D186E007F0C4FFA8
:1007D00030687B0600D595E00823A3616561002899
:1007E0008CD007F0B9FF3068A561002887D007F0EA
:1007F000B3FF3068BB0600D593E00823A3616561B1
:10080000002882D007F0A8FF3068A561002800D139
:100810007CE707F0A1FF3068FB067FD40823A361C3
:100820006561002800D177E707F096FF3068A56181
:10083000002800D171E707F08FFF082330683B42A2
:100840006AD1A3616561002800D16CE707F084FFDD
:100850003068A561002800D166E707F07DFF082316
:1008600030683D4256D1A3616561002800D161E73F
:1008700007F072FF3068A561002800D15BE707F040
:100880006BFF3068BB0742D40823A3616561002871
:1008900000D156E707F060FF3068A561002800D15D
:1008A00050E707F059FF08233068FF072DD4A361F4
:1008B0006561002800D14BE707F04EFF3068A56165
:1008C000002800D145E707F047FF42E76361656113
:1008D0003EE708236361656117E77B0600D50AE7F9
:1008E0000823A361656109E708236361656128E75F
:1008F000636165611EE76361656114E708236361F5
:10090000656109E70823636168E76361D0E708234D
:100910006361BBE76361A7E7636193E708236361F2
:100920007EE7082363616AE74346A36100239B4691
:1009300002AB1800062200219846D02509F008FADB
:100940000423012404279A462D0609E0A00F002065
:1009500007F002FF336801349B46302C00D1ECE0F5
:1009600053466B615B46002B17D0584607F0F4FEE8
:100970006B6830681B0709D507210123A1438B4011
:100980004146E210895C0B4341468B54AF6100281D
:10099000DED10134302C12D06F6108226B68002048
:1009A0001A42E9D10134AF61302C08D06F616B6815
:1009B00000201A42E0D10134AF61302CF6D1D023AF
:1009C00004221B065A61D02304221B069A61D024FC
:1009D0000425306824066561002857D1D0230422FD
:1009E0001B069A61D02304221B065A61D0230422DD
:1009F0001B069A61D02304221B065A61D0230422CD
:100A00001B069A61D02304221B065A61D0230422BC
:100A10001B069A61D02304221B065A61D0230422AC
:100A20001B069A61D02304221B065A61D02304229C
:100A30001B069A61D02304221B065A61D02304228C
:100A40001B069A614B46002B0ED0092169444B7856
:100A50000A781B0213438A7812041A43CB781B06C8
:100A600013434A461BBA1360012005B0F0BCBB46D5
:100A7000B246A946A046F0BD4346A361002800D176
:100A800054E707F069FE33689B4651E707F064FEC0
:100A90003068A5610028A5D007F05EFE306865616A
:100AA0000028A3D007F058FE3068A5610028A1D027
:100AB00007F052FE3068656100289FD007F04CFEB9
:100AC0003068A56100289DD007F046FE306865615A
:100AD00000289BD007F040FE3068A561002899D01F
:100AE00007F03AFE30686561002897D007F034FEC1
:100AF0003068A561002895D0D024042507F02CFE8D
:100B0000306824066561002890D007F025FE306823
:100B1000A561002800D18DE707F01EFE30686561F1
:100B2000002800D18AE707F017FE3068A561002889
:100B300000D187E707F010FE84E76F61002B00D13A
:100B400041E7180007F008FE3068AF61002802D0C6
:100B500007F002FE3BE76F6140E7C04670B5022038
:100B6000D02506F099FE04232D066B620320AB61AD
:100B700006F092FE082300226B62012103206B61C4
:100B800006F076FE04240126200006F085FE3300E0
:100B9000A340200000220121AB62013406F068FE70
:100BA000082CF1D10D2006F077FE80239B016B62AB
:100BB0006B6170BDD023802210B51B0692010248E4
:100BC0009A610AF0D9FE10BD74E10010D023802292
:100BD00010B51B06920102485A610AF0CDFE10BD05
:100BE00088E10010F0B5E0234E4645465746DE4604
:100BF000DB05E0B505071D40DC4B49021940002329
:100C000083B00D43D02601930333A94692469846FC
:100C10000425D74C36064946342001AAFFF718FDB3
:100C2000071E00D08AE001235B429C46E044434615
:100C3000002B00D195E075612068002800D096E077
:100C4000B5617561D02304221B069A61D02304226A
:100C50001B065A61D02304221B069A61D02304226A
:100C60001B065A61D02304221B069A61D02304225A
:100C70001B065A61D02304221B069A61D02304224A
:100C80001B065A61D02304221B069A61D02304223A
:100C90001B065A61D02304221B069A61D02304222A
:100CA0001B065A61D02304221B069A61D02304221A
:100CB0001B065A61D02304221B069A61D02304220A
:100CC0001B065A61D02304221B069A61D0230422FA
:100CD0001B065A61D02304221B069A61D0230422EA
:100CE0001B065A61D02304221B069A61D0230422DA
:100CF0001B065A61D02304221B069A61D0230422CA
:100D00001B065A61D02304221B069A61D0230422B9
:100D10001B065A61D02304221B069A61D0230422A9
:100D20001B065A61D02304221B069A6149463420CF
:100D300001AAFFF78DFC071E00D174E75346019FFF
:100D4000002B00D01F70C0231B021F407B425F415D
:100D5000FFB2380003B0F0BCBB46B246A946A0467D
:100D6000F0BD0322342183480AF08AFEF1E707F040
:100D7000F3FC2068B561002800D1F5E007F0ECFC39
:100D800020687561002800D15CE707F0E5FC206869
:100D9000B561002800D159E707F0DEFC20687561D5
:100DA000002800D156E707F0D7FC2068B56100287D
:100DB00000D153E707F0D0FC20687561002800D10E
:100DC00050E707F0C9FC2068B561002800D14DE765
:100DD000D02707F0C1FC042320683F069B467B61B7
:100DE000002800D146E707F0B7FC5B462068BB61EE
:100DF000002800D142E707F0AFFC5B4620687B612A
:100E0000002800D13EE707F0A7FC5B462068BB61E5
:100E1000002800D13AE707F09FFC5B4620687B6121
:100E2000002800D136E707F097FC5B462068BB61DD
:100E3000002800D132E707F08FFC5B4620687B6119
:100E4000002800D12EE707F087FC5B462068BB61D5
:100E5000002800D12AE707F07FFC5B4620687B6111
:100E6000002800D126E707F077FC5B462068BB61CD
:100E7000002800D122E7D02707F06EFC0423206869
:100E80003F069B467B61002800D11BE707F064FC0E
:100E90005B462068BB61002800D117E707F05CFCC7
:100EA0005B4620687B61002800D113E707F054FC03
:100EB0005B462068BB61002800D10FE707F04CFCBF
:100EC0005B4620687B61002800D10BE707F044FCFB
:100ED0005B462068BB61002800D107E707F03CFCB7
:100EE0005B4620687B61002800D103E707F034FCF3
:100EF0005B462068BB61002800D1FFE607F02CFCB0
:100F00005B4620687B61002800D1FBE607F024FCEB
:100F10005B462068BB61002800D1F7E6D02707F0C8
:100F20001BFC042320683F069B467B61002800D100
:100F3000F0E607F011FC5B462068BB61002800D199
:100F4000ECE607F009FC5B4620687B61002800D1D5
:100F5000E8E607F001FC5B462068BB61002800D191
:100F600059E607F0F9FB56E675616BE600FEFF03F4
:100F7000A00F0020A0E10010F0B557469A46E023EC
:100F80000007DB051840E14B4902194080234E461B
:100F90004546DE46104308431B060343994600239B
:100FA000E0B583B0D0260193043303259846D84C8E
:100FB00036064946342001AAFFF74AFB071E00D037
:100FC00087E0013D002D00D196E043467361206823
:100FD000002800D096E0B3617361D02304221B0681
:100FE0009A61D02304221B065A61D02304221B06D7
:100FF0009A61D02304221B065A61D02304221B06C7
:101000009A61D02304221B065A61D02304221B06B6
:101010009A61D02304221B065A61D02304221B06A6
:101020009A61D02304221B065A61D02304221B0696
:101030009A61D02304221B065A61D02304221B0686
:101040009A61D02304221B065A61D02304221B0676
:101050009A61D02304221B065A61D02304221B0666
:101060009A61D02304221B065A61D02304221B0656
:101070009A61D02304221B065A61D02304221B0646
:101080009A61D02304221B065A61D02304221B0636
:101090009A61D02304221B065A61D02304221B0626
:1010A0009A61D02304221B065A61D02304221B0616
:1010B0009A61D02304221B065A61D02304221B0606
:1010C0009A614946342001AAFFF7C2FA071E00D1EF
:1010D00077E75346019F002B00D01F70C0231B02EF
:1010E0001F407B425F41FFB2380003B0F0BCBB46FB
:1010F000B246A946A046F0BD0322342185480AF035
:10110000BFFCF1E707F028FB43462068B3610028E5
:1011100000D101E107F020FB4346206873610028FD
:1011200000D15AE707F018FB43462068B361002856
:1011300000D156E707F010FB434620687361002892
:1011400000D152E707F008FB43462068B36100284E
:1011500000D14EE707F000FB43462068736100288A
:1011600000D14AE707F0F8FA43462068B361002847
:1011700000D146E7D02707F0EFFA042320683F06A6
:101180009B467B61002800D13FE707F0E5FA5B460C
:101190002068BB61002800D13BE707F0DDFA5B4621
:1011A00020687B61002800D137E707F0D5FA5B465D
:1011B0002068BB61002800D133E707F0CDFA5B4619
:1011C00020687B61002800D12FE707F0C5FA5B4655
:1011D0002068BB61002800D12BE707F0BDFA5B4611
:1011E00020687B61002800D127E707F0B5FA5B464D
:1011F0002068BB61002800D123E707F0ADFA5B4609
:1012000020687B61002800D11FE707F0A5FA5B4644
:101210002068BB61002800D11BE7D02707F09CFAAB
:10122000042320683F069B467B61002800D114E719
:1012300007F092FA5B462068BB61002800D110E7F6
:1012400007F08AFA5B4620687B61002800D10CE732
:1012500007F082FA5B462068BB61002800D108E7EE
:1012600007F07AFA5B4620687B61002800D104E72A
:1012700007F072FA5B462068BB61002800D100E7E6
:1012800007F06AFA5B4620687B61002800D1FCE623
:1012900007F062FA5B462068BB61002800D1F8E6DF
:1012A00007F05AFA5B4620687B61002800D1F4E61B
:1012B00007F052FA5B462068BB61002800D1F0E6D7
:1012C000D02707F049FA042320683F069B467B613C
:1012D000002800D1E9E607F03FFA5B462068BB61D1
:1012E000002800D1E5E607F037FA5B4620687B610D
:1012F000002800D1E1E607F02FFA5B462068BB61C9
:10130000002800D155E607F027FA52E600FEFF0359
:10131000A00F0020A0E1001073615EE6F0B5574613
:101320004E46DE4645461C00E0B58DB0029316AB36
:1013300006921A7817AB1B7808929B06D2061343C5
:10134000E205D20D1343C94A49021140E0220007C9
:10135000D2050B4310400343049300230593C44B71
:10136000D0271E003F060023032404250B933520BD
:1013700004990BAAFFF76CF900284BD1013C002C13
:1013800000D17FE17D613068002800D093E1BD612C
:101390007D610423BB6104237B610423BB610423BF
:1013A0007B610423BB6104237B610423BB610423B1
:1013B0007B610423BB6104237B610423BB610423A1
:1013C0007B610423BB6104237B610423BB61042391
:1013D0007B610423BB6104237B610423BB61042381
:1013E0007B610423BB6104237B610423BB61042371
:1013F0007B610423BB6104237B610423BB61042361
:101400007B61042335200499BB610BAAFFF720F907
:101410000028B3D00790C02001000B9A120A114097
:10142000104200D0E3E21022BA621032BA62089B86
:101430002032BA624032BA62002B00D132E2029B03
:10144000002B00D1CBE08132FF329446069B039102
:1014500063440193864B09969A46042398469B461B
:10146000042340269946834D09E07B684346BB61CF
:10147000002800D0BAE0013D002D00D1BCE05B4661
:101480007B6153461868002800D0AAE07C687B681E
:101490002406E40FE400E4B21E4202D04B461C4393
:1014A000E4B27B689B06E0D47B68DB06DED443466F
:1014B000BB61002800D0D5E0002CDCD15346186871
:1014C0006D4B019E9C464023994666445B467B617A
:1014D000002803D007F040F9534618684A467D6853
:1014E0007B682D06ED0FED00EDB21A4202D0042309
:1014F0001D43EDB27B689B0601D502231D437B682B
:10150000DB0601D501231D435B46BB61002826D1C4
:1015100043467B6100204A467C687B682406E40FD2
:10152000E400E4B21A4202D004231C43E4B27B6814
:101530009B0601D502231C437B68DB0601D50123F2
:101540001C434346BB61002816D12D012543019B56
:10155000357001369E421AD043467B61BEE707F0E4
:10156000FBF85346186843467B610028D2D007F049
:10157000F3F853461868CEE707F0EEF853462D010E
:1015800018682C43019B347001369E429ED118246A
:10159000554605E04346BB61013C002C10D028684D
:1015A0005B467B610028F5D007F0D6F843462868F3
:1015B000BB610028F0D0013C07F0CEF8002CEED142
:1015C000802189008C46019A039B62440133019279
:1015D000029A03939BB2AA469A4200D940E7079B1E
:1015E00061E007F0B9F8534618684FE7013D07F08E
:1015F000B3F8002D00D042E7029B0399099E012B0E
:1016000049D01A001D480AF03BFA059B022B45D031
:10161000013319001A4805930AF032FA144BD0240A
:101620009A460423994698463300202556462406B8
:101630009A4604E04B46A361013D002D10D043467D
:10164000636130680028F5D007F086F84B463068B3
:10165000A3610028F0D0013D07F07EF8002DEED107
:10166000564680E607F078F826E7C04600FEFF03FE
:10167000A00F0020A086010000FEFFFF14E2001072
:1016800038E2001003223521CF480AF0F9F9029B15
:10169000012B00D9F3E1059B022BB9D10321CB48E3
:1016A0000AF0EEF9002318000DB0F0BCBB46B246BC
:1016B000A946A046F0BD07F04FF83068BD6100288C
:1016C00000D1E3E107F048F830687D61002800D1DF
:1016D0005FE607F041F83068BD61002800D15AE6A6
:1016E00007F03AF830687D61002800D155E607F030
:1016F00033F83068BD61002800D150E607F02CF8BF
:1017000030687D61002800D14BE607F025F830688D
:10171000BD61002800D146E607F01EF804233068BA
:1017200098467B61002800D13FE607F015F8434654
:101730003068BB61002800D139E607F00DF8434658
:1017400030687B61002800D133E607F005F8434696
:101750003068BB61002800D12DE606F0FDFF43464E
:1017600030687B61002800D127E606F0F5FF43468C
:101770003068BB61002800D121E606F0EDFF43464A
:1017800030687B61002800D11BE606F0E5FF434688
:101790003068BB61002800D115E606F0DDFF434646
:1017A00030687B61002800D10FE606F0D5FF434684
:1017B0003068BB61002800D109E606F0CDFF0423A4
:1017C000306898467B61002800D102E606F0C4FF2D
:1017D00043463068BB61002800D1FCE506F0BCFF41
:1017E000434630687B61002800D1F6E506F0B4FF7F
:1017F00043463068BB61002800D1F0E506F0ACFF3D
:10180000434630687B61002800D1EAE506F0A4FF7A
:1018100043463068BB61002800D1E4E506F09CFF38
:10182000434630687B61002800D1DEE506F094FF76
:1018300043463068BB61002800D1D8E506F08CFF34
:10184000434630687B61002800D1D2E506F084FF72
:1018500043463068BB61002800D1CCE506F07CFF30
:101860000423306898467B61002800D1C5E506F066
:1018700073FF43463068BB61002800D1BFE506F026
:101880006BFF434630687B61002800D1B9E506F064
:1018900063FF43463068BB61002800D167E506F06E
:1018A0005BFF64E5029B002B00D1ABE00193484B4A
:1018B000D0259846474B2D069A4604239B463C3339
:1018C000994633004646984609E06B680423AB61AD
:1018D000002800D085E0013E002E00D1D4E05B4618
:1018E0006B6153461868002876D14A466C686B686D
:1018F0002406E40FE400E4B21A4202D004231C439D
:10190000E4B26B689B06E0D46B68DB06DED404238C
:10191000AB61002868D1002CDDD15246106804224A
:10192000D026904693463C3200279146079B3606C8
:1019300002935B467361002803D006F00DFF534607
:1019400018684A46756873682D06ED0FED00EDB214
:101950001A4202D004231D43EDB273689B0601D5E1
:1019600002231D437368DB0601D501231D435B463B
:10197000B361002849D14346736100204A46746828
:1019800073682406E40FE400E4B21A4202D0042390
:101990001C43E4B273689B0601D502231C437368A1
:1019A000DB0601D501231C434346B361002839D12E
:1019B000069B2D012543DD55019A0137BBB29342A9
:1019C0003ED243467361BCE7A0E1001054E2001030
:1019D000A0860100A00F002006F0BEFE5346186846
:1019E00083E706F0B9FE76E706F0B6FE93E7029BC2
:1019F000012B00D84FE6FF21254811401A000AF0BC
:101A00003FF848E680239B0050E706F0A5FE5346CA
:101A10001868434673610028AFD006F09DFE534618
:101A20001868ABE706F098FE53462D011868069B30
:101A30002C43DC55019A0137BBB29A4200D978E7B2
:101A4000D024029B1825042704269846240605E086
:101A5000A761013D002D10D053461868666100282B
:101A6000F6D006F079FE53461868A7610028F0D03A
:101A7000013D06F071FE002DEED1434613E619003C
:101A8000044809F0FDFF06E6464604E67D6180E471
:101A9000F0E10010CCE10010F0B54546DE465746B7
:101AA0004E46E0B58BB09B4614AB1D7815AB00924B
:101AB0001A780307E020C005920603401343EA06A4
:101AC00013435A46D205D20D1343DC4A4902114052
:101AD00080220B4312061A430023D94F01935B4621
:101AE00090460424B9460493059503270023D02586
:101AF0004E46B94607932D064146352007AAFEF704
:101B0000A7FD00286DD101235B429C46E1444B4672
:101B1000002B00D1EDE16C613068002800D000E2BC
:101B20000423AB616B61D0231B069C61D0231B0691
:101B30005C61D0231B069C61D0231B065C61D02313
:101B40001B069C61D0231B065C61D0231B069C6195
:101B5000D0231B065C61D0231B069C61D0231B068F
:101B60005C61D0231B069C61D0231B065C61D023E3
:101B70001B069C61D0231B065C61D0231B069C6165
:101B8000D0231B065C61D0231B069C61D0231B065F
:101B90005C61D0231B069C61D0231B065C61D023B3
:101BA0001B069C61D0231B065C61D0231B069C6135
:101BB000D0231B065C61D0231B069C61D0231B062F
:101BC0005C61D0231B069C61D0231B065C61D02383
:101BD0001B06414635209C6107AAFEF739FD002807
:101BE00091D0079AC02311001B021940B1460390FF
:101BF00002911A4200D082E1049B059D9B46002D74
:101C000000D12BE35B029BB29B4608AA92461100CF
:101C10000022002B00D12EE3009801278046984433
:101C2000884BC44699460191111D0500804600234A
:101C300008002E785C0031000141A4B2DB0B394072
:101C40008B4201D04B465C40164163009BB2E40BD3
:101C50003E40B44201D049464B400135AC45E8D145
:101C6000019901320B808B1C40460193042ADBD181
:101C7000D0241020802320214022042724066062E3
:101C8000616262626362A061A161A261A3616C4B47
:101C9000676118689946002800D0F8E2A761002023
:101CA000002398465B46002B47D0D024012704260A
:101CB00045462406009B5B5D1A09174200D1EBE004
:101CC000102262615A09174200D1EBE020226261C2
:101CD0009A09174200D1EBE04022DB09626100D192
:101CE000EBE0802363616661002800D0EBE0A66131
:101CF000009B00205A5D0F23134010221F4200D189
:101D0000F5E062615A08174200D19DE0202262612D
:101D10009A08174200D19DE04022DB08626100D1A1
:101D20009DE0802363616661002800D09DE0A6618C
:101D30000135ABB200209B45BCD85346DB88D0258B
:101D4000984653469F885B880F24009353461B8810
:101D500001269B4604239A462D063B00234152460A
:101D600033405B421340424622413240D20013438B
:101D7000009A22413240520013435A4622411642F1
:101D80001DD001221343DBB20F326A615A0816429A
:101D90001AD020226A619A0816421AD04022DB0823
:101DA0006A611AD080236B6104236B6100281AD109
:101DB0005346AB61013C00D2BFE10020CDE71022C9
:101DC000AA615A081642E4D12022AA619A08164252
:101DD000E4D14022DB08AA61E4D18023AB61042373
:101DE0006B610028E4D006F0B7FC4B4618685346F8
:101DF000AB610028DED006F0AFFC4B461868013C12
:101E0000ABD210236B6110336B6120336B614033B5
:101E10006B6153466B61002800D19AE106F09CFC8F
:101E20004B4618685346AB61002800D195E106F097
:101E300093FC4B461B6802938FE1C04600FEFF03F4
:101E4000A00F0020211000002022A2619A08174252
:101E500000D061E74022DB08A26100D061E7802367
:101E6000A3616661002800D161E706F075FC4B466E
:101E70001868A661002800D15AE706F06DFC4B46B1
:101E800001351868ABB29B4500D856E7009B5B5DF7
:101E90001A09174200D013E71022A2615A0917420B
:101EA00000D013E72022A2619A09174200D013E75D
:101EB0004022DB09A26100D013E78023A3616661A1
:101EC000002800D113E706F047FC4B461868A661CE
:101ED000002800D10CE706F03FFC4B461868009B39
:101EE0005A5D0F23134010221F4200D009E7A26160
:101EF00008E703223521D448B14609F0C1FD019B12
:101F0000022B00D0F6E00321D04809F0B9FD0023F0
:101F1000039303980BB0F0BCBB46B246A946A0465B
:101F2000F0BD06F019FC04233068AB61002800D135
:101F30004FE206F011FC042330686B61002800D1E9
:101F4000F1E506F009FC04233068AB61002800D1FC
:101F5000ECE506F001FC042330686B61002800D139
:101F6000E7E506F0F9FB04233068AB61002800D1F7
:101F7000E2E506F0F1FB042330686B61002800D134
:101F8000DDE506F0E9FB04233068AB61002800D1F1
:101F9000D8E5D02706F0E0FB30683F067C610028DA
:101FA00000D1D2E506F0D8FB3068BC61002800D132
:101FB000CEE506F0D1FB30687C61002800D1CAE58F
:101FC00006F0CAFB3068BC61002800D1C6E506F007
:101FD000C3FB30687C61002800D1C2E506F0BCFB81
:101FE0003068BC61002800D1BEE506F0B5FB306862
:101FF0007C61002800D1BAE506F0AEFB3068BC6118
:10200000002800D1B6E506F0A7FB30687C61002807
:1020100000D1B2E506F0A0FB3068BC61002800D119
:10202000AEE5D02706F098FB30683F067C610028BB
:1020300000D1A8E506F090FB3068BC61002800D113
:10204000A4E506F089FB30687C61002800D1A0E59A
:1020500006F082FB3068BC61002800D19CE506F0E8
:102060007BFB30687C61002800D198E506F074FBAA
:102070003068BC61002800D194E506F06DFB306843
:102080007C61002800D190E506F066FB3068BC61F9
:10209000002800D18CE506F05FFB30687C610028E9
:1020A00000D188E506F058FB3068BC61002800D1FB
:1020B00084E5D02706F050FB30683F067C6100289D
:1020C00000D17EE506F048FB3068BC61002800D1F5
:1020D0007AE506F041FB30687C61002800D176E5A6
:1020E00006F03AFB3068BC61002800D104E506F038
:1020F00033FB01E50133190055480193D02609F05F
:10210000BFFC042320259B469A46524F360605E025
:102110005B46B361013D002D00D1E6E45346736197
:1021200038680028F4D006F017FB5B463868B361C6
:102130000028EFD006F010FBECE7D02310221B069E
:102140005A6110325A6120325A6140325A617C3AE7
:102150005A61D02304221B069A61D02510232D0634
:10216000AB621033AB622033AB62403304270426EA
:10217000394C0298AB6213E006F0EEFA4B46186851
:102180006B68AF61DB0600D58EE0002800D11AE154
:1021900006F0E2FA4B46013C1868002C00D10FE132
:1021A0006E610028E8D1D023102004211B0604E032
:1021B000013C9961002C05D059615A681042F7D052
:1021C00004229A61D02304221B065A61D0230422E0
:1021D0001B069A61D02304221B065A61D0230422D5
:1021E0001B069A61D02304221B065A61D0230422C5
:1021F0001B069A61D02304221B065A61D0230422B5
:102200001B069A61D02304221B065A61D0230422A4
:102210001B069A61D02304221B065A61D023042294
:102220001B069A61D02304221B065A61D023042284
:102230001B069A61D02304221B065A61D023042274
:102240001B069A6165E6C046A0E100109CE2001002
:1022500080E20010A00F002040420F00002B00D0B1
:10226000D3E4802308AA9B00924611009B460022DB
:10227000002B00D0D0E401320B800231042A00D1BF
:10228000F6E401320B800231042AF4D1F0E406F0C6
:1022900063FA4B461868A761002800D1FFE406F0F6
:1022A0005BFA4B461868FBE400288BD006F054FA22
:1022B0004B461B680293D024042524066561002B3D
:1022C00084D0180006F048FA4B461868A56100282B
:1022D00000D17FE706F040FA4B4618686561002898
:1022E00000D17BE706F038FA4B461868A561002854
:1022F00000D177E706F030FA4B4618686561002890
:1023000000D173E706F028FA4B461868A56100284B
:1023100000D16FE706F020FA4B4618686561002887
:1023200000D16BE706F018FA4B461868A561002843
:1023300000D167E706F010FA4B461868656100287F
:1023400000D163E706F008FA4B461868A56100283B
:1023500000D15FE706F000FA4B46D0240425186848
:1023600024066561002800D158E706F0F5F94B46D0
:102370001868A561002800D154E706F0EDF94B4636
:1023800018686561002800D150E706F0E5F94B4672
:102390001868A561002800D14CE706F0DDF94B462E
:1023A00018686561002800D148E706F0D5F94B466A
:1023B0001868A561002800D1ABE506F0CDF9A8E5C5
:1023C0000300029077E7013C002C00D1FAE66F6130
:1023D000E9E66B61FFF7A7FBF0B54546DE465746D9
:1023E0004E460023E0B5AE4887B0009309F0C4FA2A
:1023F0000223AC4CD02523600233032798462D06D8
:102400003420A94904AAFEF723F9002800D088E067
:10241000013F002F00D191E243466B612068002804
:1024200001D001F06DFCAB616B61D02304221B066F
:102430009A61D02304221B065A61D02304221B0672
:102440009A61D02304221B065A61D02304221B0662
:102450009A61D02304221B065A61D02304221B0652
:102460009A61D02304221B065A61D02304221B0642
:102470009A61D02304221B065A61D02304221B0632
:102480009A61D02304221B065A61D02304221B0622
:102490009A61D02304221B065A61D02304221B0612
:1024A0009A61D02304221B065A61D02304221B0602
:1024B0009A61D02304221B065A61D02304221B06F2
:1024C0009A61D02304221B065A61D02304221B06E2
:1024D0009A61D02304221B065A61D02304221B06D2
:1024E0009A61D02304221B065A61D02304221B06C2
:1024F0009A61D02304221B065A61D02304221B06B2
:102500009A61D02304221B065A61D02304221B06A1
:102510009A613420644904AAFEF79AF8002800D191
:1025200076E70423D025032798462D0600210720AF
:1025300004AAFEF78DF8002800D08BE0013F002FA1
:1025400000D101E243466B612068002801D001F010
:10255000AAFAAB61D02304221B065A61D0230422BD
:102560001B069A61D02304221B065A61D023042241
:102570001B069A61D02304221B065A61D023042231
:102580001B069A61D02304221B065A61D023042221
:102590001B069A61D02304221B065A61D023042211
:1025A0001B069A61D02304221B065A61D023042201
:1025B0001B069A61D02304221B065A61D0230422F1
:1025C0001B069A61D02304221B065A61D0230422E1
:1025D0001B069A61D02304221B065A61D0230422D1
:1025E0001B069A61D02304221B065A61D0230422C1
:1025F0001B069A61D02304221B065A61D0230422B1
:102600001B069A61D02304221B065A61D0230422A0
:102610001B069A61D02304221B065A61D023042290
:102620001B069A61D02304221B065A61D023042280
:102630001B069A61D02304221B065A61D023042270
:102640001B069A610021072004AAFEF701F8002862
:1026500000D173E7D0260423642598460427360664
:1026600004E04346B361013D002D0FD0776120683F
:102670000028F6D006F070F843462068B3610028C1
:10268000F1D0013D06F068F8002DEFD1D0260823E7
:10269000360673627361043B9846042750350AE09E
:1026A000C8E20010A00F0020010C00804346B36177
:1026B000013D002D0FD0776120680028F6D006F08C
:1026C0004BF843462068B3610028F1D0013D06F085
:1026D00043F8002DEFD1AF4809F04EF90423D0257F
:1026E000032798462D060021052003AAFDF7B0FF19
:1026F000002800D08BE0013F002F00D12AE14346A3
:102700006B612068002801D001F03AFCAB61D02356
:1027100004221B065A61D02304221B069A61D0238F
:1027200004221B065A61D02304221B069A61D0237F
:1027300004221B065A61D02304221B069A61D0236F
:1027400004221B065A61D02304221B069A61D0235F
:1027500004221B065A61D02304221B069A61D0234F
:1027600004221B065A61D02304221B069A61D0233F
:1027700004221B065A61D02304221B069A61D0232F
:1027800004221B065A61D02304221B069A61D0231F
:1027900004221B065A61D02304221B069A61D0230F
:1027A00004221B065A61D02304221B069A61D023FF
:1027B00004221B065A61D02304221B069A61D023EF
:1027C00004221B065A61D02304221B069A61D023DF
:1027D00004221B065A61D02304221B069A61D023CF
:1027E00004221B065A61D02304221B069A61D023BF
:1027F00004221B065A61D02304221B069A61002181
:10280000052003AAFDF724FF002800D173E7039BEE
:102810001A0200D0B0E0E0235B039B4600239A46F7
:102820000433042599460323D02698463606594694
:10283000052003AAFDF70CFF00286FD101235B429E
:102840009C46E0444346002B00D199E07561206826
:10285000002800D0A6E04B46B361D0231B065D6183
:10286000D0231B069D61D0231B065D61D0231B0670
:102870009D61D0231B065D61D0231B069D61D02383
:102880001B065D61D0231B069D61D0231B065D6185
:10289000D0231B069D61D0231B065D61D0231B0640
:1028A0009D61D0231B065D61D0231B069D61D02353
:1028B0001B065D61D0231B069D61D0231B065D6155
:1028C000D0231B069D61D0231B065D61D0231B0610
:1028D0009D61D0231B065D61D0231B069D61D02323
:1028E0001B065D61D0231B069D61D0231B065D6125
:1028F000D0231B069D61D0231B065D61D0231B06E0
:102900009D61D0231B065D61D0231B06594605201F
:102910009D6103AAFDF79CFE00288FD0039B002B2E
:1029200000DA28E1FA20400005F0F6FD01239C467C
:10293000E2445346642B00D075E713E003223421B0
:10294000154809F09DF8ECE503220721124809F02B
:1029500097F87FE6032205210F4809F091F80F4808
:1029600009F00AF800231800019307B0F0BCBB4639
:10297000B246A946A046F0BD094A13409B464DE722
:1029800003220521044809F07BF8642005F0C4FD0A
:10299000CCE7C046E8E20010A0E1001000E3001020
:1029A0000080FF0005F0D8FE4B462068B361002888
:1029B00000D152E705F0D0FE4B4620687361002835
:1029C00000D14DE705F0C8FE4B462068B3610028F2
:1029D00000D148E705F0C0FE4B462068736100282F
:1029E00000D143E705F0B8FE4B462068B3610028EC
:1029F00000D13EE705F0B0FE4B4620687361002829
:102A000000D139E705F0A8FE4B462068B3610028E5
:102A100000D134E7D02705F09FFE20683F067D6196
:102A2000002800D12EE705F097FE2068BD61002840
:102A300000D12AE705F090FE20687D61002800D1D2
:102A400026E705F089FE2068BD61002800D122E755
:102A500005F082FE20687D61002800D11EE705F0A8
:102A60007BFE2068BD61002800D11AE705F074FEE6
:102A700020687D61002800D116E705F06DFE206812
:102A8000BD61002800D112E705F066FE20687D6177
:102A9000002800D10EE705F05FFE2068BD61002828
:102AA00000D10AE7D02705F057FE20683F067D6178
:102AB000002800D104E705F04FFE2068BD61002822
:102AC00000D100E705F048FE20687D61002800D1B4
:102AD000FCE605F041FE2068BD61002800D1F8E663
:102AE00005F03AFE20687D61002800D1F4E605F08B
:102AF00033FE2068BD61002800D1F0E605F02CFE11
:102B000020687D61002800D1ECE605F025FE2068F4
:102B1000BD61002800D1E8E605F01EFE20687D6159
:102B2000002800D1E4E605F017FE2068BD6100280A
:102B300000D1E0E6D02705F00FFE20683F067D615A
:102B4000002800D1DAE605F007FE2068BD61002804
:102B500000D1D6E605F000FE20687D61002800D196
:102B6000D2E605F0F9FD2068BD61002800D15EE6DF
:102B700005F0F2FD5BE65146FA4808F081FFFA489D
:102B800008F0FAFE0423D025032798462D060021DD
:102B9000032003AAFDF75CFD002800D08CE0013F74
:102BA000002F01D100F0F4FD43466B61206800283E
:102BB00001D001F013FBAB61D02304221B065A6144
:102BC000D02304221B069A61D02304221B065A61DB
:102BD000D02304221B069A61D02304221B065A61CB
:102BE000D02304221B069A61D02304221B065A61BB
:102BF000D02304221B069A61D02304221B065A61AB
:102C0000D02304221B069A61D02304221B065A619A
:102C1000D02304221B069A61D02304221B065A618A
:102C2000D02304221B069A61D02304221B065A617A
:102C3000D02304221B069A61D02304221B065A616A
:102C4000D02304221B069A61D02304221B065A615A
:102C5000D02304221B069A61D02304221B065A614A
:102C6000D02304221B069A61D02304221B065A613A
:102C7000D02304221B069A61D02304221B065A612A
:102C8000D02304221B069A61D02304221B065A611A
:102C9000D02304221B069A61D02304221B065A610A
:102CA000D02304221B069A610021032003AAFDF70A
:102CB000CFFC002800D172E70399AC4D090CAC4859
:102CC000298008F0DDFE2B881B0499460423D025BB
:102CD000032798462D064946072003AAFDF7B8FCAE
:102CE0000190002800D08DE0013F002F01D100F0BD
:102CF000D0FE43466B612068002801D001F092FBB2
:102D0000AB61D02304221B065A61D02304221B0688
:102D10009A61D02304221B065A61D02304221B0689
:102D20009A61D02304221B065A61D02304221B0679
:102D30009A61D02304221B065A61D02304221B0669
:102D40009A61D02304221B065A61D02304221B0659
:102D50009A61D02304221B065A61D02304221B0649
:102D60009A61D02304221B065A61D02304221B0639
:102D70009A61D02304221B065A61D02304221B0629
:102D80009A61D02304221B065A61D02304221B0619
:102D90009A61D02304221B065A61D02304221B0609
:102DA0009A61D02304221B065A61D02304221B06F9
:102DB0009A61D02304221B065A61D02304221B06E9
:102DC0009A61D02304221B065A61D02304221B06D9
:102DD0009A61D02304221B065A61D02304221B06C9
:102DE0009A61D02304221B065A61D02304221B06B9
:102DF0009A614946072003AAFDF72AFC01900028A2
:102E000000D171E70023D0260593043303279846A9
:102E100036063420574905AAFDF71AFC002800D0D1
:102E20008CE0013F002F01D101F0CEF943467361E0
:102E30002068002801D001F019FCB361D0230422DE
:102E40001B065A61D02304221B069A61D023042258
:102E50001B065A61D02304221B069A61D023042248
:102E60001B065A61D02304221B069A61D023042238
:102E70001B065A61D02304221B069A61D023042228
:102E80001B065A61D02304221B069A61D023042218
:102E90001B065A61D02304221B069A61D023042208
:102EA0001B065A61D02304221B069A61D0230422F8
:102EB0001B065A61D02304221B069A61D0230422E8
:102EC0001B065A61D02304221B069A61D0230422D8
:102ED0001B065A61D02304221B069A61D0230422C8
:102EE0001B065A61D02304221B069A61D0230422B8
:102EF0001B065A61D02304221B069A61D0230422A8
:102F00001B065A61D02304221B069A61D023042297
:102F10001B065A61D02304221B069A61D023042287
:102F20001B065A61D02304221B069A6134201149E2
:102F300005AAFDF78DFB002800D172E7059BDBB2E7
:102F400000930023D02605930433032798463606C2
:102F50003420094905AAFDF77BFB002800D09AE040
:102F60000CE0C0461CE300103CE3001032A100203E
:102F700074E30010020E008000200280013F002F49
:102F800001D100F0E1FF434673612068002801D0C1
:102F900001F0FCFFB361D02304221B065A61D02349
:102FA00004221B069A61D02304221B065A61D023F7
:102FB00004221B069A61D02304221B065A61D023E7
:102FC00004221B069A61D02304221B065A61D023D7
:102FD00004221B069A61D02304221B065A61D023C7
:102FE00004221B069A61D02304221B065A61D023B7
:102FF00004221B069A61D02304221B065A61D023A7
:1030000004221B069A61D02304221B065A61D02396
:1030100004221B069A61D02304221B065A61D02386
:1030200004221B069A61D02304221B065A61D02376
:1030300004221B069A61D02304221B065A61D02366
:1030400004221B069A61D02304221B065A61D02356
:1030500004221B069A61D02304221B065A61D02346
:1030600004221B069A61D02304221B065A61D02336
:1030700004221B069A61D02304221B065A61D02326
:1030800004221B069A613420FA4905AAFDF7E0FAEA
:10309000002800D172E7059BDBB200930023D02605
:1030A000059304330327984636063420F24905AACF
:1030B000FDF7CEFA002800D08CE0013F002F01D1AF
:1030C00000F049FF434673612068002801D001F0F9
:1030D00039FEB361D02304221B065A61D023042297
:1030E0001B069A61D02304221B065A61D0230422B6
:1030F0001B069A61D02304221B065A61D0230422A6
:103100001B069A61D02304221B065A61D023042295
:103110001B069A61D02304221B065A61D023042285
:103120001B069A61D02304221B065A61D023042275
:103130001B069A61D02304221B065A61D023042265
:103140001B069A61D02304221B065A61D023042255
:103150001B069A61D02304221B065A61D023042245
:103160001B069A61D02304221B065A61D023042235
:103170001B069A61D02304221B065A61D023042225
:103180001B069A61D02304221B065A61D023042215
:103190001B069A61D02304221B065A61D023042205
:1031A0001B069A61D02304221B065A61D0230422F5
:1031B0001B069A61D02304221B065A61D0230422E5
:1031C0001B069A613420AC4905AAFDF741FA002894
:1031D00000D172E7059BDBB200930023D026059354
:1031E00004330327984636063420A44905AAFDF780
:1031F0002FFA002800D08CE0013F002F01D100F011
:10320000B1FE434673612068002801D001F076FCCE
:10321000B361D02304221B065A61D02304221B066B
:103220009A61D02304221B065A61D02304221B0674
:103230009A61D02304221B065A61D02304221B0664
:103240009A61D02304221B065A61D02304221B0654
:103250009A61D02304221B065A61D02304221B0644
:103260009A61D02304221B065A61D02304221B0634
:103270009A61D02304221B065A61D02304221B0624
:103280009A61D02304221B065A61D02304221B0614
:103290009A61D02304221B065A61D02304221B0604
:1032A0009A61D02304221B065A61D02304221B06F4
:1032B0009A61D02304221B065A61D02304221B06E4
:1032C0009A61D02304221B065A61D02304221B06D4
:1032D0009A61D02304221B065A61D02304221B06C4
:1032E0009A61D02304221B065A61D02304221B06B4
:1032F0009A61D02304221B065A61D02304221B06A4
:103300009A6134205D4905AAFDF7A2F9002800D191
:1033100072E7059BDBB200930023D02605930433AC
:103320000327984636063420554905AAFDF790F93B
:10333000002800D08CE0013F002F01D100F019FEE1
:10334000434673612068002801D001F0B3FAB361ED
:10335000D02304221B065A61D02304221B069A6143
:10336000D02304221B065A61D02304221B069A6133
:10337000D02304221B065A61D02304221B069A6123
:10338000D02304221B065A61D02304221B069A6113
:10339000D02304221B065A61D02304221B069A6103
:1033A000D02304221B065A61D02304221B069A61F3
:1033B000D02304221B065A61D02304221B069A61E3
:1033C000D02304221B065A61D02304221B069A61D3
:1033D000D02304221B065A61D02304221B069A61C3
:1033E000D02304221B065A61D02304221B069A61B3
:1033F000D02304221B065A61D02304221B069A61A3
:10340000D02304221B065A61D02304221B069A6192
:10341000D02304221B065A61D02304221B069A6182
:10342000D02304221B065A61D02304221B069A6172
:10343000D02304221B065A61D02304221B069A6162
:1034400034200F4905AAFDF703F9002800D172E7DF
:10345000059BDBB2009332239A462E3B9946094BDB
:1034600004259B460023D026059303339846360651
:103470000AE0C04600200280022202800308008089
:1034800002040080A0E10010C021342005AAC90078
:10349000FDF7DEF8002870D101235B429C46E04432
:1034A0004346002B00D184E075612068002800D0DD
:1034B00085E04B46B361D0231B065D61D0231B061C
:1034C0009D61D0231B065D61D0231B069D61D02327
:1034D0001B065D61D0231B069D61D0231B065D6129
:1034E000D0231B069D61D0231B065D61D0231B06E4
:1034F0009D61D0231B065D61D0231B069D61D023F7
:103500001B065D61D0231B069D61D0231B065D61F8
:10351000D0231B069D61D0231B065D61D0231B06B3
:103520009D61D0231B065D61D0231B069D61D023C6
:103530001B065D61D0231B069D61D0231B065D61C8
:10354000D0231B069D61D0231B065D61D0231B0683
:103550009D61D0231B065D61D0231B069D61D02396
:103560001B065D61D023C0211B0634209D6105AA86
:10357000C900FDF76DF800288ED0059BDBB20093E3
:10358000009B9B070AD4642004F0C6FF01235B4222
:103590009C46E2445346002B00D063E7D44808F031
:1035A000EBF90123D348236008F0E6F90198FFF70F
:1035B000DCF903223421584608F062FAE0E705F00E
:1035C000CBF84B462068B361002800D173E705F0C3
:1035D000C3F84B4620687361002800D16EE705F000
:1035E000BBF84B462068B361002800D169E705F0BD
:1035F000B3F84B4620687361002800D164E705F0FA
:10360000ABF84B462068B361002800D15FE705F0B6
:10361000A3F84B4620687361002800D15AE705F0F3
:103620009BF84B462068B361002800D155E7D027AE
:1036300005F092F820683F067D61002800D14FE731
:1036400005F08AF82068BD61002800D14BE705F03D
:1036500083F820687D61002800D147E705F07CF8F9
:103660002068BD61002800D143E705F075F82068A7
:103670007D61002800D13FE705F06EF82068BD614C
:10368000002800D13BE705F067F820687D6100283D
:1036900000D137E705F060F82068BD61002800D14F
:1036A00033E705F059F820687D61002800D12FE745
:1036B00005F052F82068BD61002800D12BE7D02723
:1036C00005F04AF820683F067D61002800D125E713
:1036D00005F042F82068BD61002800D121E705F01F
:1036E0003BF820687D61002800D11DE705F034F823
:1036F0002068BD61002800D119E705F02DF8206889
:103700007D61002800D115E705F026F82068BD612D
:10371000002800D111E705F01FF820687D6100281E
:1037200000D10DE705F018F82068BD61002800D130
:1037300009E705F011F820687D61002800D105E750
:1037400005F00AF82068BD61002800D101E7D02704
:1037500005F002F820683F067D61002800D1FBE6F5
:1037600004F0FAFF2068BD61002800D1F7E604F0FC
:10377000F3FF20687D61002800D1F3E604F0ECFF40
:103780002068BD61002800D17EE604F0E5FF7BE6FD
:10379000594B0322032118009846032608F070F9BC
:1037A0000021072004AAFCF753FF002800D095E071
:1037B000013E002E00D18CE0D02504272D066F613C
:1037C0002068002801D001F025FEAF61D02304223B
:1037D0001B065A61D02304221B069A61D0230422BF
:1037E0001B065A61D02304221B069A61D0230422AF
:1037F0001B065A61D02304221B069A61D02304229F
:103800001B065A61D02304221B069A61D02304228E
:103810001B065A61D02304221B069A61D02304227E
:103820001B065A61D02304221B069A61D02304226E
:103830001B065A61D02304221B069A61D02304225E
:103840001B065A61D02304221B069A61D02304224E
:103850001B065A61D02304221B069A61D02304223E
:103860001B065A61D02304221B069A61D02304222E
:103870001B065A61D02304221B069A61D02304221E
:103880001B065A61D02304221B069A61D02304220E
:103890001B065A61D02304221B069A61D0230422FE
:1038A0001B065A61D02304221B069A61D0230422EE
:1038B0001B065A61D02304221B069A6100210720AF
:1038C00004AAFCF7C5FE002808D1013E002E00D056
:1038D00072E703220721404608F0D2F80A2004F0DC
:1038E0001BFED02504235026994604272D060AE006
:1038F0009CE30010BCE30010A0E100104B46AB615C
:10390000013E002E0FD06F6120680028F6D004F031
:1039100023FF4B462068AB610028F1D0013E04F044
:103920001BFF002EEFD10323D0269946042736062D
:103930000021032003AAFCF78BFE002801D0FFF72B
:10394000BBF901235B429C46E1444B46002B00D16E
:103950008FE077612068002801D001F03BFCB7615F
:10396000D02304221B065A61D02304221B069A612D
:10397000D02304221B065A61D02304221B069A611D
:10398000D02304221B065A61D02304221B069A610D
:10399000D02304221B065A61D02304221B069A61FD
:1039A000D02304221B065A61D02304221B069A61ED
:1039B000D02304221B065A61D02304221B069A61DD
:1039C000D02304221B065A61D02304221B069A61CD
:1039D000D02304221B065A61D02304221B069A61BD
:1039E000D02304221B065A61D02304221B069A61AD
:1039F000D02304221B065A61D02304221B069A619D
:103A0000D02304221B065A61D02304221B069A618C
:103A1000D02304221B065A61D02304221B069A617C
:103A2000D02304221B065A61D02304221B069A616C
:103A3000D02304221B065A61D02304221B069A615C
:103A4000D02304221B065A61D02304221B069A614C
:103A50000021032003AAFCF7FBFD002801D0FFF79B
:103A60002BF901235B429C46E1444B46002B00D0DE
:103A70006FE703220321404608F002F89C4807F054
:103A80007BFF01229B4B1A8080235B029946FFF744
:103A90001DF903220721984807F0F2FF974807F025
:103AA0006BFFFEF75FFF04F057FE43462068AB61F3
:103AB000002801D1FEF74EFD04F04EFE434620687B
:103AC0006B61002801D1FEF749FD04F045FE434635
:103AD0002068AB61002801D1FEF744FD04F03CFEF4
:103AE000434620686B61002801D1FEF73FFD04F0DA
:103AF00033FE43462068AB61002801D1FEF73AFD52
:103B000004F02AFE434620686B61002801D1FEF7CD
:103B100035FD04F021FE43462068AB61002801D149
:103B2000FEF730FDD02604F017FE04232068360689
:103B300099467361002801D1FEF728FD04F00CFEC0
:103B40004B462068B361002801D1FEF723FD04F045
:103B500003FE4B4620687361002801D1FEF71EFD6D
:103B600004F0FAFD4B462068B361002801D1FEF74E
:103B700019FD04F0F1FD4B4620687361002801D166
:103B8000FEF714FD04F0E8FD4B462068B361002801
:103B900001D1FEF70FFD04F0DFFD4B462068736195
:103BA000002801D1FEF70AFD04F0D6FD4B4620683F
:103BB000B361002801D1FEF705FD04F0CDFD4B46B1
:103BC00020687361002801D1FEF700FD04F0C4FDF8
:103BD0004B462068B361002801D1FEF7FBFCD026DC
:103BE00004F0BAFD04232068360699467361002864
:103BF00001D1FEF7F3FC04F0AFFD4B462068B36142
:103C0000002801D1FEF7EEFC04F0A6FD4B4620682B
:103C10007361002801D1FEF7E9FC04F09DFD4B46DD
:103C20002068B361002801D1FEF7E4FC04F094FDA4
:103C30004B4620687361002801D1FEF7DFFC04F0D9
:103C40008BFD4B462068B361002801D1FEF7DAFCFA
:103C500004F082FD4B4620687361002801D1FEF715
:103C6000D5FC04F079FD4B462068B361002801D1F2
:103C7000FEF7D0FC04F070FD4B462068736100280D
:103C800001D1FEF7CBFC04F067FD4B462068B36121
:103C9000002801D1FEF7C6FCD02604F05DFD042308
:103CA0002068360699467361002801D1FEF7BEFCF4
:103CB00004F052FD4B462068B361002801D1FEF7A5
:103CC000B9FC04F049FD4B4620687361002801D11E
:103CD000FEF7B4FC04F040FD4B462068B3610028B9
:103CE00001D1FEF723FC04F037FDFEF71FFCC046B0
:103CF0004CE3001032A10020A0E1001088E3001086
:103D000004F02AFD43462068AB61002801D101F090
:103D10007EFB04F021FD434620686B61002801D141
:103D2000FEF783FB04F018FD43462068AB610028D2
:103D300001D1FEF77EFB04F00FFD434620686B6166
:103D4000002801D1FEF779FB04F006FD4346206808
:103D5000AB61002801D1FEF774FB04F0FDFC434683
:103D600020686B61002801D1FEF76FFB04F0F4FCC2
:103D700043462068AB61002801D1FEF76AFBD026DC
:103D800004F0EAFC04232068360699467361002893
:103D900001D1FEF762FB04F0DFFC4B462068B36103
:103DA000002801D1FEF75DFB04F0D6FC4B462068ED
:103DB0007361002801D1FEF758FB04F0CDFC4B469F
:103DC0002068B361002801D1FEF753FB04F0C4FC66
:103DD0004B4620687361002801D1FEF74EFB04F0CA
:103DE000BBFC4B462068B361002801D1FEF749FBBC
:103DF00004F0B2FC4B4620687361002801D1FEF745
:103E000044FB04F0A9FC4B462068B361002801D1B3
:103E1000FEF73FFB04F0A0FC4B46206873610028CE
:103E200001D1FEF73AFB04F097FC4B462068B361E2
:103E3000002801D1FEF735FBD02604F08DFC0423C9
:103E40002068360699467361002801D1FEF72DFBE4
:103E500004F082FC4B462068B361002801D1FEF7D4
:103E600028FB04F079FC4B4620687361002801D1DF
:103E7000FEF723FB04F070FC4B462068B36100287A
:103E800001D1FEF71EFB04F067FC4B46206873610E
:103E9000002801D1FEF719FB04F05EFC4B462068B8
:103EA000B361002801D1FEF714FB04F055FC4B462A
:103EB00020687361002801D1FEF70FFB04F04CFC71
:103EC0004B462068B361002801D1FEF70AFB04F0DD
:103ED00043FC4B4620687361002801D1FEF705FBC7
:103EE00004F03AFC4B462068B361002801D1FEF78C
:103EF00000FBD02604F030FC0423206836069946E7
:103F00007361002801D1FEF7F8FA04F025FC4B4656
:103F10002068B361002801D1FEF7F3FA04F01CFC1D
:103F20004B4620687361002801D1FEF7EEFA04F0D9
:103F300013FC4B462068B361002801D1FEF760FAFC
:103F400004F00AFCFEF75CFA03223421A24807F0D1
:103F500097FDFFF7A3F8032234219F4807F090FD57
:103F6000FFF73BF9032234219B4807F089FDFFF757
:103F7000D3F903223421984807F082FDFFF76BFA4A
:103F800004F0EAFB43462068AB61002801D1FEF74C
:103F9000BEFB04F0E1FB434620686B61002801D1C1
:103FA000FEF7B9FB04F0D8FB43462068AB6100285C
:103FB00001D1FEF7B4FB04F0CFFB434620686B61F0
:103FC000002801D1FEF7AFFB04F0C6FB4346206892
:103FD000AB61002801D1FEF7AAFB04F0BDFB43460C
:103FE00020686B61002801D1FEF7A5FB04F0B4FB4B
:103FF00043462068AB61002801D1FEF7A0FBD02624
:1040000004F0AAFB04232068360699467361002851
:1040100001D1FEF798FB04F09FFB4B462068B3618B
:10402000002801D1FEF793FB04F096FB4B46206875
:104030007361002801D1FEF78EFB04F08DFB4B4627
:104040002068B361002801D1FEF789FB04F084FBEE
:104050004B4620687361002801D1FEF784FB04F011
:104060007BFB4B462068B361002801D1FEF77FFB44
:1040700004F072FB4B4620687361002801D1FEF703
:104080007AFB04F069FB4B462068B361002801D13C
:10409000FEF775FB04F060FB4B4620687361002857
:1040A00001D1FEF770FB04F057FB4B462068B3616B
:1040B000002801D1FEF76BFBD02604F04DFB042352
:1040C0002068360699467361002801D1FEF763FB2C
:1040D00004F042FB4B462068B361002801D1FEF793
:1040E0005EFB04F039FB4B4620687361002801D168
:1040F000FEF759FB04F030FB4B462068B361002803
:1041000001D1FEF754FB04F027FB4B462068736196
:10411000002801D1FEF74FFB04F01EFB4B46206840
:10412000B361002801D1FEF74AFB04F015FB4B46B2
:1041300020687361002801D1FEF745FB04F00CFBF9
:104140004B462068B361002801D1FEF740FB04F024
:1041500003FB4B4620687361002801D1FEF73BFB4F
:1041600004F0FAFA4B462068B361002801D1FEF74B
:1041700036FBD02604F0F0FA042320683606994670
:104180007361002801D1FEF72EFB04F0E5FA4B46DF
:104190002068B361002801D1FEF729FB04F0DCFAA6
:1041A0004B4620687361002801D1FEF724FB04F020
:1041B000D3FA4B462068B361002801D1FEF793FA89
:1041C00004F0CAFAFEF78FFA03223421024807F0FE
:1041D00057FCFEF7B6FEC046A0E1001004F0BCFAA2
:1041E00043462068AB61002801D1FEF7E5FC04F0EE
:1041F000B3FA434620686B61002801D1FEF7E0FC6A
:1042000004F0AAFA43462068AB61002801D1FEF70A
:10421000DBFC04F0A1FA434620686B61002801D161
:10422000FEF7D6FC04F098FA43462068AB610028FC
:1042300001D1FEF7D1FC04F08FFA434620686B6190
:10424000002801D1FEF7CCFC04F086FA4346206832
:10425000AB61002801D1FEF7C7FCD02604F07CFA40
:1042600004232068360699467361002801D1FEF7C1
:10427000BFFC04F071FA4B462068B361002801D1FD
:10428000FEF7BAFC04F068FA4B4620687361002818
:1042900001D1FEF7B5FC04F05FFA4B462068B3612C
:1042A000002801D1FEF7B0FC04F056FA4B46206816
:1042B0007361002801D1FEF7ABFC04F04DFA4B46C8
:1042C0002068B361002801D1FEF7A6FC04F044FA8F
:1042D0004B4620687361002801D1FEF7A1FC04F071
:1042E0003BFA4B462068B361002801D1FEF79CFCE5
:1042F00004F032FA4B4620687361002801D1FEF7C2
:1043000097FC04F029FA4B462068B361002801D1DC
:10431000FEF792FCD02604F01FFA0423206836062C
:1043200099467361002801D1FEF78AFC04F014FA63
:104330004B462068B361002801D1FEF785FC04F0EC
:104340000BFA4B4620687361002801D1FEF780FC10
:1043500004F002FA4B462068B361002801D1FEF751
:104360007BFC04F0F9F94B4620687361002801D109
:10437000FEF776FC04F0F0F94B462068B3610028A4
:1043800001D1FEF771FC04F0E7F94B462068736138
:10439000002801D1FEF76CFC04F0DEF94B462068E2
:1043A000B361002801D1FEF767FC04F0D5F94B4654
:1043B00020687361002801D1FEF762FC04F0CCF99B
:1043C0004B462068B361002801D1FEF75DFCD02682
:1043D00004F0C2F904232068360699467361002868
:1043E00001D1FEF755FC04F0B7F94B462068B361E4
:1043F000002801D1FEF750FC04F0AEF94B462068CE
:104400007361002801D1FEF74BFC04F0A5F94B467F
:104410002068B361002801D1FEF7B9FB04F09CF9D4
:10442000FEF7B5FB04F098F943462068AB6100281D
:1044300001D1FEF766FC04F08FF9434620686B61FA
:10444000002801D1FEF761FC04F086F9434620689C
:10445000AB61002801D1FEF75CFC04F07DF9434616
:1044600020686B61002801D1FEF757FC04F074F955
:1044700043462068AB61002801D1FEF752FC04F0EE
:104480006BF9434620686B61002801D1FEF74DFCB3
:1044900004F062F943462068AB61002801D1FEF7C1
:1044A00048FCD02604F058F90423206836069A46C2
:1044B0007361002801D1FEF740FC04F04DF953462A
:1044C0002068B361002801D1FEF73BFC04F044F9F9
:1044D000534620687361002801D1FEF736FC04F0D2
:1044E0003BF953462068B361002801D1FEF731FC47
:1044F00004F032F9534620687361002801D1FEF7B9
:104500002CFC04F029F953462068B361002801D13E
:10451000FEF727FC04F020F9534620687361002859
:1045200001D1FEF722FC04F017F953462068B3616D
:10453000002801D1FEF71DFC04F00EF95346206857
:104540007361002801D1FEF718FC04F005F9534609
:104550002068B361002801D1FEF713FCD02604F0D7
:10456000FBF80423206836069A467361002801D1BF
:10457000FEF70BFC04F0F0F853462068B361002806
:1045800001D1FEF706FC04F0E7F85346206873619A
:10459000002801D1FEF701FC04F0DEF85346206844
:1045A000B361002801D1FEF7FCFB04F0D5F85346B7
:1045B00020687361002801D1FEF7F7FB04F0CCF806
:1045C00053462068B361002801D1FEF7F2FB04F0E6
:1045D000C3F8534620687361002801D1FEF7EDFB54
:1045E00004F0BAF853462068B361002801D1FEF701
:1045F000E8FB04F0B1F8534620687361002801D14C
:10460000FEF7E3FB04F0A8F853462068B3610028E6
:1046100001D1FEF7DEFBD02604F09EF804232068CB
:1046200036069A467361002801D1FEF7D6FB04F0E6
:1046300093F853462068B361002801D1FEF7D1FBFF
:1046400004F08AF8534620687361002801D1FEF710
:10465000CCFB04F081F853462068B361002801D1F7
:10466000FEF739FB04F078F8FEF735FB04F074F838
:1046700043462068B361002801D1FEF7DFFB04F058
:104680006BF8434620687361002801D1FEF7DAFB1E
:1046900004F062F843462068B361002801D1FEF7B8
:1046A000D5FB04F059F8434620687361002801D116
:1046B000FEF7D0FB04F050F843462068B3610028B1
:1046C00001D1FEF7CBFB04F047F843462068736145
:1046D000002801D1FEF7C6FB04F03EF843462068EF
:1046E000B361002801D1FEF7C1FBD02504F034F8F6
:1046F000042320682D0699466B61002801D1FEF73E
:10470000B9FB04F029F84B462068AB61002801D1C1
:10471000FEF7B4FB04F020F84B4620686B610028DC
:1047200001D1FEF7AFFB04F017F84B462068AB61F0
:10473000002801D1FEF7AAFB04F00EF84B462068D2
:104740006B61002801D1FEF7A5FB04F005F84B468C
:104750002068AB61002801D1FEF7A0FB03F0FCFF4D
:104760004B4620686B61002801D1FEF79BFB03F0EC
:10477000F3FF4B462068AB61002801D1FEF796FBA2
:1047800003F0EAFF4B4620686B61002801D1FEF779
:1047900091FB03F0E1FF4B462068AB61002801D19B
:1047A000FEF78CFBD02503F0D7FF042320682D06ED
:1047B00099466B61002801D1FEF784FB03F0CCFF22
:1047C0004B462068AB61002801D1FEF77FFB03F068
:1047D000C3FF4B4620686B61002801D1FEF77AFBCE
:1047E00003F0BAFF4B462068AB61002801D1FEF709
:1047F00075FB03F0B1FF4B4620686B61002801D1C7
:10480000FEF770FB03F0A8FF4B462068AB61002861
:1048100001D1FEF76BFB03F09FFF4B4620686B61F5
:10482000002801D1FEF766FB03F096FF4B46206897
:10483000AB61002801D1FEF761FB03F08DFF4B4611
:1048400020686B61002801D1FEF75CFB03F084FF58
:104850004B462068AB61002801D1FEF757FBD025FD
:1048600003F07AFF042320682D0699466B61002827
:1048700001D1FEF74FFB03F06FFF4B462068AB61A1
:10488000002801D1FEF74AFB03F066FF4B46206883
:104890006B61002801D1FEF745FB03F05DFF4B463D
:1048A0002068AB61002801D1FEF7B3FA03F054FF92
:1048B000FEF7AFFA03F050FF43462068B3610028CB
:1048C00001D1FEF745FD03F047FF434620687361C1
:1048D000002801D1FEF740FD03F03EFF434620686B
:1048E000B361002801D1FEF73BFD03F035FF4346DD
:1048F00020687361002801D1FEF736FD03F02CFF1C
:1049000043462068B361002801D1FEF731FD03F072
:1049100023FF434620687361002801D1FEF72CFD78
:1049200003F01AFF43462068B361002801D1FEF767
:1049300027FDD02503F010FF042320682D0699469B
:104940006B61002801D1FEF71FFD03F005FF4B4608
:104950002068AB61002801D1FEF71AFD03F0FCFED0
:104960004B4620686B61002801D1FEF715FD03F06E
:10497000F3FE4B462068AB61002801D1FEF710FD25
:1049800003F0EAFE4B4620686B61002801D1FEF778
:104990000BFD03F0E1FE4B462068AB61002801D11E
:1049A000FEF706FD03F0D8FE4B4620686B61002839
:1049B00001D1FEF701FD03F0CFFE4B462068AB614D
:1049C000002801D1FEF7FCFC03F0C6FE4B46206830
:1049D0006B61002801D1FEF7F7FC03F0BDFE4B46EA
:1049E0002068AB61002801D1FEF7F2FCD02503F06E
:1049F000B3FE042320682D0699466B61002801D17F
:104A0000FEF7EAFC03F0A8FE4B462068AB610028E5
:104A100001D1FEF7E5FC03F09FFE4B4620686B6179
:104A2000002801D1FEF7E0FC03F096FE4B4620681B
:104A3000AB61002801D1FEF7DBFC03F08DFE4B4695
:104A400020686B61002801D1FEF7D6FC03F084FEDC
:104A50004B462068AB61002801D1FEF7D1FC03F082
:104A60007BFE4B4620686B61002801D1FEF7CCFC31
:104A700003F072FE4B462068AB61002801D1FEF7BF
:104A8000C7FC03F069FE4B4620686B61002801D12A
:104A9000FEF7C2FC03F060FE4B462068AB610028C5
:104AA00001D1FEF7BDFCD02503F056FE042320689B
:104AB0002D0699466B61002801D1FEF7B5FC03F085
:104AC0004BFE4B462068AB61002801D1FEF7B0FCDD
:104AD00003F042FE4B4620686B61002801D1FEF7CF
:104AE000ABFC03F039FE4B462068AB61002801D1D6
:104AF000FEF719FC03F030FEFEF715FC03F02CFE68
:104B000043462068B361002801D1FEF782FB03F021
:104B100023FE434620687361002801D1FEF77DFB28
:104B200003F01AFE43462068B361002801D1FEF766
:104B300078FB03F011FE434620687361002801D121
:104B4000FEF773FB03F008FE43462068B3610028BC
:104B500001D1FEF76EFB03F0FFFD43462068736151
:104B6000002801D1FEF769FB03F0F6FD43462068FB
:104B7000B361002801D1FEF764FBD02503F0ECFD02
:104B8000042320682D0699466B61002801D1FEF7A9
:104B90005CFB03F0E1FD4B462068AB61002801D1CE
:104BA000FEF757FB03F0D8FD4B4620686B610028E9
:104BB00001D1FEF752FB03F0CFFD4B462068AB61FD
:104BC000002801D1FEF74DFB03F0C6FD4B462068DF
:104BD0006B61002801D1FEF748FB03F0BDFD4B4699
:104BE0002068AB61002801D1FEF743FB03F0B4FD60
:104BF0004B4620686B61002801D1FEF73EFB03F0B5
:104C0000ABFD4B462068AB61002801D1FEF739FBB4
:104C100003F0A2FD4B4620686B61002801D1FEF72E
:104C200034FB03F099FD4B462068AB61002801D1AD
:104C3000FEF72FFBD02503F08FFD042320682D06FF
:104C400099466B61002801D1FEF727FB03F084FD34
:104C50004B462068AB61002801D1FEF722FB03F030
:104C60007BFD4B4620686B61002801D1FEF71DFBE0
:104C700003F072FD4B462068AB61002801D1FEF7BE
:104C800018FB03F069FD4B4620686B61002801D1D9
:104C9000FEF713FB03F060FD4B462068AB61002874
:104CA00001D1FEF70EFB03F057FD4B4620686B6108
:104CB000002801D1FEF709FB03F04EFD4B462068AA
:104CC000AB61002801D1FEF704FB03F045FD4B4624
:104CD00020686B61002801D1FEF7FFFA03F03CFD6C
:104CE0004B462068AB61002801D1FEF7FAFAD025C7
:104CF00003F032FD042320682D0699466B610028DD
:104D000001D1FEF7F2FA03F027FD4B462068AB61B4
:104D1000002801D1FEF7EDFA03F01EFD4B46206896
:104D20006B61002801D1FEF7E8FA03F015FD4B4650
:104D30002068AB61002801D1FEF756FA03F00CFDA4
:104D4000FEF752FA03F008FD43462068B3610028DD
:104D500001D1FEF7BFF903F0FFFC43462068736101
:104D6000002801D1FEF7BAF903F0F6FC43462068AB
:104D7000B361002801D1FEF7B5F903F0EDFC43461D
:104D800020687361002801D1FEF7B0F903F0E4FC5C
:104D900043462068B361002801D1FEF7ABF903F068
:104DA000DBFC434620687361002801D1FEF7A6F9B9
:104DB00003F0D2FC43462068B361002801D1FEF71E
:104DC000A1F9D02503F0C8FC042320682D069946DC
:104DD0006B61002801D1FEF799F903F0BDFC4B4649
:104DE0002068AB61002801D1FEF794F903F0B4FC10
:104DF0004B4620686B61002801D1FEF78FF903F064
:104E0000ABFC4B462068AB61002801D1FEF78AF964
:104E100003F0A2FC4B4620686B61002801D1FEF72D
:104E200085F903F099FC4B462068AB61002801D15D
:104E3000FEF780F903F090FC4B4620686B61002878
:104E400001D1FEF77BF903F087FC4B462068AB618C
:104E5000002801D1FEF776F903F07EFC4B4620686E
:104E60006B61002801D1FEF771F903F075FC4B4628
:104E70002068AB61002801D1FEF76CF9D02503F062
:104E80006BFC042320682D0699466B61002801D134
:104E9000FEF764F903F060FC4B462068AB61002824
:104EA00001D1FEF75FF903F057FC4B4620686B61B8
:104EB000002801D1FEF75AF903F04EFC4B4620685A
:104EC000AB61002801D1FEF755F903F045FC4B46D4
:104ED00020686B61002801D1FEF750F903F03CFC1B
:104EE0004B462068AB61002801D1FEF74BF903F077
:104EF00033FC4B4620686B61002801D1FEF746F970
:104F000003F02AFC4B462068AB61002801D1FEF774
:104F100041F903F021FC4B4620686B61002801D168
:104F2000FEF73CF903F018FC4B462068AB61002803
:104F300001D1FEF737F9D02503F00EFC04232068D9
:104F40002D0699466B61002801D1FEF72FF903F079
:104F500003FC4B462068AB61002801D1FEF72AF91B
:104F600003F0FAFB4B4620686B61002801D1FEF785
:104F700025F903F0F1FB4B462068AB61002801D115
:104F8000FEF793F803F0E8FBFEF78FF803F0E4FB7D
:104F900043462068B361002801D1FDF7FCFF03F010
:104FA000DBFB434620687361002801D1FDF7F7FF62
:104FB00003F0D2FB43462068B361002801D1FDF71E
:104FC000F2FF03F0C9FB434620687361002801D15A
:104FD000FDF7EDFF03F0C0FB43462068B3610028F6
:104FE00001D1FDF7E8FF03F0B7FB4346206873618A
:104FF000002801D1FDF7E3FF03F0AEFB4346206834
:10500000B361002801D1FDF7DEFFD02503F0A4FB3A
:10501000042320682D0699466B61002801D1FDF715
:10502000D6FF03F099FB4B462068AB61002801D105
:10503000FDF7D1FF03F090FB4B4620686B61002821
:1050400001D1FDF7CCFF03F087FB4B462068AB6135
:10505000002801D1FDF7C7FF03F07EFB4B46206817
:105060006B61002801D1FDF7C2FF03F075FB4B46D1
:105070002068AB61002801D1FDF7BDFF03F06CFB98
:105080004B4620686B61002801D1FDF7B8FF03F0A3
:1050900063FB4B462068AB61002801D1FDF7B3FFED
:1050A00003F05AFB4B4620686B61002801D1FDF7E5
:1050B000AEFF03F051FB4B462068AB61002801D1E5
:1050C000FDF7A9FFD02503F047FB042320682D0638
:1050D00099466B61002801D1FDF7A1FF03F03CFB6D
:1050E0004B462068AB61002801D1FDF79CFF03F01F
:1050F00033FB4B4620686B61002801D1FDF797FF19
:1051000003F02AFB4B462068AB61002801D1FDF774
:1051100092FF03F021FB4B4620686B61002801D110
:10512000FDF78DFF03F018FB4B462068AB610028AC
:1051300001D1FDF788FF03F00FFB4B4620686B6140
:10514000002801D1FDF783FF03F006FB4B462068E2
:10515000AB61002801D1FDF77EFF03F0FDFA4B465D
:1051600020686B61002801D1FDF779FF03F0F4FAA4
:105170004B462068AB61002801D1FDF774FFD025B4
:1051800003F0EAFA042320682D0699466B61002893
:1051900001D1FDF76CFF03F0DFFA4B462068AB61ED
:1051A000002801D1FDF767FF03F0D6FA4B462068CF
:1051B0006B61002801D1FDF762FF03F0CDFA4B4689
:1051C0002068AB61002801D1FDF7C2FE03F0C4FAEC
:1051D000FDF7BEFE03F0C0FA2068B761002801D1D8
:1051E000FEF7BEFB03F0B8FA20687761002801D112
:1051F000FEF7BAFB03F0B0FA2068B761002801D1CE
:10520000FEF7B6FB03F0A8FA20687761002801D109
:10521000FEF7B2FB03F0A0FA2068B761002801D1C5
:10522000FEF7AEFB03F098FA20687761002801D101
:10523000FEF7AAFB03F090FA2068B761002801D1BD
:10524000FEF7A6FBD02503F087FA042320682D067D
:105250009A466B61002801D1FEF79EFB03F07CFAB1
:1052600053462068AB61002801D1FEF799FB03F09B
:1052700073FA534620686B61002801D1FEF794FB56
:1052800003F06AFA53462068AB61002801D1FEF7AB
:105290008FFB03F061FA534620686B61002801D14F
:1052A000FEF78AFB03F058FA53462068AB610028EA
:1052B00001D1FEF785FB03F04FFA534620686B617E
:1052C000002801D1FEF780FB03F046FA5346206820
:1052D000AB61002801D1FEF77BFB03F03DFA53469A
:1052E00020686B61002801D1FEF776FB03F034FAE9
:1052F00053462068AB61002801D1FEF771FBD02531
:1053000003F02AFA042320682D069A466B610028D0
:1053100001D1FEF769FB03F01FFA53462068AB6129
:10532000002801D1FEF764FB03F016FA534620680B
:105330006B61002801D1FEF75FFB03F00DFA5346C5
:105340002068AB61002801D1FEF75AFB03F004FA94
:10535000534620686B61002801D1FEF755FB03F02E
:10536000FBF953462068AB61002801D1FEF750FBE2
:1053700003F0F2F9534620686B61002801D1FEF773
:105380004BFB03F0E9F953462068AB61002801D1DB
:10539000FEF746FB03F0E0F9534620686B610028F6
:1053A00001D1FEF741FB03F0D7F953462068AB610A
:1053B000002801D1FEF73CFBD02503F0CDF90423F2
:1053C00020682D069A466B61002801D1FEF734FB58
:1053D00003F0C2F953462068AB61002801D1FEF703
:1053E0002FFB03F0B9F9534620686B61002801D107
:1053F000FEF72AFB03F0B0F953462068AB610028A2
:1054000001D1FEF795FA03F0A7F9FEF791FA6B6167
:10541000FDF70BF803F0A0F92068AF61002801D177
:10542000FEF7D4F903F098F920686F61002801D1E4
:10543000FEF7D0F903F090F92068AF61002801D1A0
:10544000FEF7CCF903F088F920686F61002801D1DC
:10545000FEF7C8F903F080F92068AF61002801D198
:10546000FEF7C4F903F078F920686F61002801D1D4
:10547000FEF7C0F903F070F92068AF61002801D190
:10548000FEF7BCF9D025042703F066F920682D0645
:105490006F61002801D1FEF7B5F903F05DF92068CE
:1054A000AF61002801D1FEF7B1F903F055F920688A
:1054B0006F61002801D1FEF7ADF903F04DF92068C6
:1054C000AF61002801D1FEF7A9F903F045F9206882
:1054D0006F61002801D1FEF7A5F903F03DF92068BE
:1054E000AF61002801D1FEF7A1F903F035F920687A
:1054F0006F61002801D1FEF79DF903F02DF92068B6
:10550000AF61002801D1FEF799F903F025F9206871
:105510006F61002801D1FEF795F903F01DF92068AD
:10552000AF61002801D1FEF791F9D025042703F0DF
:1055300013F920682D066F61002801D1FEF78AF962
:1055400003F00AF92068AF61002801D1FEF786F95F
:1055500003F002F920686F61002801D1FEF782F99B
:1055600003F0FAF82068AF61002801D1FEF77EF958
:1055700003F0F2F820686F61002801D1FEF77AF994
:1055800003F0EAF82068AF61002801D1FEF776F950
:1055900003F0E2F820686F61002801D1FEF772F98C
:1055A00003F0DAF82068AF61002801D1FEF76EF948
:1055B00003F0D2F820686F61002801D1FEF76AF984
:1055C00003F0CAF82068AF61002801D1FEF766F940
:1055D000D025042703F0C0F820682D066F6100284D
:1055E00001D1FEF75FF903F0B7F82068AF6100283A
:1055F00001D1FEF75BF903F0AFF820686F61002876
:1056000001D1FEF757F903F0A7F82068AF61002831
:1056100001D1FEF7C5F803F09FF8FEF7C1F8C046C8
:1056200070B582B0050003F08DF8002934D0FA225D
:105630000023920003F0C8FC06006B46DC1D03F05B
:1056400081F800291FD0FA220023920003F0BCFC4D
:10565000801BA84214D20023237000F093FD220087
:105660000721002814D10120FBF7BCFA002808D03C
:1056700023781A0705D45AB2002AE0DBDB07DED50F
:10568000002002B070BDFA21890003F05FFCDFE763
:10569000012000F08FFEE9E7FA21890003F056FCB3
:1056A0000600CAE770B582B0050003F04BF8002988
:1056B00030D0FA220023920003F086FC06006B46ED
:1056C000DC1D15E0FA220023920003F07DFC801B14
:1056D000A84218D200F056FD22000521002815D15D
:1056E0000020FBF77FFA00280DD023789B070BD40E
:1056F00003F028F80029E5D1FA21890003F026FCFF
:10570000801BA842E6D3002002B070BD002000F04C
:1057100051FEE8E7FA21890003F018FC0600CEE705
:1057200070B582B0050003F00DF8002930D0FA22E0
:105730000023920003F048FC06006B46DC1D15E0D8
:10574000FA220023920003F03FFC801BA84218D2EB
:1057500000F018FD22000721002815D10120FBF7D9
:1057600041FA00280DD023787F2B0BD902F0EAFFF5
:105770000029E5D1FA21890003F0E8FB801BA8424B
:10578000E6D3002002B070BD012000F013FEE8E770
:10579000FA21890003F0DAFB0600CEE7F0B5060037
:1057A0000024314F85B03148FFF7BAFF00F0EAFC22
:1057B0000F23002202216B44002829D10120FBF78E
:1057C000DBFB00F0DFFC0F23EC2207216B440028F9
:1057D00029D10120FBF7D0FB2548FFF721FF002846
:1057E00029D000F0CFFC002832D1012301903200F3
:1057F000002101200093FBF791FD0500002D2FD122
:105800000134032C1DD02100380006F039F9CAE715
:10581000012000F0FBFD00F0B5FC0F23EC22072176
:105820006B440028D5D0012000F0F0FD1048FFF7B0
:10583000F7FE0028D5D10F48013406F09DF8032C5F
:10584000E1D10D4806F098F80025280005B0F0BD1C
:10585000012332000021012000F008FE0500CDE701
:10586000064806F089F8F0E708E400101027000069
:10587000983A0000D8E3001024E40010F0E3001090
:10588000F0B54746CE4680B5040085B05E488846F0
:1058900091460027FFF744FF002800D180E00F2544
:1058A00000F070FC6D442B0042460221002800D01D
:1058B00080E00120FBF760FB00F064FCE6B22B0007
:1058C00032000321002800D080E00120FBF754FBC8
:1058D00000F058FC260AF6B22B0032000421002802
:1058E00000D077E00120FBF747FB00F04BFC260CD3
:1058F000F6B22B0032000521002800D07FE0012005
:10590000FBF73AFBE0262001000F064300F03AFCCB
:105910002B003200062100286DD10120FBF72CFB63
:1059200000F030FC2B0020220721002856D1012056
:10593000FBF722FB3448FFF773FE002856D000F037
:1059400021FC00280FD10123019000934A464346D1
:1059500000210120FBF7E2FC00280CD005B0C0BC00
:10596000B946B046F0BD43464A460021012000F04A
:105970007DFD0028F2D141462448013706F080F829
:10598000032F15D022003900214806F079F81E486F
:10599000FFF7C6FE1C48FFF7C3FE002800D07EE7D5
:1059A0003A0021001B4806F06BF80137032FE9D1BC
:1059B0000020D3E7012000F029FD00F0E3FBE6B270
:1059C0002B0032000321002800D17EE7012000F0E7
:1059D0001DFD7DE7012000F019FD86E7012000F0A4
:1059E00015FD0948FFF71CFE0028A8D121000A4830
:1059F00006F046F8D9E7012000F008FD90E7012005
:105A000000F004FD7EE7C0468813000088E4001023
:105A1000A8E400103CE4001064E40010F0B54F4628
:105A20004646D646C0B5030A040084B0DBB27348CC
:105A30000F00914600269846FFF772FE002873D0AB
:105A40000D2500F09FFB6D442B003A000221002839
:105A500000D096E00120FBF78FFAE3B29A4600F0FF
:105A600091FB2B0052460321002800D085E0012045
:105A7000FBF782FA00F086FB2B0042460421002847
:105A800000D076E00120FBF777FA220CD3B29A46D9
:105A900000F078FB2B0052460521002865D101203B
:105AA000FBF76AFAE0232001000F1843824600F05A
:105AB00069FB2B0052460621002852D10120FBF73A
:105AC0005BFA00F05FFB2B003022072100283BD15E
:105AD0000120FBF751FA4948FFF7A2FD00283BD00F
