:020000041000EA
:1000000000B5324B212058609868022188439860DF
:10001000D860186158612E4B002199600221596106
:100020000121F02299502B49196001219960352056
:1000300000F044F80222904214D00621196600F024
:1000400034F8196E01211966002018661A6600F04E
:100050002CF8196E196E196E052000F02FF8012189
:100060000842F9D1002199601B49196000215960AB
:100070001A491B48016001219960EB211966A021F2
:10008000196600F012F800219960164914480160C1
:100090000121996001BC002800D000471248134993
:1000A000086003C880F30888084703B5996A0420EC
:1000B0000142FBD001200142F8D103BD02B5186610
:1000C0001866FFF7F2FF186E186E02BD00000240BE
:1000D000000000180000070000035F00212200005C
:1000E000F4000018222000A00001001008ED00E03C
:1000F00000000000000000000000000074B24E7A12
:1001000000200420F7010010CB010010CD010010E9
:10011000C9010010C9010010C9010010C901001077
:10012000C9010010C9010010C9010010CF01001061
:10013000C9010010C9010010D1010010D301001045
:10014000C1010010C1010010C1010010C101001067
:10015000C1010010C1010010C1010010C101001057
:10016000C1010010C1010010C1010010C101001047
:10017000C1010010C1010010C1010010C101001037
:10018000C1010010C1010010C1010010C101001027
:10019000C1010010C1010010C1010010C101001017
:1001A000C1010010C1010010C1010010C101001007
:1001B000C1010010C1010010C1010010C1010010F7
:1001C000EFF30580103800BE00BE00BE00BE00BECA
:1001D00000BE00BEF2EB887178C300109CC3001013
:1001E0003802001090A31AE71E481F49086006C88D
:1001F00081F3088810471D480068002801D019487D
:10020000F3E70DA40ECC002902D000F012F8F9E7B4
:100210001749184A002000E001C19142FCD116495B
:100220008847164988471649884700BEFDE701C937
:1002300001C29A42FBD370479CC30010C00000204B
:10024000801000205CD30010000004200000042077
:100250005CD30010001004200010042000000000F7
:10026000704700000000000008ED00E0000000D032
:10027000801000202CA40120FD8D001075050010B9
:10028000F58D0010F8B5C0460448054B10B5834203
:1002900003D0044B002B00D0984710BD80100020E5
:1002A000801000200000000006480749091A8B1042
:1002B000C90FC91810B5491003D0044B002B00D04A
:1002C000984710BD80100020801000200000000022
:1002D00010B5074C2378002B09D1FFF7D5FF054B4C
:1002E000002B02D0044800E000BF0123237010BDA2
:1002F000001400200000000088AA0010054B10B573
:10030000002B03D00449054800E000BFFFF7CCFFF5
:1003100010BDC046000000000414002088AA001090
:1003200070B58023D024802524069B0263616D0272
:100330009620A561400005F0F7FC9620656140001D
:1003400005F0F2FCF4E7C04670B50A2106F0C8F9E2
:10035000002405000A2005F0E7FC012000214042AE
:10036000013409F031FBAC42F4D170BD70B5050029
:10037000224808F0CBFE05F0EDFD002937D0FA2227
:100380000023920006F0EAF9060005F0E3FD0029DB
:1003900020D0FA220023920006F0E0F9801BA84248
:1003A0001FD202F0BBFF164801F0CEFF03F01AF88F
:1003B00000281BD10A240A2005F0B6FC01200021E8
:1003C0004042013C09F000FB002CF4D105F0C2FDD5
:1003D0000029DED1FA21890006F082F9801BA842AB
:1003E000DFD32900074808F015FF002070BDFA216F
:1003F000890006F075F90600C7E7C04688AA001014
:1004000000007A42A4AA001070B5494C4948A5449E
:10041000FFF7ACFF002818D1D024802524066D02F8
:10042000454808F073FE656100F038FA4348FFF76D
:100430008BFF00F027FA4248A561FFF785FF41488E
:10044000FFF794FF002800D167E03F4808F05EFE08
:1004500080223E4C00219200200007F043F820004B
:1004600000F096FB051E55D07626200000F0D6FD44
:1004700062235E22A65BE35AA25A21880096A82630
:10048000334808F0C7FEA623A422A021A65BE35AA6
:10049000A25A615A009680262E4808F0BBFEAE2371
:1004A000AC22AA217600A65BA25A615AE35A0196B1
:1004B000B226A45B2848009408F0ACFE01F0D0F905
:1004C0000121002002AA00F0F9FB002815D12348E1
:1004D00008F01CFE00240121200002AA00F0EEFB1F
:1004E000012000214042013409F06EFA102CF2D1B3
:1004F000280082239B009D4470BD0821FF236A468B
:100500005B005218D35C1649552B08D0154808F0EB
:1005100081FEDCE7144808F0F9FD0025E8E76A46AB
:100520000820124B1218D35CAA2BEFD11049EDE72B
:10053000F8FDFFFF1027000004AB0010B80B00000F
:10054000E02E0000983A0000ECAA0010C49D0020A4
:1005500048AB001078AB0010A8AB0010F0AB001057
:10056000DCAA0010E0AB001030AB0010FF0100006F
:10057000CCAA0010F0B5DE4657464E464546E1216E
:10058000E0B50D2385B00C224902844808F01CFF19
:10059000642005F0C9FB824808F0B8FD814808F0E6
:1005A000B5FD814808F0B2FD804808F0AFFD6A460D
:1005B0007F4BD02613CB13C2EB466C4601271B683A
:1005C0003606136020CC280004F06EFD3B00AB40E3
:1005D0007362736104AB9C42F4D100F027F9754853
:1005E000754908F017FE80231B039946734BD025ED
:1005F000002700269A462D066F4CA41B502C00D9CC
:1006000050244B466B618023DB026B6180239B028D
:100610006B6180235B02380007216B6198460137CC
:1006200006F05EF8052959D8534689005B589F4665
:1006300080239B02AB61200005F076FB604B3619EE
:100640009E42D9D9D024802324061B0363618026CF
:1006500080238025DB026D02B602636100216661A2
:100660000020656109F03AFF564801F06DFE01F087
:1006700027FE554808F04AFD6661656100F00EF9F5
:10068000FA204000FFF760FE00F0FCF84F48A5613B
:10069000FFF75AFEFFF7B8FE002822D14C4808F0B9
:1006A00035FDFFF73DFE8023DB02AB6180239B021B
:1006B000AB61C0E78023DB02AB61BCE74B46AB61BB
:1006C0008023DB02AB61B6E74B46AB61B3E7802327
:1006D0009B02AB6180235B02AB61ACE74346AB613D
:1006E000A9E700235A46A66107210120137002F0F2
:1006F0006BF800283AD05B463648197808F08AFD36
:10070000354800F07BFC0400C20A2100334808F0A1
:1007100081FD200003F048FC314808F0F7FC314E21
:1007200001200021404209F04FF903F097FC03F04B
:10073000E1FC03F0F9FB0028F2D005F00BFC05000A
:100740000C1E18D003F0EAFBFA2207000023280051
:100750002100920006F002F8194BC11B9942DFD923
:10076000300008F057FD03F0F3FBD9E71E4808F00E
:10077000CDFCFFF7D5FD03F0D1FBFA210400890081
:10078000280005F0ADFF0E4B011B9942C8D930007F
:1007900008F040FD03F0DCFBC2E7C0460040034028
:1007A00008AC001034AC001054AC00107CAC00104D
:1007B000ECBC0010A8AC001088130000D4BC0010E2
:1007C0008713000000004840C4AC0010DC050000A6
:1007D000E0AC001020AD0010C49D002040AD001022
:1007E00064AD001074AD001004AD001010B503F03E
:1007F0009BFB002803D003F0A5FB002803D005488D
:1008000008F084FC10BD044808F080FC03F0A0FB55
:10081000F8E7C046C0AD0010A0AD001010B502480A
:1008200008F074FC10BDC046DCAD001070B50220AD
:10083000D02504F039FC04232D066B620320AB6144
:1008400004F032FC082300226B62012103206B615B
:1008500004F016FC04240126200004F025FC3300DB
:10086000A340200000220121AB62013404F008FC07
:10087000082CF1D1092004F017FC80239B006B6247
:10088000AB6170BDD023802210B51B0692000248D8
:100890005A6108F03BFC10BDECAD0010D023802263
:1008A00010B51B06920002489A6108F02FFC10BD9B
:1008B00000AE001070B582B0050005F04BFB0029BA
:1008C0002CD0FA220023920005F048FF06006B4668
:1008D000DC1D05F03FFB00291BD0FA22002392000B
:1008E00005F03CFF801BA84210D200232200072104
:1008F0000120237001F068FF002808D023781A0730
:1009000005D45AB2002AE4DBDB07E2D5002002B0AE
:1009100070BDFA21890005F0E3FEE3E7FA218900C2
:1009200005F0DEFE0600D2E770B582B06B46002609
:1009300004001500DE710A0001200221073301F0D6
:100940006FFF002802D1002002B070BD6B4603216A
:10095000DE710120E2B2073301F062FF0028F2D01D
:100960006B46220ADE7104210120D2B2073301F066
:1009700057FF0028E7D06B46220CDE7105210120CD
:10098000D2B2073301F04CFF0028DCD06B46DE7199
:10099000E0232201120F1A436B4606210120073380
:1009A00001F03EFF0028CED06B462A00DE71072101
:1009B0000733012001F034FFC6E7C046F0B585B02B
:1009C00000236A469373D3730E336B4405000C0007
:1009D0001A000721012001F0F7FE00283CD06B46E9
:1009E00001269A7B16420ED193063BD424490B0074
:1009F00000912448290008F00DFC2100224808F04D
:100A000009FC05B0F0BD0F236B441A000121012041
:100A100001F0DAFE00281FD06B46997BDF7B0A00CD
:100A20000E408B0629D4164B002E1CD0174A1548B1
:100A300000920A00290008F0EDFB7B0715D5144A47
:100A4000FB0615D5134B790615D5134900911348AC
:100A5000390008F0DFFBD0E722002900104808F039
:100A6000D9FBCEE70F4B0649C2E7054AFB06E9D49E
:100A7000034B7906E9D40249E8E70A4BD4E7C046BC
:100A800070B1001060AE001010B1001078AE001010
:100A90001CAE001024AE00102CAE001080AE001072
:100AA00034AE001018AE0010F0B5C64600B582B0E6
:100AB00080460F00150005F04DFA00294DD0FA22AE
:100AC0000023920005F04AFE06006B46DC1D002361
:100AD000237011E0FA220023920005F03FFE801BF4
:100AE000854214D922000721012001F06DFE002863
:100AF0000DD023787F2B19D905F02CFA0029E9D1E4
:100B0000FA21890005F0ECFD801B8542EAD8390006
:100B100042461D4808F07EFB41463800FFF74EFF75
:100B20000025280002B080BCB846F0BD00236A460C
:100B30000721937101202370063201F045FE051E46
:100B400011D06B469B79DA0713D421221A42E8D0E0
:100B500041463800FFF732FFE2E7FA21890005F04D
:100B6000BFFD0600B1E742463900084808F052FBD5
:100B7000D6E722000121012001F026FE0028F2D054
:100B80006B469B79E1E7C04694AE0010BCAE001006
:100B9000F0B54F46D64646460023C0B582B09846CB
:100BA0006B46DC1D3D4B814600279A4605F0D2F985
:100BB000002935D0FA220023920005F0CFFD050070
:100BC000374E277011E0FA220023920005F0C6FD8F
:100BD000401BB04214D822000721012001F0F4FD8F
:100BE00000280DD023787F2B20D905F0B3F90029F8
:100BF000E9D1FA21890005F073FD401BB042EAD922
:100C0000504608F083FA4346012B38D0012125488D
:100C100008F000FB0123984605F09CF90029C9D192
:100C2000FA21890005F05CFD0500C9E723000022D8
:100C300002210120277001F0F3FD002819D02300C4
:100C4000EC2207210120277001F0EAFD002810D0D6
:100C50001548FFF72FFE00281CD001234A4600212B
:100C6000012001F011FE051ECDD0104808F04EFA0B
:100C700009E00F4808F04AFA4346012BC6D10D4857
:100C800008F044FA0025280002B0E0BCBA46B1469C
:100C9000A846F0BD084808F039FAB4E7E8AE0010FD
:100CA0000F2700005CAF0010983A000044AF00101E
:100CB00004AF001078AF00102CAF0010F0B557460D
:100CC000DE464E4645460023E0B585B0994602AB68
:100CD000DC1D00239A46594B070088469B4601922B
:100CE00005F038F9002955D0FA220023920005F0CA
:100CF00035FD05005346FA262370760011E0FA22EE
:100D00000023920005F02AFD401BB04214D22200BD
:100D10000721012001F058FD00280DD023787F2BFA
:100D20001AD905F017F90029E9D1FA21890005F04F
:100D3000D7FC401BB042EAD34A463900584608F077
:100D400069FA4B46012B2BD1002005B0F0BCBB4605
:100D5000B246A946A046F0BD202241463800FFF722
:100D6000E3FD002851D0FA204001FFF7A3FD002841
:100D700042D0434600210120019A01F085FD002860
:100D800052D0FA2238002E49D200FFF78DFE0028FB
:100D9000DBD1D6E7FA21890005F0A2FC0500A9E71E
:100DA0003A000121274808F035FA05F0D3F8002968
:100DB00030D1FA21890005F093FC0500002323704F
:100DC00011E0FA220023920005F0C8FC401BC7285E
:100DD00027D822000721012001F0F6FC002820D0AE
:100DE00023787F2B1DD905F0B5F80029E9D1FA2128
:100DF000890005F075FCE9E73900134808F00AFAA4
:100E000039000F48FFF7DAFD9BE739000F4808F07B
:100E100001FA96E7FA220023920005F09FFC0500F4
:100E2000CCE7012399465BE74146094808F0F2F90F
:100E300039000348FFF7C2FD83E7C04690AF0010BA
:100E400008B0001030B00010E4AF0010B8AF0010D0
:100E500010B00010F0B55746DE464E46454600231A
:100E6000E0B585B0994602ABDC1D00239A465A4B8B
:100E7000070088469B46019205F06CF8002900D1D6
:100E800081E0FA220023920005F068FC0500534639
:100E9000524E237011E0FA220023920005F05EFC0E
:100EA000401BB04214D822000721012001F08CFC25
:100EB00000280DD023787F2B3FD905F04BF800296F
:100EC000E9D1FA21890005F00BFC401BB042EAD9B8
:100ED0004A463900584608F09DF94B46012B4AD046
:100EE0003A0001213E4808F095F905F033F8002951
:100EF0005DD1FA21890005F0F3FB05000023374E90
:100F0000237011E0FA220023920005F027FC401B19
:100F1000B0425DD822000721012001F055FC0028D5
:100F200056D023787F2B53D905F014F80029E9D146
:100F3000FA21890005F0D4FBE9E730224146380068
:100F4000FFF7F2FC002824D02648FFF7B3FC002866
:100F500024D0434600210120019A02F01DF8002808
:100F60002CD038002049214AFFF79EFD002803D1EC
:100F70004B46012BB4D1002005B0F0BCBB46B246B5
:100F8000A946A046F0BDFA21890005F0A9FB05009D
:100F90007DE73900164808F03DF99EE7390015480D
:100FA00008F038F939001048FFF708FD95E7FA22F4
:100FB0000023920005F0D2FB05009FE741463A006E
:100FC0000D4808F027F939000748FFF7F7FC84E7D8
:100FD0000123994650E7C04650B000108713000027
:100FE000FCB0001088130000CCB0001010270000E7
:100FF0007CB00010A8B00010D4B000107922782383
:10100000825CC35C12021A437A23C35C1B04134341
:101010007B22805C000618437047C046F0B5DE4670
:1010200057464E4645460400E0B599B015220021CA
:1010300007A806F057FA0DAD0922002104A806F012
:1010400051FA29220021280006F04CFA237E607E06
:101050001B02804F1843E37E38401B041843A37ED5
:1010600000021B06000A1843237F617F1B021943FD
:10107000E37F39401B041943A37F09021B06090AB9
:10108000194320232122E35CA25C1B021A43232381
:10109000E35C3A401B041A432223E35C12021B0662
:1010A000120A1A432423E35C0A921B029C4625235E
:1010B0006646E35C02AA334327263B402627A65D0B
:1010C000E75D360433431B023F061B0A3B4394464D
:1010D0000B932723277D09913E02677D002137432B
:1010E000E67D089036043743A67D3F0236063F0A68
:1010F00037430797634400E013001A78202A04D18D
:1011000007A819705A1E9842F6D12F23E35C029368
:101110002E23E25C033316000392E25C013B91460E
:10112000E25C03339046E25C013BE75C0333E05C46
:10113000013BE15C33024E463604B346029E9446C0
:10114000334346463606B2465E463343564633433D
:101150000604B346664604933B0233430E06B2468A
:101160005E4633435646334300220593202920D15F
:1011700002ABDA7320281CD19A73202F19D15A732D
:101180006346202B15D16B461A754346202B10D190
:1011900002ABDA724B46202B0BD102AB9A72039B47
:1011A000202B06D102AB5A72029B202B01D16B4639
:1011B0001A7422002B00363217A851781970117852
:1011C0000232597002339842F7D128230022EA54A0
:1011D00002AA94462B330021634400E013001A78DE
:1011E000202A03D119705A1E9D42F7D17823E25C60
:1011F0000133E35C29001B0213437A22A25C1648E8
:1012000012041A437B23E35C1B061343DA0A0192A0
:10121000009307AA04AB07F0FDFF2200AA23AA321D
:101220005078E35C00021843A423E15CA33B0A006E
:101230001A4019420CD0094901230340084807F01D
:10124000E9FF19B0F0BCBB46B246A946A046F0BDC6
:101250000449F1E7FFFF00FF2CB1001020B100109E
:1012600074B100101CB10010F0B583B06B466A4633
:10127000DD1C0023137153712B706B460122053363
:101280000621002001F0CCFA2A000721012001F0FC
:101290009BFA2B78002801D0DA0731D45BB2002BFF
:1012A00001DB03B0F0BD674807F030FF04F052FEE9
:1012B000002932D0FA220023920005F04FFA0600EE
:1012C0006B46DC1D0023237011E0FA2200239200FC
:1012D00005F044FA801B632825D82200072101204D
:1012E00001F072FA00281ED023787F2B6BD904F00E
:1012F00031FE0029E9D1FA21890005F0F1F9E9E789
:10130000012101AA012001F05FFA6B4629781A79C0
:101310004D4807F07FFF2B78C0E7FA21890005F0E0
:10132000DFF90600CCE701200021404208F04CFB29
:10133000464807F0EBFE6B460022053302210020F1
:1013400001F06EFA052004F0EFFC0120002140427C
:1013500008F03AFB6B46022202210533002001F01F
:101360005FFA04F0F7FD002966D0FA22002392000C
:1013700005F0F4F907006B469E1D0023337019E059
:10138000FA220023920005F0E9F9C01BC72825D8EE
:1013900032000321002001F017FA002802D0337830
:1013A0009B071BD4052004F0BFFC01200021404214
:1013B00008F00AFB04F0CEFD0029E1D1FA218900F2
:1013C00005F08EF9E1E701200021404208F0FCFA27
:1013D0002A000721012001F0F7F962E704F0BAFDC5
:1013E000002922D1FA21890005F07AF906000023AC
:1013F000237011E0FA220023920005F0AFF9801B60
:10140000C728E0D822000721012001F0DDF90028DB
:10141000D9D023787F2BD6D904F09CFD0029E9D1BF
:10142000FA21890005F05CF9E9E7FA22002392002D
:1014300005F094F90600DAE7FA21890005F050F981
:10144000070098E7C8B10010A0B10010ECB100107F
:10145000F0B5C64600B582B00700884604F07AFDB4
:1014600000294ED0FA220023920005F077F90500FA
:101470006B46FA26DC1D0023F600237011E0FA22E9
:101480000023920005F06AF9401BB04214D22200FA
:101490000721012001F098F900280DD023787F2B37
:1014A00013D904F057FD0029E9D1FA21890005F08C
:1014B00017F9401BB042EAD339001A4807F0AAFED8
:1014C000002002B080BCB846F0BD202201213800C7
:1014D000FFF72AFA0028F3D0FA204001FFF7EAF9D3
:1014E00000281DD0012342460021012001F0CCF943
:1014F00000280CD0FA2238000B49D200FFF7D4FAAA
:10150000DFE7FA21890005F0EBF80500B0E70748AE
:10151000390007F07FFE39000348FFF74FFACFE7A5
:101520000348F5E708B2001048B2001050B20010AE
:1015300024B20010F0B5C64600B582B00700884658
:1015400004F008FD00294DD0FA220023920005F096
:1015500005F905006B46FA26DC1D0023F600237012
:1015600011E0FA220023920005F0F8F8401BB04287
:1015700014D222000721012001F026F900280DD005
:1015800023787F2B13D904F0E5FC0029E9D1FA2157
:10159000890005F0A5F8401BB042EAD339001A488B
:1015A00007F038FE002002B080BCB846F0BD302203
:1015B00001213800FFF7B8F90028F3D0FA20C00065
:1015C000FFF778F900281CD00123424600210120B2
:1015D00001F0E2FC00280BD038000C490C4AFFF760
:1015E00063FAE0E7FA21890005F07AF80500B1E72F
:1015F0000848390007F00EFE39000448FFF7DEF90D
:10160000D0E70548F5E7C04674B20010B4B2001048
:1016100088130000BCB2001090B2001070B582B008
:1016200004F098FC00292BD0FA220023920005F048
:1016300095F805006B46DC1D0023314E237011E048
:10164000FA220023920005F089F8401BB04214D81A
:1016500022000721012001F0B7F800280DD02378DF
:101660007F2B13D904F076FC0029E9D1FA218900F7
:1016700005F036F8401BB042EAD9002002B070BD38
:10168000FA21890005F02CF80500D3E70023E022B9
:10169000237007212300012001F0C2F80028ECD0BC
:1016A00004F058FC002924D0FA220023920005F00F
:1016B00055F805000023124E237011E0FA22002392
:1016C000920005F04BF8401BB042D6D8220007210B
:1016D000012001F079F80028CFD023787F2BCDD9D5
:1016E00004F038FC0029E9D1FA21890004F0F8FF60
:1016F000E9E7FA21890004F0F3FF0500DAE7C046C4
:1017000087130000F0B5C64600B5504B82B01F7875
:101710009846002F05D00127380002B080BCB8469B
:10172000F0BD04F017FC002926D0FA220023920015
:1017300005F014F805006B46DC1D0023444E2370B1
:1017400011E0FA220023920005F008F8401BB04295
:10175000E2D822000721012001F036F80028DBD072
:1017600023787F2B0ED904F0F5FB0029E9D1FA216B
:10177000890004F0B5FFE9E7FA21890004F0B0FF21
:101780000500D8E70023E72223700721230001206A
:1017900001F046F80028BFD004F0DCFB002924D07B
:1017A000FA220023920004F0D9FF05000023294EFD
:1017B000237011E0FA220023920004F0CFFF401BB7
:1017C000B042A9D822000721012000F0FDFF002827
:1017D000A2D023787F2B0ED904F0BCFB0029E9D1DD
:1017E000FA21890004F07CFFE9E7FA21890004F07E
:1017F00077FF0500DAE76B469D1D00232A000721CD
:10180000012023702B7000F0DFFF002800D183E758
:1018100001262B781E4200D17DE722000121012004
:1018200000F0D2FF002800D176E7297822780E4216
:1018300000D170E7530705D5074807F067FC43461A
:101840001E7068E7054807F0E5FC65E722A4012063
:10185000871300000F270000E0B2001020B3001033
:10186000F0B5DE4657464E464546E0B5734889B06A
:1018700007F04CFC724807F049FC724807F046FC40
:1018800048239B46704B17249A46704B704F9946DD
:10189000BB446C443B787A6819005046984607F080
:1018A000B9FC04F057FB002936D0FA22002392003D
:1018B00004F054FF05000023664E237011E0FA2265
:1018C0000023920004F04AFF401BB04214D82200CB
:1018D0000721012000F078FF00280DD023787F2B0E
:1018E00020D904F037FB0029E9D1FA21890004F05E
:1018F000F7FE401BB042EAD9484607F007FC08371C
:101900005F45C7D10A2007F0B7FB09B0F0BCBB4662
:10191000B246A946A046F0BDFA21890004F0E0FED7
:101920000500C8E70025230042460121012025705B
:1019300000F076FF0028DFD02300C222072101201B
:10194000257000F06DFF0028D6D004F003FB0029BD
:1019500024D0FA220023920004F000FF05000023A7
:101960003C4E237011E0FA220023920004F0F6FEB0
:10197000401BB042C0D822000521002000F024FF07
:101980000028B9D023789B070ED404F0E3FA00298D
:10199000E9D1FA21890004F0A3FEE9E7FA218900E0
:1019A00004F09EFE0500DAE706AD2A0001210120C1
:1019B00000F00AFF00289FD01922022101206A446A
:1019C00000F002FF002897D01A22032101206A4468
:1019D00000F0FAFE002800D18EE71B22042101202E
:1019E0006A4400F0F1FE002800D185E705210120BE
:1019F00007AA00F0E9FE002800D17DE71D2207219B
:101A000001206A4400F0E0FE002800D174E7EB7882
:101A10006978AA782E796D799846E8070AD50E4B31
:101A20009C46634601950293009643460B4807F097
:101A3000F1FB64E70A4B9C46F3E7C04650B3001045
:101A400074B30010B4B30010D4B3001018B4001075
:101A5000FCBC00108713000078AE0010F0B300103B
:101A600070B1001001211B4A30B51368A0258B43CB
:101A700080211360184B0906196019601021174B5B
:101A8000ED051960D8230021AC46D150144B1549FF
:101A90001C68154DE3020B4014491943A30163442C
:101AA0001D60586080209860196180214902536848
:101AB0000B42FCD182230121DB0013610B00A34008
:101AC000A0201C008623C005DB00C45013680B4314
:101AD000136030BD00002050D01020500020205056
:101AE000A40F0020FD7F00FF2000205029004200AD
:101AF00080239B009C46F0B54E4657464546DE4641
:101B000084446346E0B587B00493002302930193B5
:101B10000093664B00269A4640239946303B9846F0
:101B20000C3B9C46039605914F4605784478AE01E0
:101B30003E4047462B09DB01334326013E406746C2
:101B4000817833438E003E402027334366003E4079
:101B500033434E083700082637403E001E43B34645
:101B600002265F46C2780430D30833403B43012746
:101B7000039E17403B43DBB2370A7B4057465B006E
:101B8000FB5A360220275E40B3B24E4603936B09E0
:101B90002740DB013B436F01374046463B43E700AC
:101BA000374008263B438F08374066463B434F008B
:101BB000374002263B43170937403B43013E570855
:101BC00037403B43009FDBB23E0A3F02BB465746CD
:101BD00073405B00FB5A5F467B4067464E469BB2B4
:101BE0000093AB090F40DB013B432F0137403B43E0
:101BF00067083E0020273E4033434646A700374053
:101C000008263B43CF0837403B43063E5709374041
:101C10003B43012796083E403343019EDBB2370A1F
:101C20003602B34656467B405B00F35A5E4673402D
:101C30009BB20193E3095B019B465E46CB09DB0047
:101C400033437F272E00BE433343D6097600334308
:101C50004E46ED0035401D43434664001C4063463C
:101C60004908194001232C430C43D1081940029B19
:101C700021431A0A51401A02534649005B5A534005
:101C80009BB20293049B984200D04DE70599009BBC
:101C9000039E4B80019B0E808B80029BCB8007B004
:101CA000F0BCBB46B246A946A046F0BD44BD0010FC
:101CB000F0B54546DE4657464E46E0B58DB005AB1D
:101CC0000C008025190098460700FFF711FF00223D
:101CD00000230F21AD00BE581B0730BA0009034393
:101CE000A350330E04320B40AA42F4D10192424673
:101CF0000294D78896885288F813944642461588ED
:101D000000229246F2139200C0001043EA131043DF
:101D10006246D21352001043020201209146BA13C8
:101D20000240D2009346B2130240920090465A46B7
:101D3000444622439046AA130240934642465C46DC
:101D40002243904662469213024052009346424616
:101D50005C46224314047A130240D2009346721365
:101D600002409200904603945A46444622439046CD
:101D70006A130240934642465C46224390466246BE
:101D8000521302405200934642465C4622431206DA
:101D900090464A4613434246039C2343134307930A
:101DA00032133B13034002409200DB0013432A131B
:101DB0000240134362461213024052009146F2124F
:101DC000024092009346FA120240D20090465A46D0
:101DD000444622439046EA120240934642465C46FD
:101DE000224390466246D212024052009346424637
:101DF0005C462243120290464A46134342461A4327
:101E0000BB120340DB00984691464246B3120340A2
:101E10009B001343AA1202401343624692120240EF
:101E2000520013431B0498464B464446954A1340C0
:101E300023437C120440E400A14674120440A40031
:101E4000A0464C46424614436A12A0461400044081
:101E5000A14644464A46144362465212A046140024
:101E60000440620044461B02144322061B0A13432B
:101E70003212140008933B1204400340A200DB001E
:101E800013432A1214006246044012122343140022
:101E9000044062009146FA1114000440E2009346A7
:101EA000F21114000440A2005C461443EA11A0465B
:101EB00014000440A34644465A4614436246D211D5
:101EC000A046140004406200444614432202904697
:101ED0004A46444613431C43BB110340DB0098466B
:101EE0004246B31103409B001343AA11A1461400BC
:101EF00062460440921123431400044062001343DD
:101F00001B0498464B465F4A1340424613437A11DE
:101F10000240D20090467211024092009146424621
:101F20004C46224390466A110240914642464C4636
:101F30002243904662465211024052009146424668
:101F40004C461B02224312061B0A1343099332110B
:101F50003B11034002409200DB0013432A11024070
:101F60001A4363461B1103405B009B46FB10034072
:101F7000DB00984691464246F31003409B00134312
:101F8000EA10024013436246D2100240520013434B
:101F90001B0298465A464B46134342461343BA1017
:101FA0000240D2009046B210024092009146424652
:101FB0004C4622439046AA100240914642464C4667
:101FC0002243904662469210024052009146424699
:101FD0004C462243120413437A100240D20090462A
:101FE000721002409200914642464C46224390466F
:101FF0006A100240914642464C4622439046624651
:10200000521002405200914642464C461B02224367
:1020100012061B0A13430A9307AB98466346064011
:102020000740B600FF003E430540184043003543DB
:102030001D4343461D74597482235246029C9B00E3
:10204000E250043BE2505346404600210F2607254C
:10205000019AA3502F0002788F43BF003240BA404C
:10206000CB1080339B00E3181F6801313A431A609C
:1020700001301229EED10DB0F0BCBB46B246A946E4
:10208000A046F0BDFFFF00FF012130B5404A414DA1
:10209000136887B08B4313602B78002B57D0002335
:1020A0003D493B4C1A00088812329200013310510E
:1020B0000231182BF6D1394BEC21186880239B0292
:1020C0000493374B89050393364B059305F04CF980
:1020D000051C05F08FF984B20023002C0ED02000DF
:1020E00005F060F9011C281C05F03BF98721C905A2
:1020F00005F051F905F07EF9C3B21B0224041C431C
:10210000029401240621022002F0A0FF06210320F0
:1021100002F09CFF00220121032002F0B1FF012305
:102120000222002100941A4807F084F901230322B7
:1021300000210094164807F07DF902AB002200212F
:10214000134807F0D1F9184B1C7007B030BD0220BE
:10215000053102F07BFF0621032002F077FF002209
:102160000121032002F08CFF04242000062102F04C
:102170006DFF200000220121013402F081FF082CB4
:10218000F3D1F822094B1A6001232B7087E7C04670
:102190000000205023A4012044BF0010A00F002005
:1021A000007001036388112426A4012038202050E8
:1021B000F0B5D6464F464646C0B5394B82B01B787F
:1021C0009A46002B64D047236A46092000930023D7
:1021D000E8461371002147227F2507270126814603
:1021E00002E04046CA10825C3C008C4322419809C0
:1021F0005B002B403240824202D04A465340DBB261
:1022000001312829EDD101225B001343DCB2254BBB
:102210001B78012B01D0FFF737FF01218020224AD4
:10222000000613688B431360204B18601860102061
:102230001F4B1860D8231F48D0501F48D050002093
:10224000D05013680B4380211360490253680B423E
:10225000FCD18020194B14491361240440024A68C0
:102260000242FCD18E23DB050B6180210E4E490218
:1022700072680A42FCD10120346103F055FD01224D
:102280003368934380223360084B12061A601A6049
:10229000504602B0E0BCBA46B146A846F0BDC046C2
:1022A00027A4012026A4012000002050D010205097
:1022B0000020205081E0000001E0000027002F00F6
:1022C000F0B51A4C85B02378002B01D005B0F0BDD5
:1022D000012007F057F9164B00211860154807F048
:1022E00091F8154B1B78012B01D0FFF7CDFE012390
:1022F0002370124B1D68281C05F082F80F00812105
:1023000000230600C905281C029305F044F8011CAF
:102310000B4805F02CF805F073F80A4C0090019179
:1023200032003B00200006F075FFCFE727A4012014
:10233000A40F00200000205026A40120A00F0020A0
:102340000000FA42B8B40010134B70B51860134B7C
:102350001B78002B0FD0EC21890505F005F8051C32
:1023600005F048F884B20023002C05D124041C4356
:10237000C8230B4AD45070BD200005F013F8011C8F
:10238000281C04F0EEFF8721C90505F004F805F0CC
:1023900031F8C3B21B02E9E7A00F002027A40120F7
:1023A00000002050F0B5DE46574645464E46E0B5A3
:1023B000654B89B01F780D0093460490002F00D123
:1023C000A1E03F26064040233100194308002B0EB0
:1023D0002A0C019302921B02D2B27F2612040B43F5
:1023E0008446134309222C0A039121060B43B1466C
:1023F00006A9783EB0469246069362460023002026
:10240000AC460D71063E059401E0C2108A5C4D4653
:102410009C095B002B40454685432A413240A2423D
:1024200002D052465340DBB201302828EDD10122C0
:102430005B001343DBB298464B71444B65461B78F7
:10244000059C012B01D0FFF71FFE01218020404A8F
:10245000000613688B4313603E4B18601860102011
:102460003D4B1860D8233D48D0503D48D050002007
:10247000D05013680B4380211360490253680B420C
:10248000FCD1384B80201361FF23019A23401204B2
:102490001343029A2D061206120C1343039A2C4979
:1024A00016061E4343461B042B4340024A68024261
:1024B000FCD180200E61264940024A680242FCD1CC
:1024C0000B6103F047FD002926D1FA21890004F0B1
:1024D00007F904001E4D6B68DB052ED503F03AFDAD
:1024E000002920D0FA220023920004F037F9001BC3
:1024F0006428F0D904991C4806F08CFE0121144A86
:1025000013688B4313600027380009B0F0BCBB464A
:10251000B246A946A046F0BDFA220023920004F07C
:102520001DF90400D6E7FA21890004F0D9F8001B50
:102530006428DFD86B68DB05D0D45A462B6A002AA2
:10254000E2D01360E0E7C04627A4012026A40120C2
:1025500000002050D01020500020205081E00000CA
:1025600001E0000027002F00E8B40010F0B5C646D7
:10257000002300B582B08046019303F0EBFC0029F4
:1025800044D0FA220023920004F0E8F80400FA256F
:1025900000276D0003F0DEFC002919D0FA22002389
:1025A000920004F0DBF8001BA84218D2E0210520BD
:1025B00001AA4903FFF7F6FE061E02D00199002981
:1025C00012DB1E2003F0B0FB03F0C4FC0029E5D1B0
:1025D000FA21890004F084F8001BA842E6D3002009
:1025E00002B080BCB846F0BDE0220B021B0A5203C9
:1025F000934206D0002F0FD01E2003F095FB37002A
:10260000C8E74346002BEBD01960E9E7FA218900BF
:1026100004F066F80400BAE7024A034806F0FAFD3F
:10262000EAE7C04600001C8000B50010F0B5CE46B9
:10263000474680B583B0814601046A460720FFF70C
:10264000B1FE002800D19DE0514B524A1A60524B16
:102650001B78002B00D08FE00A20C02603F064FB1B
:1026600003240025360234204C4901AA0195FFF7C6
:1026700099FE002802D0019B334202D0013C002C7D
:10268000F1D1C0260324002536023420444901AA92
:102690000195FFF787FE002802D0019B334202D04C
:1026A000013C002CF1D1C026032400253602342041
:1026B0003C4901AA0195FFF775FE002802D0019B55
:1026C000334202D0013C002CF1D1C0260324002566
:1026D00036023420344901AA0195FFF763FE002831
:1026E00002D0019B334202D0013C002CF1D1C02624
:1026F00003240025360234202C4901AA0195FFF756
:1027000051FE002802D0019B334202D0013C002C34
:10271000F1D1C0231B020026002798460325C021C3
:10272000342001AAC9000197FFF73CFE041E03D024
:102730004246019B13420DD0013D002DEFD1642094
:10274000013603F0F1FA642EE8D1194806F0DEFCF8
:1027500000240BE09B07F2D53100164806F05AFD25
:102760004A46154B1A800122144B1A70200003B000
:10277000C0BCB946B046F0BDC821C823104A890282
:10278000D15069E70F4806F0C1FC0024EEE7C046CF
:10279000A00F00200000484027A40120020E008066
:1027A00000200280022202800308008002040080D0
:1027B0007CB500105CB500101AA4012020A40120F3
:1027C0000000205048B50010F0B5C646E023C026F2
:1027D00090460325002700B5DB0504071C400F4B7E
:1027E0004902194082B00C4336022100342001AA6C
:1027F0000197FFF7D7FD002802D0019B334207D095
:10280000013D002DF1D1002002B080BCB846F0BDE2
:102810004246002AF8D01370F6E7C04600FEFF03D8
:10282000F0B5C6469846E0238026C024032500273D
:10283000DB0500B500071840104B49021043194052
:102840000843360682B0064324023100342001AA30
:102850000197FFF7A7FD002802D0019B234207D074
:10286000013D002DF1D1002002B080BCB846F0BD82
:102870004246002AF8D01370F6E7C04600FEFF0378
:1028800010B5FFF795FC10BDF0B54546DE4657463E
:102890004E46E0B5A5B01D001293944B14001B7872
:1028A000002B09D100239B46584625B0F0BCBB46FF
:1028B000B246A946A046F0BD0023E0221F93D205F0
:1028C00003071340EA05D20D1343894A4902114018
:1028D0000B4380210905352019431FAAFFF762FD2C
:1028E00083460028DED01F9AC02311001B02194026
:1028F0001B911A42D6D101217E4B1A688A431A6075
:102900007D4A92461278022A57D01A687B488A4339
:102910001A607B4A7B499A647B4ADA647B4A196570
:102920005A657B4A9A65D8657A4818668220586647
:102930009966DA66784AEC211A67784A89055A67F7
:10294000774B1868B0231B022193764B2393902377
:102950001B03229304F008FD061C04F04BFD85B216
:102960000023002D0ED0280004F01CFD011C301C9B
:1029700004F0F7FC8721C90504F00DFD04F03AFDD1
:10298000C3B21B022D04002200211D43594820AB75
:10299000209506F0A9FD002304220021009355484C
:1029A000043306F047FD0123022200930021514821
:1029B00006F040FD0223524613702000FFF752F844
:1029C000129B002B00D1CCE280235B0499465B462E
:1029D0001D935346C346544E119403971C9303F022
:1029E000B9FA00297BD0FA220023920003F0B6FE48
:1029F00004004E4A336894464A469B0163441B6870
:102A000013423CD003F0A6FA00292FD0FA2200236B
:102A1000920003F0A3FE464B001B9842E9D91C9B91
:102A200032689A460123A02093404249C005435092
:102A3000414B80219C4692016244490413680B4239
:102A4000FCD101212B4A3D4813688B43136006F0EB
:102A50005DFB3B48129A1B9906F0DCFB53461B7842
:102A6000012B00D11EE7FFF70FFB1BE7FA218900BE
:102A700003F036FE2E4B001B9842BAD9CFE703F085
:102A800069FA002900D118E2FA220023920003F02B
:102A900065FE0500174C0CE0FA220023920003F0BB
:102AA0005DFE401B63280FD8D423E358DBB2002B14
:102AB0004AD003F04FFA0029EED1FA21890003F041
:102AC0000FFE401B6328EFD901211C9B094A9A463F
:102AD00013681C488B43136006F018FBB9E7FA2112
:102AE000890003F0FDFD040083E7C04627A4012010
:102AF00000FEFF030000205026A4012046A0000095
:102B0000A080000042A1000027A0000042B0000009
:102B100004500000C3A00000481000002080000006
:102B2000A00F002000080220A40F00201000005079
:102B300088130000440400000C00005094B50010FD
:102B4000D8B500102CB600100122236893432360EF
:102B5000802362685B001A4200D005E2226A934635
:102B600062681A4200D00AE2226A039262681A423C
:102B700000D0FEE1226A626862681A420AD103212B
:102B80008020EE4B40001A6A5A680242FBD00129AD
:102B900000DC98E11B9B129A013317939A4200DDE7
:102BA00083E1119820A9FEF7A3FF5B461B0F059355
:102BB0000F235A4618005F465946120E5D461040D4
:102BC0000A9058465C463F0BBC461F402D0C0D97A3
:102BD0000F0AA84639001D400C9505092800240D50
:102BE000A2461C400B941C0019400E9103991840FA
:102BF0000F90080F0490080E13900440080D0694DF
:102C00000400090C1C4007940C001C400894039C11
:102C1000240B14941C401894039C240A15941C4003
:102C20001994039C240916941C4009945C461C408A
:102C30001094039C1C401A940224059B5B001C40CA
:102C400001231A402243544652001C40224344466A
:102C500052001C402243644652001C402243520052
:102C60001F4017435A467F001D403D43049F6D009F
:102C70001A402A433D00139C52001D402A43520033
:102C80001C401443640018402043149A400019402B
:102C9000014349001A400A43159952001940114353
:102CA000169A039C49001A400A4352001C401443E0
:102CB0001CAA128AA4B2944200D00AE102200A9906
:102CC0000C9D4A1005991A4001400C0014430B9AC0
:102CD000640052101A400D9814436A101A406400A0
:102CE00014430E9942101A4064000F9814434A107E
:102CF0001A406400144342101A4064001443109AAE
:102D0000640052101A4014437A101A4064001443AD
:102D1000069A079F52101A406400089D14437A10C7
:102D20001A40640014436A10189D1A40640014434A
:102D3000199F6A101A40640014437A101A40640004
:102D40001443099A1A9852101A406400144342100E
:102D50001A40640014431CAA528AA4B2944200D0C0
:102D6000DFE00221059C62080A9C0A40A1100B9C2E
:102D700019400A43A1100C9C194052000A43A110AB
:102D80000D9C194052000A43A1100E9C194052009C
:102D90000A43A1100F9C194052000A43A110109C35
:102DA000194052000A43A110194052000A430499E5
:102DB0005200891019400A4306995200891019409F
:102DC0000A4307995200891019400A430899520092
:102DD000891019400A43A910194052000A43BC1037
:102DE00052001C401443099A640092101A40144384
:102DF0008210134064001C431CAB9A8AA4B2A24206
:102E000000D092E0059B0A9ADB10D2105B001343BE
:102E10000B9A5B00D21013430C9A5B00D210134341
:102E20000D9A5B00D21013430E9A5B00D21013432D
:102E30000F9A5B00D2101343109A5B00D210134319
:102E4000049A5B00D2101343069A5B00D21013431E
:102E5000079A5B00D2101343089A5B00D210134309
:102E6000189A5B00D2101343199A5B00D2101343D7
:102E7000099A5B00D21013431A9A5B00D4101C43CA
:102E80001CABDA8AA24254D1802292009446119B54
:102E9000A53A634411936B46FF3A9B181B88129A1C
:102EA0009A4257D9179B1B9399E580239B009C4618
:102EB00011986044FEF7D6FD73E6FA21890003F00D
:102EC0000FFC0500E6E51C9B9A461D4806F0A2F99A
:102ED000BFE51C9B00219A4613001A48220006F009
:102EE00099F9129A1B99184806F094F9012233684F
:102EF000A0209A401549C0054250154A80219446A9
:102F00009B01634449041A680A42FCD101210B4A1F
:102F100013688B43136053461B78012B00D0A2E546
:102F2000C0E41C9B01219A46D6E71C9B02219A46CD
:102F3000D2E71C9B03219A46CEE7C04600002050F2
:102F4000B0B50010F8B50010D8B50010440400006A
:102F50000C0000501D9B9B461C9B1B78012B00D135
:102F6000A2E4FFF791F89FE462681A420CD10021B5
:102F700006E6626802211A4200D101E60AE66268AA
:102F80001A4205D10121FBE51C9B00219A469CE7D2
:102F90001C9B01219A4698E7F0B54546DE46574608
:102FA0004E46E0B59846C04B14001B788DB0002B00
:102FB00008D1002630000DB0F0BCBB46B246A94691
:102FC000A046F0BD00230793E0230007DB0518406F
:102FD0004346DB05DB0D1843B44B49021940084357
:102FE00088210906014307AA3520FFF7DBF9061EF1
:102FF000DFD0079BC0221900120211408A461342FB
:10300000D7D10120AA4B196881431960A9490491BD
:10301000097803295CD04725196881431960A649BE
:10302000A6489964A649D964A6491965A64959656F
:10303000A6499965A649D965A6491966A64958665B
:103040009966DD6618675967A44999670A21D967A7
:1030500076315A50A24BEC211868C023DB020A9348
:10306000A04B89050B93A04B099304F07DF9071C35
:1030700004F0C0F985B20023002D0ED0280004F022
:1030800091F9011C381C04F06CF98721C90504F082
:1030900082F904F0AFF9C3B21B022D041D43089559
:1030A00001250022002108AB814806F01DFA042307
:1030B000042200217E48009506F0BCF9012302227B
:1030C00000217B48009506F0B5F90323049A13709C
:1030D000864B200019000393FEF7EAFD4346002BC0
:1030E00000D1D1E0802292002300944663440293F1
:1030F0007F4B01259B466E4C7E4F05962368102220
:10310000AB43236080231B063B603B607A4B00216E
:103110001A60674804230C3A009506F08BF9D8230F
:103120000022E2505B461968744BC802184019230C
:103130001843A023DB059C46534683262B40B6004C
:103140005B423340039E8A016244B4466344136089
:103150006B4B53608323936010618022256352027E
:1031600063681342FCD1674BA02223612B008B4084
:1031700019008623D205DB00D15023682B4323603E
:10318000012353449946434570DB02F0E3FE0029D6
:1031900066D0FA220023920003F0E0FA0600236BC7
:1031A0001D424ED102F0D6FE00293FD0FA22002364
:1031B000920003F0D3FA544B801B9842EFD95B4640
:1031C00019680123A0208B40504AC0058350504B02
:1031D00080229C4689010818520461440B681C0037
:1031E00014401342FAD10122314D2B6893432B60D6
:1031F000D4230169EB58FE32C9011A40C90F454872
:1032000006F008F842465146434806F003F8042306
:10321000042200212800009406F00CF9049B1B787E
:10322000012B00D1C5E6FEF72FFFC2E6FA21890087
:1032300003F056FA344B801B9842C0D8236B1D42D2
:10324000B0D08022920094462368AB432360029B57
:10325000634402934B469BB2984514D9CA464DE746
:10326000FA21890003F03CFA060098E7190083234D
:1032700029409B0049421940039B02989C466144A7
:10328000FEF716FD81E7059E00230422009300212E
:103290000433074806F0CEF8049B1B78012B00D1BD
:1032A00088E6FEF7F1FE85E627A4012000FEFF0375
:1032B0000000205026A40120A080000042A10000B0
:1032C00027A00000606000000461000043110000BE
:1032D00080E000002FE0000042B10000CE100000AE
:1032E000A00F00208408403000E0000400A001206E
:1032F000A40F0020D010205000202050FD7F00FFA0
:1033000010002050110400001027000044040000A9
:103310000C0000504CB6001080B6001010B51A4BCF
:1033200082B01B78002B2CD00621022001F08EFEEB
:103330000621032001F08AFE0621042001F086FE0A
:103340000621052001F082FE0621062001F07EFE06
:103350000621072001F07AFE0124F8220B4B002100
:103360001A600B480123F63A009406F063F8012333
:10337000032200210648009406F05CF80022054B69
:103380001A7002B010BDC04627A40120382020507A
:103390000000205026A40120F8B50D4D2B78002BFD
:1033A00002D100242000F8BD0A4E0B48318805F0F8
:1033B00031FF3088FFF73AF9041E05D1074805F0C0
:1033C000A5FE2C703480ECE7054805F09FFEE9E788
:1033D00020A401201AA40120A0B60010E8B6001015
:1033E000D0B6001070B582B00021052001AAFEF70A
:1033F000D9FF002802D1002002B070BD01A8FFF75C
:10340000B5F80028F7D02C4D0199280005F002FFEF
:10341000142002F089FC0021032001AAFEF7C2FF5C
:10342000002841D10024254E300005F06FFE01A890
:10343000FFF79CF8002810D00199280005F0EAFE5B
:103440001E2002F071FC0021032001AA0134FEF7C6
:10345000A9FF002820D1032CE6D1194805F056FE1B
:10346000FEF7A6FE022002F05FFC0021032001AA65
:10347000FEF798FF002808D10121124805F0CAFE86
:1034800001252800FFF7D2F8B6E7019D0E482D0C64
:10349000290005F0BFFEF4E7019D22002D0C290054
:1034A0000A4805F0B7FEECE7019D09482D0C2900FC
:1034B00005F0B0FEE5E7C04618B700103CB70010B5
:1034C00064B70010B4B7001090B7001000B8001037
:1034D000ECB7001000487047A8BF001000487047C4
:1034E00088BF001070B5002821D0032825D8144BC0
:1034F0008000C558280007F055F904001F2812D88D
:10350000002807D000230F4AE95C01331180023202
:10351000A342F9D3C023013464009B0023430A482B
:103520009BB2038070BD1F240028EBD1F2E7074B4C
:1035300005484380063BFF3BF3E70020F2E7C04627
:1035400074BF00100A1600200816002009040000AD
:10355000F0B5D6464F46464604008C469A46C0B55E
:10356000002A00D1C6E19046704B0E0019689946BA
:103570008044002900D1D7E16D4D2F002A0000239F
:10358000107A002806D01068A04203D85068A042E4
:1035900000D3D3E001330C328B42F1D15346002BE0
:1035A00000D098E161462000FDF752FF002812D0BC
:1035B00080239B009C4601346644444500D199E138
:1035C0004B461968B4460029D6D161462000FDF764
:1035D0003FFF0028ECD15749554D2200564805F0D1
:1035E00019FE4B461E68002E00D1ECE12B00002294
:1035F000671C197A00290DD018685968A04202D8B2
:10360000A14200D38DE00131A14200D196E1B84240
:1036100000D18EE101320C33B242EAD12B7A002B79
:1036200000D102E2012E00D197E12B7D002B00D1C9
:10363000F1E1022E00D190E12023EB5C002B00D1C0
:10364000F1E1032E00D188E12C23EB5C002B00D1AB
:10365000E7E1042E00D180E13823EB5C002B00D1A0
:10366000DDE1052E00D178E14423EB5C002B00D195
:10367000D3E1062E00D170E15023EB5C002B00D18A
:10368000C5E1072E00D168E15C23EB5C002B00D183
:10369000BBE1082E00D160E16823EB5C002B00D178
:1036A000B7E1092E00D158E17423EB5C002B00D167
:1036B000CAE10A2E00D150E18023EB5C002B00D13F
:1036C000C0E10B2E00D148E18C23EB5C002B00D134
:1036D000B6E10C2E00D140E19823EB5C002B00D129
:1036E000ACE10D2E00D138E1A423EB5C002B00D11E
:1036F000A2E10E2E00D130E1B023EB5C002B00D113
:1037000098E1102E00D028E1BC23EB5C002B08D1FF
:103710000F335A00D31801229B00EC50EB185C6069
:103720001A72FDF7A1FD0120E5E0C0467498002063
:10373000B497002060B8001090B800105346002BDA
:1037400000D1E3E061462000FDF7F4FE002800D13F
:1037500047E72100BD4805F05DFD4B461A68002A89
:1037600000D1F1E00023397A002900D1ADE03968B9
:10377000A14200D9A9E07868A04200D2A5E0814228
:1037800000D1B0E0A14200D1BAE0A04200D1C3E034
:10379000297A002900D114E1012A00D10DE1297D07
:1037A000002900D10BE1022A00D1FEE02021695C52
:1037B000002900D1FBE0032A00D1FAE02C21695C4A
:1037C000002900D1F7E0042A00D1CCE03821695C5F
:1037D000002900D1DBE0052A00D1DAE04421695C50
:1037E000002900D1D7E0062A00D1D6E05021695C3B
:1037F000002900D1D3E0072A00D1D2E05C21695C26
:10380000002900D1CFE0082A00D1DEE06821695C00
:10381000002900D1DBE0092A00D1DCE07421695CD9
:10382000002900D1D5E00A2A00D1DCE08021695CC2
:10383000002900D1D5E00B2A00D1D0E08C21695CB1
:10384000002900D1C9E00C2A00D1DCE09821695C94
:10385000002900D1D5E00D2A00D1D0E0A421695C77
:10386000002900D1C9E00E2A00D1C4E0B021695C72
:10387000002900D1BDE00F2A00D1B8E0BC22AA5C2B
:10388000002A00D1B1E0013480239B009C466644AD
:1038900044452FD04B461968B446002900D06CE649
:1038A00061462000FDF746FE002800D1BFE08023DE
:1038B0009B009C4601346644A0451BD04B461968CA
:1038C000B446002900D057E6EAE701330C379342AB
:1038D00000D048E7D7E761462000FDF72BFE00281F
:1038E000D1D15B4979E65A00D31800229B00EB182E
:1038F0001A72C8E70020E0BCBA46B146A846F0BD3F
:103900005A00D3189B000134EC50BDE72100514808
:1039100005F080FC0120EEE75A00D3189B00621EE0
:10392000EB185A600134AFE75346002B00D139E65B
:10393000B6E753009B189B00EC50F2E653009B182F
:103940009B00EB185C60ECE680239B009C460134F6
:103950006644A045CED0B446A2E7731C4A46136025
:1039600073009B19D7E605214F46396051008A182C
:103970009200611CA950AA185060012010725A00D0
:10398000D3189B00013CEB185C600C007CE7042220
:10399000ECE70621E8E70522E8E70721E4E706224D
:1039A000E4E70821E0E70722E0E70321DCE7022261
:1039B000DCE70421D8E70322D8E70221D4E701227B
:1039C000D4E70022D2E70123C8E70921CCE7082287
:1039D000CCE70922CAE70A21C6E70B22C6E70C2179
:1039E000C2E70A22C2E70B21BEE70F32BEE7102171
:1039F000BAE70E22BAE70F21B6E70D22B6E70E218D
:103A0000B2E70C22B2E70D21AEE7072381E60623D9
:103A10007FE608237DE601237BE6052379E6042380
:103A200077E6032375E6022373E6002371E608496F
:103A3000094DD2E50E236CE60D236AE60C2368E6F9
:103A40000B2366E60A2364E6092362E6B0B8001099
:103A500058B8001068B80010B4970020F0B5C646FA
:103A60001D4B00B51A78002A02D180BCB846F0BDC3
:103A70000022D02480251A70184F194B194E2406A5
:103A80002D03A5611A00397830689846FDF7E2F9F0
:103A9000002801D06561E8E73A683168124805F00E
:103AA000B9FBFDF7E1FB012341463A683068FFF7B7
:103AB0004FFD65610028D8D080253A683168AD0295
:103AC0000A4805F0A7FB5020656102F02DF901229C
:103AD000074BA5611A70C8E72AA40120F89F0120AE
:103AE000F81F0120FC9F0120DCB8001020B9001055
:103AF00029A40120F0B5CE46474680B583B0040026
:103B000002F028FA00290FD0FA220023920002F0D6
:103B100025FE5F4E5F4F30603B78002B0ED103B027
:103B2000C0BCB946B046F0BDFA21890002F0D8FD0C
:103B3000574E584F30603B78002BF0D0210056484C
:103B400005F068FBFCF79EFED02380221B06520284
:103B50009A610A2002F0E8F801200021404205F0B5
:103B600033FF4E4805F0D2FAFFF7D8FB4C48FEF77A
:103B7000EBFBFFF711FC002815D1642405E064304D
:103B8000013C02F0D1F8002C6ED00120002140420F
:103B900005F01AFFFFF7C2FB4148FEF7D5FBFFF720
:103BA00021FC0028EBD06B46DC1D0023237002F0C3
:103BB000D1F9002952D0FA220023920002F0CEFD62
:103BC00005003F23984617E0FA220023920002F0F6
:103BD000C5FD401B1D281AD8220007210120FEF731
:103BE000F3FD002805D04246237899469343402BA5
:103BF0000FD0012002F098F802F0ACF90029E3D1CF
:103C0000FA21890002F06CFD401B1D28E4D92378BD
:103C1000994602F09FF9002935D0FA22002392003C
:103C200002F09CFD421B49461E4805F0F3FAD023E2
:103C300080221B0692029A61002301223B701A4BDC
:103C40001A701A4B1A7002F085F9002915D0FA2261
:103C50000023920002F082FD306060E7FA218900C3
:103C600002F03EFD0500ACE7114805F04FFAD02305
:103C700080221B0692025A6151E7FA21890002F064
:103C80002FFD30604BE7FA21890002F029FDC9E7DA
:103C9000C49F002028A4012050B9001078B900105A
:103CA00000007A4298B90010A80F002024A4012037
:103CB000C0B90010F0B557464E464546DE46E0B561
:103CC00087B09A46019180230121814688469B0056
:103CD0009A4206D380239B029A4200D39CE0530A67
:103CE0009846FFF7BBFE7E4B1B78002B03D07D4B25
:103CF0001B6899450ED3002321220521002000F0E6
:103D000093FC0120404207B0F0BCBB46B246A94636
:103D1000A046F0BD4A469B1A4345ECD35346002BC0
:103D200000D18DE07048FFF7E5FE704B1B78002B4B
:103D300000D0CEE001226E4B52421A606D4B1A60E9
:103D4000D02380221B0612039A616B4B049300233D
:103D500000260293694B9B46694B0593644B039382
:103D600043469D1B402D00D94025019A77023B0018
:103D70009446634400934B469C195B4618680028A0
:103D80000FD000225F4B6719197A002905D01968F6
:103D90008F4202D959688C4220D901320C338242B9
:103DA000F2D15346002B3AD1039B1B685A1C06D014
:103DB0009C4204D31900621940318A4237D920004D
:103DC000009AE9B2FCF77AFF002814D12B002200F8
:103DD0000499059805F01EFAFDF746FA53462A00A5
:103DE00020000099FFF7B4FB029B9C468444634685
:103DF0000293002802D176194645B1D3D024534608
:103E00002406002B2BD080231B036361029B002B15
:103E10004BD14346580276E7FF23984661E72000DE
:103E2000009AE9B2FDF716F80028E4D1CEE7E11ACE
:103E3000354B490200986A02C91803F059FBDAE7CA
:103E40003248FFF757FE294B1B78002B41D1D02376
:103E500080221B06D2029A612D4B049377E78023C0
:103E6000DB026361029B002B0BD14A46294B424483
:103E70001968494501D01A60CBE71E491A600A60EB
:103E8000C7E7802542464946029BAD02224805F01D
:103E9000C1F95020656101F047FF00231122032181
:103EA0001800A56100F0C0FB2BE78025424649467B
:103EB000029BAD02184805F0ADF95020656101F094
:103EC00033FF00230C2203211800A56100F0ACFB96
:103ED00017E7012304220221002000F0A5FB10E7D0
:103EE00021A40120B4990020CCB0001028A4012006
:103EF000B40F0020B00F002058B8001074980020B4
:103F0000E0B90010B4970020E09F002008B0001036
:103F100060B80010AC0F002024BA0010014B1868E4
:103F20007047C046C49F0020044B1B78D8B2002BBA
:103F300002D0034B1878C0B27047C046A80F0020CB
:103F400024A40120014B1878C0B2704728A4012096
:103F500010B5FFF783FD104805F0D8F8FDF75EFBBC
:103F6000322001F0E1FEFEF78BFC002810D1022088
:103F700001F0DAFEFCF792FCD02380221B065202ED
:103F80005A610022054B1A70054B01321A7010BDA0
:103F9000044805F0BBF8EAE764BA0010A80F002057
:103FA00028A401208CBA00100D4B10B51860012315
:103FB0000C4A13700C4A13700C4A137001F0CAFFBC
:103FC000002907D0FA220023920002F0C7FB084B19
:103FD000186010BDFA21890002F082FBF7E7C046A5
:103FE000B499002021A40120A80F002024A40120BE
:103FF000C49F0020F0B5C64600B58AB08C4602A921
:1040000098460B00124C170024CC24C3227805AD2F
:104010001A702B000F4C45CC45C3226860461A60CD
:1040200022791A710C4B6A460093002313710822FF
:1040300003F05EFA29001022380003F059FA042236
:104040006946404603F054FA0AB080BCB846F0BD59
:10405000A8BA0010B4BA001030313030F0B5C646FE
:104060001D4B00B51A78002A02D180BCB846F0BDBD
:104070000022D02480251A70184F194B194E24069F
:104080002D03A5611A00397830689846FCF7E2FEE6
:10409000002801D06561E8E73A683168124805F008
:1040A000B9F8FDF7E1F8012341463A683068FFF7B7
:1040B0004FFA65610028D8D080253A683168AD0292
:1040C0000A4805F0A7F85020656101F02DFE012295
:1040D000074BA5611A70C8E72AA40120F89F0120A8
:1040E000F81F0120FC9F0120DCB8001020B900104F
:1040F00029A401201D4B70B51C68621C31D01C4ADC
:104100001278002A2DD01B4A1278002A29D11A4E83
:10411000013A1A6033689C4223D02500174B403582
:104120001B689D421DD8164B186800280ED000222F
:10413000144B197A002905D019688D4202D95968A3
:104140008C420ED901320C338242F2D1012340213C
:104150005B4220000C4A3360FCF7B0FD002801D020
:10416000346070BDFDF780F8FBE7C046B00F00205B
:1041700021A4012028A40120B40F0020B49900201C
:1041800074980020B4970020E09F0020014B18781D
:104190007047C04621A40120034B1B680B6080239D
:1041A0009B0013807047C046B499002070B5002B67
:1041B00001D0002A01D0012070BD164804F0A6FFEE
:1041C000154C2378002BF6D0144D2B78002BF2D110
:1041D000FFF744FC124804F099FFFDF71FFA322064
:1041E00001F0A2FDFEF74CFB00280ED1022001F0E9
:1041F0009BFDFCF753FBD02380221B0652025A6121
:104200000023237001332B70D5E7064804F07EFFAE
:10421000ECE7C046C8BA0010A80F002028A401206F
:1042200064BA00108CBA001070B51E00049B050023
:10423000DC05E40D0800144311001A00002C04D121
:1042400000233100FFF736FD70BD064804F0E2FFA1
:10425000002324220521280000F0E6F90120404235
:10426000F2E7C046E0BA0010F0B5C64600B51D0042
:10427000069B0F00DC05E40D06001100144322D15B
:10428000FFF7ECFB424B1A78002A65D18022414BA4
:1042900006991B789200914224D380229202914287
:1042A00062D24A0A9046002B06D03B4B1B689F42C5
:1042B00002D2DB1B43455AD20023212205213000C4
:1042C00000F0B2F909E01A00344804F0A3FF00231B
:1042D00024220521300000F0A7F90120404280BCD3
:1042E000B846F0BD002BE7D02B4B1B689F42E3D2B2
:1042F000012398462A4B196800290FD04246294BC2
:10430000B8181A7A002A05D01A68904202D95A6859
:1043100097422FD901340C338C42F2D12248FFF757
:10432000E9FB224B1B78002B2BD10122204B524260
:104330001A60204B29001A6043465C0222001E4886
:1043400003F0D6F842461D4B20001F601C4B1A603C
:1043500001221C4B1A70C2E71C700C22002303219F
:10436000300000F061F9B8E7FF2290469BE7434632
:10437000402BBFD9012329003800069AFFF79AFC89
:10438000ADE7012304220221300000F04DF9A4E73B
:1043900029A4012021A40120B49900200CBB001005
:1043A00074980020B4970020CCB0001028A40120FD
:1043B000B40F0020B00F0020F81F0120FC9F012047
:1043C000F89F01202AA40120F8B5CE46474680B5C3
:1043D00009780400352901D091295FD1344B1A782E
:1043E000002A1BD1334B1A78002A4CD1324B1B7850
:1043F000002B04D10020C0BCB946B046F8BD2F4BFD
:104400001B78002BF6D1FDF77DF90028F2D10023AF
:104410000C220321200000F007F93CE00022D02507
:104420001A708026264B274F99462D06264B3603B9
:10443000AE614A46197838689846FCF70BFD0028AB
:1044400001D06E61CEE7434639681A681F4804F010
:10445000E1FEFCF709FF434649461A683868012324
:10446000FFF776F86E610028BCD0434680261A68B4
:104470003968B602164804F0CDFE50206E6101F096
:1044800053FC0C4BAE61002203211A702000002364
:104490000C3200F0C9F801204042ACE70D4804F0AE
:1044A000B9FE002320220521200000F0BDF8F2E72C
:1044B0002AA4012029A40120A80F002028A401205B
:1044C000F81F0120FC9F0120F89F0120DCB800109C
:1044D00020B9001038BB0010012070472C2270B5A5
:1044E000302402250F4B995499689A6B1D558A1AEE
:1044F0009A620C341C5D002C03D10B4D9D873E2528
:104500005C55002908D0002A06D01A7BD20904D0B5
:104510002E22995C05F0BAFE70BD2F22995C05F041
:10452000B5FEF9E74C96002005200000F0B547469F
:10453000CE4680B5394C0600A368E18A984687B01C
:10454000002957D049BA89B2180002F0C9F801040D
:10455000090C2369257D1B0A2D061D43A36B2DBA6B
:104560001800994602F0BCF843460A0041194D462E
:104570005B1B80252A4F607B2D02AB4200D92B00AC
:1045800000933B00FFF750FE031E18DB2E22A15CB8
:10459000002809D083B23A00300005F043FE07B08E
:1045A000C0BCB946B046F0BD03A8273A017100214E
:1045B000067042704371836006F022FAEFE73C23F5
:1045C000E35C002B18D02C230122E254A268A36BD9
:1045D000D31A30210220A3626054002ADFD0002BBE
:1045E000DDD0237BDB0912D02E233000E15C05F007
:1045F0004DFED4E70021ACE70A4AA2873E22A3542D
:104600002C233D3AE254A268A36BD31AE1E72F238F
:104610003000E15C05F03AFEC1E7C0464C96002050
:104620004C160020023A000010B53C240348015506
:104630003D2142543E228354012010BD4C9600205F
:1046400010B540220021024802F04CFF10BDC046C8
:104650004C96002010B540220021024802F042FF93
:1046600010BDC0464C96002030B54B79040083B095
:10467000082B02D18B79062B02D0002003B030BD6D
:10468000CB79502BF9D1162AF7D98A780E4D233BD6
:10469000EA540B780222C9182B002E3301932B0009
:1046A0002F330093022305F06FFD0028E5D030235F
:1046B0000022EA54013BE95C2000044A103B05F06B
:1046C000B1FD1720DAE7C0464C9600204C160020BA
:1046D000F0B50500140083B0012901D0012018E0D5
:1046E0007F2312781340022B15D060231340202B18
:1046F0000ED16378FE2B3DD0FF2B09D1E378A27851
:104700001B02134304D1E379A2791B02134351D056
:10471000002003B0F0BD6378012BE6D1E378A278E6
:104720001B021343F4D130222179384CA35C042BB3
:1047300067D02E20205C88424DD02F22A65C8E426E
:10474000CCD1002BCAD13100280005F091FD002802
:10475000C4D13100280005F0B5FD0028BED13023BA
:104760000022E254013BE15C2800294A103B05F09D
:1047700059FDCEE7E378A2781B021343C8D1E37951
:10478000A2791B021343012BC2D16A46D371214B7C
:10479000D61D002B1DD000E000BF0028B8D0013886
:1047A000C0B23070012332002100280005F0AEFDB8
:1047B0000120AEE73021154A2800535400215363ED
:1047C000936393873E33D154210005F089FD012086
:1047D0009FE70020E5E7022B00D07FE7A16BA368ED
:1047E0005B1AA3620323A354094A20341300C2CCEA
:1047F000C2C32178197001000D23280005F012FDB5
:1048000087E705F043FD012083E7C0464C96002072
:104810004C16002000000000F0B54E46DE4657461C
:104820004546E0B51F003023B64C8346E65C99460A
:1048300091B0012E79D0032E54D0002E4ED1013BE1
:10484000E35C8B424CD11F2F00D0AFE0AE4B9A46B9
:104850005246AE4B12689A4200D0A7E0230052465F
:10486000A1CAA1C3A1CAA1C310681860908898808A
:1048700092792C209A71A64B4A462362636826548B
:1048800063620123A354E27BA368A6626363A66309
:10489000282A00D1E9E02A2A00D105E3002B00D123
:1048A00029E1207BC00900D025E180221202934239
:1048B00000D836E32C22A36230230130A0542A3AD8
:1048C000E2540C33E35C002B03D1924AA2873E22D0
:1048D000A354584605F0DAFC3023E65C022E3FD0A4
:1048E00001205CE02E23E35C8B42F9D10D2FF7D140
:1048F000E37B282B00D1B9E22A2B00D1AEE2864B14
:10490000002B04D02100607B0F3100E000BF0023AA
:104910003026A3552F33E15C58467B4A103B05F007
:1049200081FC00284FD0A65DD8E7A26BE37B9046C0
:10493000282B0CD02A2B5DD03B00227B4344616B9B
:10494000A363D20946D08B4207D2012027E0636BD4
:104950004744A7639F4200D282E030230222E25400
:104960002E265846A15D05F0ADFC0028B8D1A368FD
:10497000A26BA15D934202D9207BC00925D19B1A6D
:10498000A36203223023E2545F4A20341300C1CCD7
:10499000C1C3207818700D23584605F043FC11B0B0
:1049A000F0BCBB46B246A946A046F0BD3023042267
:1049B000E254023BE15C584605F068FC2F23584660
:1049C000E15C05F063FC0020E9E7584605F05EFC79
:1049D0000120E4E78BB221004B4A607B0F31FFF7E7
:1049E000F3FC002800DAFAE1A26B636B9A4200D272
:1049F00072E7B2E7E38A002B00D1EEE15BBA99B22D
:104A0000A06801F06DFE0104090C2269237D120AE1
:104A10001B06134340461EBA01F062FE3A4B0A00E1
:104A20008119607B00979A46FFF71EFC00283DDB4A
:104A3000874200D8F2E13F1A002800D065E22F2318
:104A40005A46E35C07A80270037107220023002185
:104A500043714270876005F0D3FF3023E65C3DE789
:104A6000FFF764FD4B46E65C38E7E28A002B00D195
:104A7000A3E1267BF60900D18AE2002A00D034E2C5
:104A80002C220120A3623023A0542A3AE2540C3392
:104A9000E35C002B07D11F4AA2873E22A354237B4D
:104AA000DB0900D115E72E23E15C12E73C22A36B62
:104AB000FB18A363A25C002A03D11849A1873E21F9
:104AC00062542C2201213026A1540221A268A15552
:104AD000D31AA362002A00D142E7002B00D13FE79E
:104AE000237BDB0900D146E22E235846E15C05F02A
:104AF000CDFBA65DF2E6677B252A13D80849920014
:104B00008A5897464C9600204C1600205553424335
:104B1000555342530520000000000000023A0000F7
:104B2000BCBF00103C22A25C002A00D040E238004A
:104B30005246D2499BB2FFF747FC071E00DA84E0D9
:104B4000002F32D1A368002B00D106E72C220121CF
:104B5000A154A26B01319B1A3022A362A1540C32E2
:104B6000A25C002A03D1C649A1873E216254002BD2
:104B700000D1F5E6237BDB0995D12F23E15CA8E684
:104B800006AE3200380007A9FFF706FB079B002B93
:104B900000D1E6E13288002A00D1E2E1514608273F
:104BA000013B1BBA12BA0B604A60A268002A00D00F
:104BB000C7E12C230132E254A36B01325B42A362B2
:104BC0003023E2540C33E35C002B00D0C8E6AC4A3F
:104BD000A2873E22A354C3E607AE0C220021300078
:104BE00002F080FC02AA94460E2363441A003800A7
:104BF00006A99946FFF7D0FA069A002A00D1B0E13B
:104C00004B461B88002B00D1ABE1082112BA5BBADE
:104C1000F1700892022273815346327283CE83C3AD
:104C20000C27C2E7974B002B8CD03800227DE17C0B
:104C300000E000BF002885D13C23E35C002B04D1B9
:104C4000914B0022A3873E23E2543C212C200126D5
:104C5000A368A26B615C9A1A26540430B619A2624A
:104C60002654002903D18648A0873E202154002BDA
:104C700000D175E6002A00D172E67BE7834B002B5A
:104C800000D15FE7E17C38008B07CA07DB0FD20F4A
:104C90000909FFF78BFA002800D053E7CCE73F2241
:104CA000637C00211A4007AB1800904618229946F1
:104CB00002F018FC764B002B06D03800FFF70CFCF6
:104CC00001234340DB01DEB24B464A469E7000237F
:104CD000D3704346082B00D1A3E104273F2B00D11A
:104CE0009FE14A467B1E137049463A00504602F047
:104CF000FFFB5AE7674B082207931F23202109A8CF
:104D0000089302F0EFFB102220210BA802F0EAFB2F
:104D1000614B380009A90F930BAA0FAB07AEFFF741
:104D200069F95246330083CB83C283CB83C283CBE2
:104D300083C2242739E70F2399464D462D33E35C80
:104D40003E261D403D2307A98846E35C00210293CF
:104D5000A25D40460392122202F0C4FB4146F023BA
:104D60000B704B462B408B700A23039ACB71029B2E
:104D70004A730B735246434623CB23C21968116012
:104D80009B889380454B002B00D151E18022380055
:104D90005146120200E000BF00230700A387A3557D
:104DA000984200DBCCE6677B636BC0E63800FFF718
:104DB000EDF9002800D0C5E63EE7002A00D1CCE599
:104DC00002232C22A3540022A2623032A3543A338D
:104DD000E35C002B00D0C3E5F9E6002115E62C23A7
:104DE00002214D46E654A06BA36861551A1AA262CF
:104DF0003A31615C002903D1214EA6873E26A15598
:104E0000002B6DD0002A6BD0237BDB0900D1B9E0E9
:104E10002E235846E15C05F039FAE5E5A36B626B99
:104E2000FB18A363934200D397E5194B002B05D0E1
:104E3000607BFFF751FB002800D1C2E0A26BA368A2
:104E40009B1A80221202934200D913002F22A15CE8
:104E50009BB25246584605F0E5F93DE5104B002B54
:104E600000D154E5607B00E000BF50E50D4B002B06
:104E700000D14CE5607B00E000BF48E55B96002078
:104E80000520000000000000023A0000AD410010C3
:104E9000D9440010008002022020202000000000E1
:104EA0000000000000000000E28A002B00D184E72F
:104EB000207BC00900D0A7E0002A00D08CE02C2085
:104EC0000126A362302326542A38E0540C33E35CD5
:104ED000002B00D0FDE4584BA3873E23E254DEE5CF
:104EE000636B834200D838E53AE552BA92B29342F6
:104EF00021D20222A3622C2030232254E2540C330C
:104F0000E35C002B00D0CAE5C5E50100A36B0204F9
:104F1000120C9B1850463A005144A36305F084FCE0
:104F20008DE5524658469BB205F07CF9002800D02A
:104F3000D2E4002033E55846FFF7F8FA3023E65C68
:104F4000CCE42E23E15C974200D917005246584624
:104F5000BBB2676305F066F9002800D0BCE400200E
:104F60001DE53C23E35C002B00D06EE6334AA287AC
:104F70003E22A35469E62F235846E15C05F086F9EA
:104F8000A65DABE42F235846E15C05F07FF92BE5E5
:104F90000222A3624B46E2543C232254E35C002BE2
:104FA00000D096E4244B0022A3873E23E25476E50A
:104FB0002C220121A15404320131A154A3621A0010
:104FC00055E61F4B0121A3873E23E0545846FFF7C7
:104FD00085FA3023E65C81E452BA92B2934288D3D8
:104FE000184A002A09D0607BFFF776FA0028E8D03B
:104FF000A26BA3689B1A2F22A15C8022120293420B
:1050000000D913009BB224E70222A3622C20302394
:105010002254E2540C33E35C002B00D13BE52E23F9
:1050200042E54A46084B182793800423937158E6BB
:105030001227A387A355B8E505200000023A000017
:1050400007270000D944001008120000094A830015
:105050009A1810B514684022544080322240064C01
:10506000C000A44663441A60044B9C4660444160FF
:1050700010BDC04604C0014004D0014000400140C2
:10508000074B8000C3181B68C90092000A435A40AE
:105090000C231340034A9446604403607047C046A3
:1050A00004C0014004D001400123D02283401206F5
:1050B00093629361094A83009A1811684022514013
:1050C00080320A400649C0008C4663441A60054B92
:1050D0009C460523604443607047C04604C00140BD
:1050E00004D00140004001408023DB051868000F18
:1050F0007047C0460FB400B5084883B004F006F806
:10510000049B002B07D005A91800019103F058FE5D
:10511000034803F0FBFF012003F06AFE5CBB0010B4
:105120002CB8001070B5EFF3108C72B60D4D2B68D3
:10513000002BFCD0BFF35F8F0724CB08C618C05CE0
:1051400001230C40A3401C000440034207D1184334
:105150003070BFF35F8F2C608CF3108870BD10002F
:10516000FFF7C8FF2C0100D0F8B54746CE46884669
:1051700080B5EFF3108C72B61C4D2C68002CFCD05F
:10518000BFF35F8F9A4222D807210126894602E0A9
:105190000132934218D34D4637001540AF40D40832
:1051A0000119045D2742F3D110003C430C70BFF39A
:1051B0005F8F00220D4B1A608CF3108800280EDBE5
:1051C000C0BCB946B046F8BD01204042EFE7BFF38E
:1051D0005F8F00232B608CF31088012040424346F0
:1051E000002BEDD00898FFF785FFC0462C0100D0BA
:1051F000044A1078431CDBB2172B00D9102313701C
:105200007047C046B80F002010B5064B064C82B060
:105210000100009318221F232000FFF7A5FF02B012
:1052200010BDC0466CBB0010809900200021044BCB
:10523000044ABFF35F8F02C39342FAD17047C0465E
:10524000000100D0800100D0054B064A1360064AD9
:10525000136053609360D36013615361936170472F
:105260008080808000E400E004E400E01F23184018
:105270001E3B8340002905D0C021044A49005350F9
:1052800013607047802201498B50FAE700E100E08B
:1052900070B50D00EFF3108672B60F4A1368002B3D
:1052A000FCD0BFF35F8F0D4B10309B6884001B59FF
:1052B0000B4A934203D09D4201D001F0BFF8074B47
:1052C0009B681D51BFF35F8FBFF35F8F0022024BBE
:1052D0001A6086F3108870BD240100D000ED00E054
:1052E000C1010010F0B557464E46DE464546E0B5D2
:1052F00085B0060000911700EFF3108B72B66A4A72
:105300001368002BFCD0BFF35F8F0025674B5D5700
:105310009A46002D00DAA9E06B00654C01935B19F9
:105320009B009846A146C1444B4652469B79103695
:105330001370604BB6009B6899590B1B2F2B33D908
:105340005D4B994200D0ACE0019B42469C465B4BD2
:105350006544AD0063535A4B0232A218043B9B1ABA
:105360001B05584A5B0D651913436B80564B012191
:10537000AB80FF23AB71009BEF71AB604B460B43DF
:1053800019004C4B9B689951BFF35F8FBFF35F8F40
:105390000022454B1A608BF3108805B0F0BCBB4669
:1053A000B246A946A046F0BD01200A008243D37947
:1053B0008C46BB4231D84546130044491B1B5B4118
:1053C0005943090D3D4B63533D4B02356519043B71
:1053D0005B1B1B053B4D5B0D2B43AA464D466B806B
:1053E0000425AC465546E044131F44441B1B1B05D3
:1053F0005B0D1D434B46997100999D80996049460C
:10540000DF71334B01431360BBE75800C0188000C5
:105410002018C179B9422FD902000623D356002B98
:10542000F3DA02932B4B61460393131D9A46042330
:105430005B429C46E14450464B461B1A1B055B0DE4
:105440009C46204B957198466346404603439380A3
:10545000019B5A199200039BA418A380029B1C4A2B
:10546000A371009B2260E771A3608AE700F0E6FF6A
:10547000002553465D574FE7908802934005131D62
:105480009A46031561469C464046D4446346043020
:105490002018181AE0230005400D1B021843039042
:1054A000C5E700F0CBFF4FE7240100D025A4012081
:1054B000BC0F002000ED00E0C101001000A1FFFFC3
:1054C000EC0F002000E0FFFF01BDFFFFAAAA0000D3
:1054D0000148804701BD0000F0B5DE4657464E4604
:1054E0004546E0B50C0083B0EFF3108872B6634A0E
:1054F0001368002BFCD0BFF35F8F614B61499A6842
:10550000030010339F00D55901938D4243D0A5422B
:1055100054D05D4EAA1B2F2A3DD85C4B9B461B687E
:10552000994601231A009C4682404B4613401F2295
:1055300099466346024093409A4680225B46504615
:105540009850BFF35F8FEFF305839B46002B37D056
:10555000019B5B4501D000F071FF01232A009A43B3
:105560009068844208D176E04B005B189B00F318EA
:105570009868844236D01A00062151560029F3DA81
:10558000844254D04B46002B27D0C02251463F4B7B
:105590005200995019603A4B9B68DD51BFF35F8F01
:1055A000BFF35F8F0022354B1A6088F3108803B079
:1055B000F0BCBB46B246A946A046F0BD0D00EAE7E6
:1055C0002A0063469A4390688442D5D1062010563B
:1055D000130000280ADA0D0031E0802351462B4ADF
:1055E000D150D8E706201856002821DB42001118B8
:1055F000890074188B46A1689960E179D9710621F8
:1056000061569971002924DBA488F11A64052415D8
:105610005C44091909051E4C490D21439980131852
:105620001C4A9B001178F31899711070AAE71300B7
:105630005946002914D1FF319171174991801549BC
:105640000A789A71154A9B1B5B415A43120D0A70E6
:1056500098E71149E2E70620105613000028C5DA42
:105660000F4A1049D21A083A5002400D014399805E
:105670000D4952080A43DA8084E7C046240100D06D
:1056800000ED00E0C1010010BC0F002000E100E0CF
:1056900000E0FFFF25A4012001BDFFFFAAAA000032
:1056A000F60F002000F0FFFF00F8FFFF70B50124A7
:1056B0000443EFF30581EFF3108C72B6214A1368AF
:1056C000002BFCD0BFF35F8F1F4B05001F4AED1A64
:1056D0006D416A43120D1E4D8900AE6852B2765874
:1056E000A6421CD00621595691421CD0122159566F
:1056F000914222D01E215956914220D02A2159563A
:105700000324914210D0134B19781A708171BFF3A2
:105710005F8F00220B4B1A608CF3108870BDAB6852
:105720000D4C5C50EFE700246100091989005B18FB
:10573000FF21997109499980E5E70124F4E70224E2
:10574000F2E7C046240100D0BC0F0020AAAA000046
:1057500000ED00E025A40120C101001001BDFFFF04
:10576000024B9C4661448900016070474000003450
:1057700070B5114C114DAC420FD2FF262368002B9F
:105780000CD0FFF735FD01002000FFF7E9FFA680F0
:10579000BFF35F8F0834AC42F0D370BDFFF728FD34
:1057A00001002000FFF7DCFF2671BFF35F8F083494
:1057B000AC42E3D3F1E7C04678100020801000200F
:1057C00010B50400FFF714FD01002000FFF7C8FF2B
:1057D000FF232371BFF35F8F10BDC04610B50400D7
:1057E0000120FFF711FD034BC3189B002360BFF39B
:1057F0005F8F10BD400000340A4B1968EFF3108032
:1058000072B60A68002AFCD0BFF35F8F1B68BFF333
:105810005F8F00221A6080F3108840BF00200021B3
:105820007047C046EC1F0120F0B5DE4657464E4695
:105830004546E0B587B0EFF30583032201251A4002
:10584000954091008846A946B34B03925C58B34BF0
:105850001D60B34B04934B46B24843630823E55E97
:10586000002D37DAA3881BB2002B00DBADE0A37953
:10587000002B00D0EEE00823E05E002820DB430090
:1058800062691B18DB00D3189E68DD68731C00D1A9
:1058900011E1A44801004144826A0B69B71A9B1ABE
:1058A0009F4215D30123026A039883401A420FD006
:1058B0009C4800F047FB8D4202DCCCD18642CAD91D
:1058C00040BF07B0F0BCBB46B246A946A046F0BDFB
:1058D0000E61EDE762696B0092465B19DB009A444A
:1058E00053469E68DF6800F02DFB8F42BADC00D182
:1058F00003E1002F00DAE8E05246534652691B6983
:105900009346049A934200D1D9E052460821605E42
:10591000528800045946104398470090019100991D
:10592000019A0B001000134300D1CEE013000A00CF
:10593000B61A9F41002806DB7A4800F003FB009E60
:10594000019F36184F4153469E60DF6000229A5EE9
:10595000002A00DA86E7530099186069C9004118E7
:1059600002938B68C9689B46B94200DD7AE702D191
:10597000B34200D976E708239C46A44405956546C2
:105980002281A446029B2C0006E053009918C9000E
:1059900041188D68C968AB469B18DB00C318B94233
:1059A00006DC00D1B3E01C000023E25E002AECDA42
:1059B000230064469C4653461A806346059D1D801D
:1059C000A3881BB2002B00DA51E72269EFF31081A4
:1059D00072B61368002BFCD0BFF35F8F0123A7883A
:1059E0005B42A3803FB22369BFF35F8F00221A603E
:1059F00081F31088002F00DA39E7230008332200F2
:105A00009A4666697B00DB19DB00F31899685046FB
:105A10008C460824115FDD68002910DB029306E044
:105A2000AB4244D00023E15E2000002906DB4C009D
:105A30006418E4003419E368AB42F1DD029B07808F
:105A400000201F5E1980002FDCDA1400A379002BE0
:105A500000D110E70023A37126000823E15E083679
:105A60004B1C00D12CE70800A246656902E03E000D
:105A70004B1C1AD04B005B18DB00EF180A008C4659
:105A8000E95E7B881BB2002BF1DA01235B42DC1755
:105A9000BB60FC60824205D0534631801B893B804D
:105AA00053461A8160464B1CE4D15446E5E6A36890
:105AB0006345B7D9C2E76B1C00D0EAE6F8E65B465F
:105AC00058461B69984700281BD153461B882269FA
:105AD0002381EFF3108372B611680029FCD0BFF365
