:020000041000EA
:1000000000B5324B212058609868022188439860DF
:10001000D860186158612E4B002199600221596106
:100020000121F02299502B49196001219960352056
:1000300000F044F80222904214D00621196600F024
:1000400034F8196E01211966002018661A6600F04E
:100050002CF8196E196E196E052000F02FF8012189
:100060000842F9D1002199601B49196000215960AB
:100070001A491B48016001219960EB211966A021F2
:10008000196600F012F800219960164914480160C1
:100090000121996001BC002800D000471248134993
:1000A000086003C880F30888084703B5996A0420EC
:1000B0000142FBD001200142F8D103BD02B5186610
:1000C0001866FFF7F2FF186E186E02BD00000240BE
:1000D000000000180000070000035F00212200005C
:1000E000F4000018222000A00001001008ED00E03C
:1000F00000000000000000000000000074B24E7A12
:1001000000200420F7010010CB010010CD010010E9
:10011000C9010010C9010010C9010010C901001077
:10012000C9010010C9010010C9010010CF01001061
:10013000C9010010C9010010D1010010D301001045
:10014000C1010010C1010010C1010010C101001067
:10015000C1010010C1010010C1010010C101001057
:10016000C1010010C1010010C1010010C101001047
:10017000C1010010C1010010C1010010C101001037
:10018000C1010010C1010010C1010010C101001027
:10019000C1010010C1010010C1010010C101001017
:1001A000C1010010C1010010C1010010C101001007
:1001B000C1010010C1010010C1010010C1010010F7
:1001C000EFF30580103800BE00BE00BE00BE00BECA
:1001D00000BE00BEF2EB8871D0BB0010F4BB001073
:1001E0003802001090A31AE71E481F49086006C88D
:1001F00081F3088810471D480068002801D019487D
:10020000F3E70DA40ECC002902D000F012F8F9E7B4
:100210001749184A002000E001C19142FCD116495B
:100220008847164988471649884700BEFDE701C937
:1002300001C29A42FBD37047F4BB0010C0000020FB
:1002400080100020B4CB0010000004200000042027
:10025000B4CB0010001004200010042000000000A7
:10026000704700000000000008ED00E0000000D032
:100270008010002024240120BD7B00107505001093
:10028000B57B0010F8B5C0460448054B10B5834255
:1002900003D0044B002B00D0984710BD80100020E5
:1002A000801000200000000006480749091A8B1042
:1002B000C90FC91810B5491003D0044B002B00D04A
:1002C000984710BD80100020801000200000000022
:1002D00010B5074C2378002B09D1FFF7D5FF054B4C
:1002E000002B02D0044800E000BF0123237010BDA2
:1002F000001400200000000070A30010054B10B592
:10030000002B03D00449054800E000BFFFF7CCFFF5
:1003100010BDC046000000000414002070A30010AF
:1003200070B58023D024802524069B0263616D0272
:100330009620A561400004F0D7FB9620656140003F
:1003400004F0D2FBF4E7C04670B50A2105F0A8F826
:10035000002405000A2004F0C7FB012000214042D0
:10036000013408F011FAAC42F4D170BD70B505004B
:10037000224807F0ABFD04F0CDFC002937D0FA226B
:100380000023920005F0CAF8060004F0C3FC00291F
:1003900020D0FA220023920005F0C0F8801BA8426A
:1003A0001FD202F0B9FF164801F0CCFF03F018F895
:1003B00000281BD10A240A2004F096FB012000210A
:1003C0004042013C08F0E0F9002CF4D104F0A2FC1A
:1003D0000029DED1FA21890005F062F8801BA842CD
:1003E000DFD32900074807F0F5FD002070BDFA2192
:1003F000890005F055F80600C7E7C04670A3001055
:1004000000007A428CA3001070B5494C4948A544BD
:10041000FFF7ACFF002818D1D024802524066D02F8
:10042000454807F053FD656100F036FA4348FFF791
:100430008BFF00F025FA4248A561FFF785FF414890
:10044000FFF794FF002800D167E03F4807F03EFD2A
:1004500080223E4C00219200200005F023FF200066
:1004600000F094FB051E55D07626200000F0D4FD48
:1004700062235E22A65BE35AA25A21880096A82630
:10048000334807F0A7FDA623A422A021A65BE35AC8
:10049000A25A615A009680262E4807F09BFDAE2393
:1004A000AC22AA217600A65BA25A615AE35A0196B1
:1004B000B226A45B2848009407F08CFD01F0CEF929
:1004C0000121002002AA00F0F7FB002815D12348E3
:1004D00007F0FCFC00240121200002AA00F0ECFB44
:1004E000012000214042013408F04EF9102CF2D1D5
:1004F000280082239B009D4470BD0821FF236A468B
:100500005B005218D35C1649552B08D0154807F0EC
:1005100061FDDCE7144807F0D9FC0025E8E76A46EE
:100520000820124B1218D35CAA2BEFD11049EDE72B
:10053000F8FDFFFF10270000ECA30010B80B00002F
:10054000E02E0000983A0000D4A30010C49D0020C3
:1005500030A4001060A4001090A40010D8A40010D3
:10056000C4A30010C8A4001018A40010FF010000CC
:10057000B4A30010F0B5DE4657464E464546E1218D
:10058000E0B50D2385B00C224902834807F0FCFD3D
:10059000642004F0A9FA814807F098FC804807F02D
:1005A00095FC804807F092FC7F4807F08FFC6A4674
:1005B0007E4BD02613CB13C2EB466C4601271B683B
:1005C0003606136020CC280003F04EFC3B00AB4005
:1005D0007362736104AB9C42F4D100F025F9744856
:1005E000744907F0F7FC80231B039946724BD02512
:1005F000002700269A462D066E4CA41B502C00D9CD
:1006000050244B466B618023DB026B6180239B028D
:100610006B6180235B02380007216B6198460137CC
:1006200004F03EFF052959D8534689005B589F4680
:1006300080239B02AB61200004F056FA5F4B361911
:100640009E42D9D9D024802324061B0363618026CF
:1006500080238025DB026D02B602636100216661A2
:100660000020656109F0AEFB554801F06BFE01F01A
:1006700025FE544807F02AFC6661656100F00CF91C
:10068000FA204000FFF760FE00F0FAF84E48A5613E
:10069000FFF75AFEFFF7B8FE002822D14B4807F0BB
:1006A00015FCFFF73DFE8023DB02AB6180239B023C
:1006B000AB61C0E78023DB02AB61BCE74B46AB61BB
:1006C0008023DB02AB61B6E74B46AB61B3E7802327
:1006D0009B02AB6180235B02AB61ACE74346AB613D
:1006E000A9E700235A46A66107210120137002F0F2
:1006F00069F8002838D05B463548197807F06AFC5D
:10070000344800F079FC0400C20A2100324807F0A6
:1007100061FC200003F018FA304807F0D7FB304E98
:1007200001200021404208F02FF803F067FA03F09F
:10073000CDF90028F4D004F0EDFA05000C1E18D015
:1007400003F0BEF9FA2207000023280021009200DE
:1007500004F0E4FE194BC11B9942E1D9300007F0C7
:1007600039FC03F0C7F9DBE71E4807F0AFFBFFF7E2
:10077000D7FD03F0A5F9FA2104008900280004F050
:100780008FFE0E4B011B9942CAD9300007F022FCA4
:1007900003F0B0F9C4E7C04600400340F0A40010E5
:1007A0001CA500103CA5001064A5001048B5001061
:1007B00090A500108813000030B5001087130000CA
:1007C00000004840ACA50010DC050000C8A50010E2
:1007D00008A60010C49D002028A600104CA60010FA
:1007E0005CA60010ECA5001010B503F06FF900280E
:1007F00003D003F079F9002803D0054807F066FB21
:1008000010BD044807F062FB03F074F9F8E7C04636
:10081000A8A6001088A6001010B5024807F056FBE5
:1008200010BDC046C4A6001070B50220D02503F04C
:100830001BFB04232D066B620320AB6103F014FB4A
:10084000082300226B62012103206B6103F0F8FA98
:1008500004240126200003F007FB3300A3402000FE
:1008600000220121AB62013403F0EAFA082CF1D135
:10087000092003F0F9FA80239B006B62AB6170BD25
:10088000D023802210B51B06920002485A6107F05F
:100890001DFB10BDD4A60010D023802210B51B066E
:1008A000920002489A6107F011FB10BDE8A6001003
:1008B00070B582B0050004F02DFA00292CD0FA2280
:1008C0000023920004F02AFE06006B46DC1D04F0B3
:1008D00021FA00291BD0FA220023920004F01EFE08
:1008E000801BA84210D20023220007210120237080
:1008F00001F068FF002808D023781A0705D45AB2FF
:10090000002AE4DBDB07E2D5002002B070BDFA214B
:10091000890004F0C5FDE3E7FA21890004F0C0FD79
:100920000600D2E770B582B06B46002604001500C1
:10093000DE710A0001200221073301F06FFF002859
:1009400002D1002002B070BD6B460321DE71012090
:10095000E2B2073301F062FF0028F2D06B46220AB0
:10096000DE7104210120D2B2073301F057FF0028C5
:10097000E7D06B46220CDE7105210120D2B207338D
:1009800001F04CFF0028DCD06B46DE71E023220131
:10099000120F1A436B4606210120073301F03EFF78
:1009A0000028CED06B462A00DE71072107330120D4
:1009B00001F034FFC6E7C046F0B585B000236A46B3
:1009C0009373D3730E336B4405000C001A00072198
:1009D000012001F0F7FE00283CD06B4601269A7BEF
:1009E00016420ED193063BD424490B0000912448B3
:1009F000290007F0EFFA2100224807F0EBFA05B0D2
:100A0000F0BD0F236B441A000121012001F0DAFE32
:100A100000281FD06B46997BDF7B0A000E408B06B7
:100A200029D4164B002E1CD0174A154800920A00F4
:100A3000290007F0CFFA7B0715D5144AFB0615D518
:100A4000134B790615D5134900911348390007F067
:100A5000C1FAD0E722002900104807F0BBFACEE720
:100A60000F4B0649C2E7054AFB06E9D4034B79065A
:100A7000E9D40249E8E70A4BD4E7C04658AA001077
:100A800048A70010F8A9001060A7001004A70010E4
:100A90000CA7001014A7001068A700101CA70010D6
:100AA00000A70010F0B5C64600B582B080460F0022
:100AB000150004F02FF900294DD0FA2200239200EE
:100AC00004F02CFD06006B46DC1D0023237011E0B2
:100AD000FA220023920004F021FD801B854214D9E4
:100AE00022000721012001F06DFE00280DD023789F
:100AF0007F2B19D904F00EF90029E9D1FA218900D8
:100B000004F0CEFC801B8542EAD8390042461D48DD
:100B100007F060FA41463800FFF74EFF0025280035
:100B200002B080BCB846F0BD00236A46072193712D
:100B300001202370063201F045FE051E11D06B46E0
:100B40009B79DA0713D421221A42E8D041463800B3
:100B5000FFF732FFE2E7FA21890004F0A1FC06006A
:100B6000B1E742463900084807F034FAD6E72200D8
:100B70000121012001F026FE0028F2D06B469B796E
:100B8000E1E7C0467CA70010A4A70010F0B54F46CF
:100B9000D64646460023C0B582B098466B46DC1D5B
:100BA0003D4B814600279A4604F0B4F8002935D021
:100BB000FA220023920004F0B1FC0500374E2770A2
:100BC00011E0FA220023920004F0A8FC401BB0427E
:100BD00014D822000721012001F0F4FD00280DD0D7
:100BE00023787F2B20D904F095F80029E9D1FA2148
:100BF000890004F055FC401BB042EAD9504607F08A
:100C000065F94346012B38D00121254807F0E2F968
:100C10000123984604F07EF80029C9D1FA21890001
:100C200004F03EFC0500C9E7230000220221012058
:100C3000277001F0F3FD002819D02300EC220721D2
:100C40000120277001F0EAFD002810D01548FFF7B9
:100C50002FFE00281CD001234A460021012001F06C
:100C600011FE051ECDD0104807F030F909E00F48FD
:100C700007F02CF94346012BC6D10D4807F026F9A1
:100C80000025280002B0E0BCBA46B146A846F0BD37
:100C9000084807F01BF9B4E7D0A700100F270000A1
:100CA00044A80010983A00002CA80010ECA70010EF
:100CB00060A8001014A80010F0B55746DE464E4656
:100CC00045460023E0B585B0994602ABDC1D002304
:100CD0009A46594B070088469B46019204F01AF841
:100CE000002955D0FA220023920004F017FC0500D9
:100CF0005346FA262370760011E0FA220023920070
:100D000004F00CFC401BB04214D222000721012049
:100D100001F058FD00280DD023787F2B1AD903F05D
:100D2000F9FF0029E9D1FA21890004F0B9FB401B41
:100D3000B042EAD34A463900584607F04BF94B46D1
:100D4000012B2BD1002005B0F0BCBB46B246A94612
:100D5000A046F0BD202241463800FFF7E3FD002801
:100D600051D0FA204001FFF7A3FD002842D04346AE
:100D700000210120019A01F085FD002852D0FA22BD
:100D800038002E49D200FFF78DFE0028DBD1D6E7D0
:100D9000FA21890004F084FB0500A9E73A0001214B
:100DA000274807F017F903F0B5FF002930D1FA21E1
:100DB000890004F075FB05000023237011E0FA227E
:100DC0000023920004F0AAFB401BC72827D822006A
:100DD0000721012001F0F6FC002820D023787F2B8A
:100DE0001DD903F097FF0029E9D1FA21890004F009
:100DF00057FBE9E73900134807F0ECF839000F48D2
:100E0000FFF7DAFD9BE739000F4807F0E3F896E7B4
:100E1000FA220023920004F081FB0500CCE70123B5
:100E200099465BE74146094807F0D4F83900034882
:100E3000FFF7C2FD83E7C04678A80010F0A80010B5
:100E400018A90010CCA80010A0A80010F8A8001045
:100E5000F0B55746DE464E4645460023E0B585B020
:100E6000994602ABDC1D00239A465A4B0700884680
:100E70009B46019203F04EFF002900D181E0FA2247
:100E80000023920004F04AFB05005346524E2370A3
:100E900011E0FA220023920004F040FB401BB04214
:100EA00014D822000721012001F08CFC00280DD06D
:100EB00023787F2B3FD903F02DFF0029E9D1FA21B8
:100EC000890004F0EDFA401BB042EAD94A463900E5
:100ED000584607F07FF84B46012B4AD03A000121D3
:100EE0003E4807F077F803F015FF00295DD1FA219D
:100EF000890004F0D5FA05000023374E237011E075
:100F0000FA220023920004F009FB401BB0425DD896
:100F100022000721012001F055FC002856D023783B
:100F20007F2B53D903F0F6FE0029E9D1FA2189007D
:100F300004F0B6FAE9E7302241463800FFF7F2FC48
:100F4000002824D02648FFF7B3FC002824D04346CD
:100F500000210120019A02F01DF800282CD0380051
:100F60002049214AFFF79EFD002803D14B46012B63
:100F7000B4D1002005B0F0BCBB46B246A946A0469D
:100F8000F0BDFA21890004F08BFA05007DE73900F5
:100F9000164807F01FF89EE73900154807F01AF8C1
:100FA00039001048FFF708FD95E7FA220023920068
:100FB00004F0B4FA05009FE741463A000D4807F0F7
:100FC00009F839000748FFF7F7FC84E70123994641
:100FD00050E7C04638A9001087130000E4A90010AC
:100FE00088130000B4A900101027000064A90010A5
:100FF00090A90010BCA9001079227823825CC35C00
:1010000012021A437A23C35C1B0413437B22805CC5
:10101000000618437047C046F0B5DE4657464E46B8
:1010200045460400E0B599B01522002107A805F057
:1010300039F90DAD0922002104A805F033F9292260
:101040000021280005F02EF9237E607E1B02804FD0
:101050001843E37E38401B041843A37E00021B069E
:10106000000A1843237F617F1B021943E37F394045
:101070001B041943A37F09021B06090A19432023F5
:101080002122E35CA25C1B021A432323E35C3A4067
:101090001B041A432223E35C12021B06120A1A43A2
:1010A0002423E35C0A921B029C4625236646E35CEC
:1010B00002AA334327263B402627A65DE75D360478
:1010C00033431B023F061B0A3B4394460B932723E3
:1010D000277D09913E02677D00213743E67D089018
:1010E00036043743A67D3F0236063F0A374307974B
:1010F000634400E013001A78202A04D107A819706D
:101100005A1E9842F6D12F23E35C02932E23E25C11
:10111000033316000392E25C013B9146E25C033329
:101120009046E25C013BE75C0333E05C013BE15C41
:1011300033024E463604B346029E94463343464637
:101140003606B2465E463343564633430604B3463C
:10115000664604933B0233430E06B2465E46334373
:101160005646334300220593202920D102ABDA737F
:1011700020281CD19A73202F19D15A736346202B33
:1011800015D16B461A754346202B10D102ABDA728B
:101190004B46202B0BD102AB9A72039B202B06D11E
:1011A00002AB5A72029B202B01D16B461A742200AB
:1011B0002B00363217A85178197011780232597005
:1011C00002339842F7D128230022EA5402AA944617
:1011D0002B330021634400E013001A78202A03D146
:1011E00019705A1E9D42F7D17823E25C0133E35C0B
:1011F00029001B0213437A22A25C164812041A43E8
:101200007B23E35C1B061343DA0A0192009307AACF
:1012100004AB06F0DFFE2200AA23AA325078E35C7A
:1012200000021843A423E15CA33B0A001A401942C0
:101230000CD0094901230340084806F0CBFE19B041
:10124000F0BCBB46B246A946A046F0BD0449F1E752
:10125000FFFF00FF14AA001008AA00105CAA0010EB
:1012600004AA0010F0B583B06B466A46DD1C00236B
:10127000137153712B706B46012205330621002038
:1012800001F0CCFA2A000721012001F09BFA2B780B
:10129000002801D0DA0731D45BB2002B01DB03B0A8
:1012A000F0BD674806F012FE03F034FD002932D08D
:1012B000FA220023920004F031F906006B46DC1D8F
:1012C0000023237011E0FA220023920004F026F993
:1012D000801B632825D822000721012001F072FA23
:1012E00000281ED023787F2B6BD903F013FD002933
:1012F000E9D1FA21890004F0D3F8E9E7012101AA34
:10130000012001F05FFA6B4629781A794D4806F002
:1013100061FE2B78C0E7FA21890004F0C1F80600CD
:10132000CCE701200021404207F02EFA464806F0A3
:10133000CDFD6B46002205330221002001F06EFA3C
:10134000052003F0D1FB01200021404207F01CFAE8
:101350006B46022202210533002001F05FFA03F000
:10136000D9FC002966D0FA220023920004F0D6F8B6
:1013700007006B469E1D0023337019E0FA220023FC
:10138000920004F0CBF8C01BC72825D832000321F7
:10139000002001F017FA002802D033789B071BD4F5
:1013A000052003F0A1FB01200021404207F0ECF9E9
:1013B00003F0B0FC0029E1D1FA21890004F070F8B3
:1013C000E1E701200021404207F0DEF92A00072171
:1013D000012001F0F7F962E703F09CFC002922D11B
:1013E000FA21890004F05CF806000023237011E064
:1013F000FA220023920004F091F8801BC728E0D85D
:1014000022000721012001F0DDF90028D9D023783E
:101410007F2BD6D903F07EFC0029E9D1FA2189007F
:1014200004F03EF8E9E7FA220023920004F076F88F
:101430000600DAE7FA21890004F032F8070098E79D
:10144000B0AA001088AA0010D4AA0010F0B5C646B1
:1014500000B582B00700884603F05CFC00294ED03E
:10146000FA220023920004F059F805006B46FA2690
:10147000DC1D0023F600237011E0FA220023920005
:1014800004F04CF8401BB04214D222000721012086
:1014900001F098F900280DD023787F2B13D903F0A1
:1014A00039FC0029E9D1FA21890003F0F9FF401B3A
:1014B000B042EAD339001A4806F08CFD002002B091
:1014C00080BCB846F0BD202201213800FFF72AFA7F
:1014D0000028F3D0FA204001FFF7EAF900281DD0D8
:1014E000012342460021012001F0CCF900280CD054
:1014F000FA2238000B49D200FFF7D4FADFE7FA21CD
:10150000890003F0CDFF0500B0E70748390006F079
:1015100061FD39000348FFF74FFACFE70348F5E7CD
:10152000F0AA001030AB001038AB00100CAB00106C
:10153000F0B5C64600B582B00700884603F0EAFB66
:1015400000294DD0FA220023920003F0E7FF0500A6
:101550006B46FA26DC1D0023F600237011E0FA2208
:101560000023920003F0DAFF401BB04214D22200A5
:101570000721012001F026F900280DD023787F2BC8
:1015800013D903F0C7FB0029E9D1FA21890003F040
:1015900087FF401BB042EAD339001A4806F01AFD13
:1015A000002002B080BCB846F0BD302201213800D6
:1015B000FFF7B8F90028F3D0FA20C000FFF778F958
:1015C00000281CD0012342460021012001F0E2FC4A
:1015D00000280BD038000C490C4AFFF763FAE0E70B
:1015E000FA21890003F05CFF0500B1E708483900E3
:1015F00006F0F0FC39000448FFF7DEF9D0E70548B3
:10160000F5E7C0465CAB00109CAB001088130000EF
:10161000A4AB001078AB001070B582B003F07AFB79
:1016200000292BD0FA220023920003F077FF050057
:101630006B46DC1D0023314E237011E0FA2200239B
:10164000920003F06BFF401BB04214D82200072128
:10165000012001F0B7F800280DD023787F2B13D993
:1016600003F058FB0029E9D1FA21890003F018FFA3
:10167000401BB042EAD9002002B070BDFA218900B7
:1016800003F00EFF0500D3E70023E02223700721BB
:101690002300012001F0C2F80028ECD003F03AFB4F
:1016A000002924D0FA220023920003F037FF05001E
:1016B0000023124E237011E0FA220023920003F05F
:1016C0002DFF401BB042D6D822000721012001F097
:1016D00079F80028CFD023787F2BCDD903F01AFBDF
:1016E0000029E9D1FA21890003F0DAFEE9E7FA21BD
:1016F000890003F0D5FE0500DAE7C0468713000035
:10170000F0B5C64600B5504B82B01F789846002F02
:1017100005D00127380002B080BCB846F0BD03F008
:10172000F9FA002926D0FA220023920003F0F6FEEF
:1017300005006B46DC1D0023444E237011E0FA22A5
:101740000023920003F0EAFE401BB042E2D82200E0
:101750000721012001F036F80028DBD023787F2B09
:101760000ED903F0D7FA0029E9D1FA21890003F054
:1017700097FEE9E7FA21890003F092FE0500D8E719
:101780000023E722237007212300012001F046F8FF
:101790000028BFD003F0BEFA002924D0FA2200238B
:1017A000920003F0BBFE05000023294E237011E0D8
:1017B000FA220023920003F0B1FE401BB042A9D8E8
:1017C00022000721012000F0FDFF0028A2D023788D
:1017D0007F2B0ED903F09EFA0029E9D1FA21890066
:1017E00003F05EFEE9E7FA21890003F059FE0500E7
:1017F000DAE76B469D1D00232A0007210120237094
:101800002B7000F0DFFF002800D183E701262B7842
:101810001E4200D17DE722000121012000F0D2FF0D
:10182000002800D176E7297822780E4200D170E7AF
:10183000530705D5074806F049FB43461E7068E785
:10184000054806F0C7FB65E71A240120871300004E
:101850000F270000C8AB001008AC0010F0B5DE4642
:1018600057464E464546E0B5734889B006F02EFB14
:10187000724806F02BFB724806F028FB48239B4673
:10188000704B17249A46704B704F9946BB446C447A
:101890003B787A6819005046984606F09BFB03F0A7
:1018A00039FA002936D0FA220023920003F036FEDE
:1018B00005000023664E237011E0FA2200239200F7
:1018C00003F02CFE401BB04214D822000721012057
:1018D00000F078FF00280DD023787F2B20D903F06B
:1018E00019FA0029E9D1FA21890003F0D9FD401B3A
:1018F000B042EAD9484606F0E9FA08375F45C7D151
:101900000A2006F099FA09B0F0BCBB46B246A946D7
:10191000A046F0BDFA21890003F0C2FD0500C8E72A
:1019200000252300424601210120257000F076FFAA
:101930000028DFD02300C22207210120257000F0FB
:101940006DFF0028D6D003F0E5F9002924D0FA2253
:101950000023920003F0E2FD050000233C4E2370BB
:1019600011E0FA220023920003F0D8FD401BB042A0
:10197000C0D822000521002000F024FF0028B9D0A3
:1019800023789B070ED403F0C5F90029E9D1FA2189
:10199000890003F085FDE9E7FA21890003F080FD65
:1019A0000500DAE706AD2A000121012000F00AFF58
:1019B00000289FD01922022101206A4400F002FF72
:1019C000002897D01A22032101206A4400F0FAFE71
:1019D000002800D18EE71B22042101206A4400F078
:1019E000F1FE002800D185E70521012007AA00F0BB
:1019F000E9FE002800D17DE71D22072101206A446D
:101A000000F0E0FE002800D174E7EB786978AA784E
:101A10002E796D799846E8070AD50E4B9C466346A9
:101A200001950293009643460B4806F0D3FA64E70B
:101A30000A4B9C46F3E7C04638AC00105CAC001083
:101A40009CAC0010BCAC001000AD001058B50010EC
:101A50008713000060A70010D8AC001058AA00102F
:101A600001211B4A30B51368A0258B4380211360E8
:101A7000184B0906196019601021174BED05196004
:101A8000D8230021AC46D150144B15491C68154D84
:101A9000E3020B4014491943A30163441D605860DD
:101AA0008020986019618021490253680B42FCD163
:101AB00082230121DB0013610B00A340A0201C0046
:101AC0008623C005DB00C45013680B43136030BD90
:101AD00000002050D010205000202050A40F0020E3
:101AE000FD7F00FF200020502900420080239B0042
:101AF0009C46F0B54E4657464546DE46844463460E
:101B0000E0B587B004930023029301930093664BE2
:101B100000269A4640239946303B98460C3B9C460B
:101B2000039605914F4605784478AE013E404746FE
:101B30002B09DB01334326013E406746817833435E
:101B40008E003E402027334366003E4033434E081C
:101B50003700082637403E001E43B34602265F4644
:101B6000C2780430D30833403B430127039E17401B
:101B70003B43DBB2370A7B4057465B00FB5A3602D9
:101B800020275E40B3B24E4603936B092740DB012A
:101B90003B436F01374046463B43E700374008264A
:101BA0003B438F08374066463B434F003740022691
:101BB0003B43170937403B43013E570837403B43FF
:101BC000009FDBB23E0A3F02BB46574673405B00B4
:101BD000FB5A5F467B4067464E469BB20093AB097B
:101BE0000F40DB013B432F0137403B4367083E007A
:101BF00020273E4033434646A700374008263B4354
:101C0000CF0837403B43063E570937403B43012747
:101C100096083E403343019EDBB2370A3602B34694
:101C200056467B405B00F35A5E4673409BB201937D
:101C3000E3095B019B465E46CB09DB0033437F270C
:101C40002E00BE433343D609760033434E46ED00A3
:101C500035401D43434664001C4063464908194013
:101C600001232C430C43D1081940029B21431A0A3B
:101C700051401A02534649005B5A53409BB20293AB
:101C8000049B984200D04DE70599009B039E4B8032
:101C9000019B0E808B80029BCB8007B0F0BCBB46C3
:101CA000B246A946A046F0BDA0B50010F0B5454625
:101CB000DE4657464E46E0B58DB005AB0C0080259C
:101CC000190098460700FFF711FF002200230F219B
:101CD000AD00BE581B0730BA00090343A350330EB2
:101CE00004320B40AA42F4D1019242460294D788B2
:101CF00096885288F81394464246158800229246E8
:101D0000F2139200C0001043EA1310436246D2134C
:101D100052001043020201209146BA130240D20041
:101D20009346B2130240920090465A4644462243DC
:101D30009046AA130240934642465C462243904690
:101D40006246921302405200934642465C4622434A
:101D500014047A130240D200934672130240920098
:101D6000904603945A464446224390466A130240E2
:101D7000934642465C4622439046624652130240D6
:101D80005200934642465C462243120690464A461B
:101D900013434246039C23431343079332133B13DD
:101DA000034002409200DB0013432A130240134316
:101DB00062461213024052009146F2120240920013
:101DC0009346FA120240D20090465A4644462243B5
:101DD0009046EA120240934642465C4622439046B1
:101DE0006246D21202405200934642465C4622436B
:101DF000120290464A46134342461A43BB1203401E
:101E0000DB00984691464246B31203409B001343C1
:101E1000AA12024013436246921202405200134338
:101E20001B0498464B464446954A134023437C1274
:101E30000440E400A14674120440A400A0464C46AD
:101E4000424614436A12A04614000440A146444688
:101E50004A46144362465212A046140004406200EF
:101E600044461B02144322061B0A13433212140079
:101E700008933B1204400340A200DB0013432A12E4
:101E8000140062460440121223431400044062000E
:101E90009146FA1114000440E2009346F211140036
:101EA0000440A2005C461443EA11A046140004401A
:101EB000A34644465A4614436246D211A046140033
:101EC0000440620044461443220290464A46444677
:101ED00013431C43BB110340DB0098464246B31139
:101EE00003409B001343AA11A1461400624604401C
:101EF0009211234314000440620013431B049846CC
:101F00004B465F4A1340424613437A110240D200C7
:101F10009046721102409200914642464C4622433E
:101F200090466A110240914642464C4622439046F2
:101F30006246521102405200914642464C461B02F4
:101F4000224312061B0A1343099332113B1103402B
:101F500002409200DB0013432A1102401A436346F9
:101F60001B1103405B009B46FB100340DB009846BF
:101F700091464246F31003409B001343EA1002408F
:101F800013436246D2100240520013431B0298468C
:101F90005A464B46134342461343BA100240D200FE
:101FA0009046B21002409200914642464C4622436F
:101FB0009046AA100240914642464C462243904623
:101FC0006246921002405200914642464C462243DD
:101FD000120413437A100240D2009046721002405D
:101FE0009200914642464C46224390466A10024077
:101FF000914642464C462243904662465210024069
:102000005200914642464C461B02224312061B0ACE
:1020100013430A9307AB9846634606400740B60051
:10202000FF003E4305401840430035431D434346EF
:102030001D74597482235246029C9B00E250043B5B
:10204000E2505346404600210F260725019AA3502F
:102050002F0002788F43BF003240BA40CB1080334C
:102060009B00E3181F6801313A431A6001301229BE
:10207000EED10DB0F0BCBB46B246A946A046F0BDBD
:10208000FFFF00FF012130B5404A414D136887B082
:102090008B4313602B78002B57D000233D493B4CDA
:1020A0001A00088812329200013310510231182BA5
:1020B000F6D1394BEC21186880239B020493374BEF
:1020C00089050393364B059304F02EF8051C04F0A4
:1020D00071F884B20023002C0ED0200004F042F8E6
:1020E000011C281C04F01DF88721C90504F033F8F1
:1020F00004F060F8C3B21B0224041C4302940124C0
:102100000621022001F082FE0621032001F07EFE5E
:1021100000220121032001F093FE0123022200216D
:1021200000941A4806F066F8012303220021009467
:10213000164806F05FF802AB00220021134806F0B3
:10214000B3F8184B1C7007B030BD0220053101F008
:102150005DFE0621032001F059FE0022012103202B
:1021600001F06EFE04242000062101F04FFE200045
:1021700000220121013401F063FE082CF3D1F82282
:10218000094B1A6001232B7087E7C04600002050DE
:102190001B240120A0B70010A00F00200070010335
:1021A000638811241E24012038202050F0B5D64623
:1021B0004F464646C0B5394B82B01B789A46002B35
:1021C00064D047236A46092000930023E846137130
:1021D000002147227F2507270126814602E040464D
:1021E000CA10825C3C008C43224198095B002B4062
:1021F0003240824202D04A465340DBB201312829A4
:10220000EDD101225B001343DCB2254B1B78012B7F
:1022100001D0FFF737FF01218020224A0006136812
:102220008B431360204B1860186010201F4B186000
:10223000D8231F48D0501F48D0500020D0501368DA
:102240000B4380211360490253680B42FCD180206C
:10225000194B14491361240440024A680242FCD11C
:102260008E23DB050B6180210E4E490272680A4203
:10227000FCD10120346102F037FC01223368934322
:1022800080223360084B12061A601A60504602B072
:10229000E0BCBA46B146A846F0BDC0461F240120A6
:1022A0001E24012000002050D0102050002020507B
:1022B00081E0000001E0000027002F00F0B51A4C7B
:1022C00085B02378002B01D005B0F0BD012006F0C9
:1022D00039F8164B00211860154805F073FF154BAF
:1022E0001B78012B01D0FFF7CDFE01232370124B89
:1022F0001D68281C03F064FF0F00812100230600E5
:10230000C905281C029303F026FF011C0B4803F0AB
:102310000EFF03F055FF0A4C0090019132003B0084
:10232000200005F057FECFE71F240120A40F002056
:10233000000020501E240120A00F00200000FA42BF
:10234000B8AD0010134B70B51860134B1B78002B01
:102350000FD0EC21890503F0E7FE051C03F02AFFEE
:1023600084B20023002C05D124041C43C8230B4A4B
:10237000D45070BD200003F0F5FE011C281C03F0B2
:10238000D0FE8721C90503F0E6FE03F013FFC3B2B8
:102390001B02E9E7A00F00201F24012000002050AD
:1023A000F0B5DE46574645464E46E0B5654B89B02A
:1023B0001F780D0093460490002F00D1A1E03F2626
:1023C000064040233100194308002B0E2A0C0193CC
:1023D00002921B02D2B27F2612040B43844613439F
:1023E00009222C0A039121060B43B14606A9783E27
:1023F000B04692460693624600230020AC460D711B
:10240000063E059401E0C2108A5C4D469C095B00C3
:102410002B40454685432A413240A24202D05246D3
:102420005340DBB201302828EDD101225B00134379
:10243000DBB298464B71444B65461B78059C012BDB
:1024400001D0FFF71FFE01218020404A00061368DB
:102450008B4313603E4B1860186010203D4B186092
:10246000D8233D48D0503D48D0500020D05013686C
:102470000B4380211360490253680B42FCD1384B57
:1024800080201361FF23019A234012041343029A10
:102490002D061206120C1343039A2C4916061E43EE
:1024A00043461B042B4340024A680242FCD1802071
:1024B0000E61264940024A680242FCD10B6102F0DB
:1024C00029FC002926D1FA21890002F0E9FF040045
:1024D0001E4D6B68DB052ED502F01CFC002920D0B8
:1024E000FA220023920003F019F8001B6428F0D9A7
:1024F00004991C4805F06EFD0121144A13688B43B2
:1025000013600027380009B0F0BCBB46B246A946AC
:10251000A046F0BDFA220023920002F0FFFF040063
:10252000D6E7FA21890002F0BBFF001B6428DFD840
:102530006B68DB05D0D45A462B6A002AE2D01360C0
:10254000E0E7C0461F2401201E2401200000205087
:10255000D01020500020205081E0000001E0000059
:1025600027002F00E8AD0010F0B5C646002300B5E7
:1025700082B08046019302F0CDFB002944D0FA22BC
:102580000023920002F0CAFF0400FA2500276D0024
:1025900002F0C0FB002919D0FA220023920002F0B9
:1025A000BDFF001BA84218D2E021052001AA490363
:1025B000FFF7F6FE061E02D00199002912DB1E204D
:1025C00002F092FA02F0A6FB0029E5D1FA21890077
:1025D00002F066FF001BA842E6D3002002B080BCD8
:1025E000B846F0BDE0220B021B0A5203934206D00C
:1025F000002F0FD01E2002F077FA3700C8E74346BD
:10260000002BEBD01960E9E7FA21890002F048FFBE
:102610000400BAE7024A034805F0DCFCEAE7C046DA
:1026200000001C8000AE0010F0B5CE46474680B5D5
:1026300083B0814601046A460720FFF7B1FE0028F7
:1026400000D19DE0514B524A1A60524B1B78002B2F
:1026500000D08FE00A20C02602F046FA03240025AD
:10266000360234204C4901AA0195FFF799FE002853
:1026700002D0019B334202D0013C002CF1D1C02694
:102680000324002536023420444901AA0195FFF7AE
:1026900087FE002802D0019B334202D0013C002C6F
:1026A000F1D1C02603240025360234203C4901AA7A
:1026B0000195FFF775FE002802D0019B334202D03E
:1026C000013C002CF1D1C026032400253602342021
:1026D000344901AA0195FFF763FE002802D0019B4F
:1026E000334202D0013C002CF1D1C0260324002546
:1026F000360234202C4901AA0195FFF751FE00282B
:1027000002D0019B334202D0013C002CF1D1C02306
:102710001B020026002798460325C021342001AA69
:10272000C9000197FFF73CFE041E03D04246019BFF
:1027300013420DD0013D002DEFD16420013602F08F
:10274000D3F9642EE8D1194805F0C0FB00240BE052
:102750009B07F2D53100164805F03CFC4A46154B64
:102760001A800122144B1A70200003B0C0BCB94675
:10277000B046F0BDC821C823104A8902D15069E78C
:102780000F4805F0A3FB0024EEE7C046A00F002091
:10279000000048401F240120020E0080002002801B
:1027A0000222028003080080020400807CAE001038
:1027B0005CAE0010122401201824012000002050DB
:1027C00048AE0010F0B5C646E023C026904603256B
:1027D000002700B5DB0504071C400F4B49021940D8
:1027E00082B00C4336022100342001AA0197FFF782
:1027F000D7FD002802D0019B334207D0013D002DB8
:10280000F1D1002002B080BCB846F0BD4246002A9B
:10281000F8D01370F6E7C04600FEFF03F0B5C646D9
:102820009846E0238026C02403250027DB0500B559
:1028300000071840104B4902104319400843360660
:1028400082B0064324023100342001AA0197FFF729
:10285000A7FD002802D0019B234207D0013D002D97
:10286000F1D1002002B080BCB846F0BD4246002A3B
:10287000F8D01370F6E7C04600FEFF0310B5FFF76F
:1028800095FC10BDF0B54546DE4657464E46E0B5D0
:10289000A5B01D001293944B14001B78002B09D196
:1028A00000239B46584625B0F0BCBB46B246A9461D
:1028B000A046F0BD0023E0221F93D205030713407A
:1028C000EA05D20D1343894A490211400B43802186
:1028D0000905352019431FAAFFF762FD834600282A
:1028E000DED01F9AC02311001B0219401B911A420F
:1028F000D6D101217E4B1A688A431A607D4A9246DE
:102900001278022A57D01A687B488A431A607B4A99
:102910007B499A647B4ADA647B4A19655A657B4A2B
:102920009A65D8657A481866822058669966DA668C
:10293000784AEC211A67784A89055A67774B1868F4
:10294000B0231B022193764B239390231B032293E6
:1029500003F0EAFB061C03F02DFC85B20023002DDA
:102960000ED0280003F0FEFB011C301C03F0D9FB45
:102970008721C90503F0EFFB03F01CFCC3B21B0267
:102980002D04002200211D43594820AB209505F05D
:102990008BFC00230422002100935548043305F0EA
:1029A00029FC0123022200930021514805F022FC5A
:1029B0000223524613702000FFF752F8129B002B9F
:1029C00000D1CCE280235B0499465B461D935346BD
:1029D000C346544E119403971C9302F09BF90029AF
:1029E0007BD0FA220023920002F098FD04004E4AA8
:1029F000336894464A469B0163441B6813423CD0AB
:102A000002F088F900292FD0FA220023920002F068
:102A100085FD464B001B9842E9D91C9B32689A46BB
:102A20000123A02093404249C0054350414B8021DF
:102A30009C4692016244490413680B42FCD1012177
:102A40002B4A3D4813688B43136005F03FFA3B481F
:102A5000129A1B9905F0BEFA53461B78012B00D140
:102A60001EE7FFF70FFB1BE7FA21890002F018FDB4
:102A70002E4B001B9842BAD9CFE702F04BF9002940
:102A800000D118E2FA220023920002F047FD05006F
:102A9000174C0CE0FA220023920002F03FFD401B8D
:102AA00063280FD8D423E358DBB2002B4AD002F0BE
:102AB00031F90029EED1FA21890002F0F1FC401B26
:102AC0006328EFD901211C9B094A9A4613681C48C8
:102AD0008B43136005F0FAF9B9E7FA21890002F097
:102AE000DFFC040083E7C0461F24012000FEFF0333
:102AF000000020501E24012046A00000A0800000FD
:102B000042A1000027A0000042B0000004500000D5
:102B1000C3A000004810000020800000A00F00208B
:102B200000080220A40F00201000005088130000AD
:102B3000440400000C00005094AE0010D8AE001009
:102B40002CAF001001222368934323608023626826
:102B50005B001A4200D005E2226A934662681A427C
:102B600000D00AE2226A039262681A4200D0FEE1B3
:102B7000226A626862681A420AD103218020EE4B01
:102B800040001A6A5A680242FBD0012900DC98E131
:102B90001B9B129A013317939A4200DD83E111982F
:102BA00020A9FEF7A3FF5B461B0F05930F235A4690
:102BB00018005F465946120E5D4610400A9058466E
:102BC0005C463F0BBC461F402D0C0D970F0AA846D4
:102BD00039001D400C9505092800240DA2461C4013
:102BE0000B941C0019400E91039918400F90080F88
:102BF0000490080E13900440080D06940400090C7C
:102C00001C4007940C001C400894039C240B149453
:102C10001C401894039C240A15941C401994039C8E
:102C2000240916941C4009945C461C401094039C93
:102C30001C401A940224059B5B001C4001231A408F
:102C40002243544652001C402243444652001C403A
:102C50002243644652001C40224352001F40174347
:102C60005A467F001D403D43049F6D001A402A4391
:102C70003D00139C52001D402A4352001C40144347
:102C8000640018402043149A400019400143490051
:102C90001A400A431599520019401143169A039C91
:102CA00049001A400A4352001C4014431CAA128ACD
:102CB000A4B2944200D00AE102200A990C9D4A1065
:102CC00005991A4001400C0014430B9A64005210FD
:102CD0001A400D9814436A101A40640014430E9968
:102CE00042101A4064000F9814434A101A406400BE
:102CF000144342101A4064001443109A64005210A6
:102D00001A4014437A101A4064001443069A079F2D
:102D100052101A406400089D14437A101A4064004F
:102D200014436A10189D1A4064001443199F6A10D6
:102D30001A40640014437A101A4064001443099A3C
:102D40001A9852101A406400144342101A4064004A
:102D500014431CAA528AA4B2944200D0DFE002219C
:102D6000059C62080A9C0A40A1100B9C19400A436A
:102D7000A1100C9C194052000A43A1100D9C19404F
:102D800052000A43A1100E9C194052000A43A110A0
:102D90000F9C194052000A43A110109C1940520088
:102DA0000A43A110194052000A43049952008910A5
:102DB00019400A4306995200891019400A4307999D
:102DC0005200891019400A4308995200891019408D
:102DD0000A43A910194052000A43BC1052001C407B
:102DE0001443099A640092101A401443821013404D
:102DF00064001C431CAB9A8AA4B2A24200D092E0A9
:102E0000059B0A9ADB10D2105B0013430B9A5B0000
:102E1000D21013430C9A5B00D21013430D9A5B003F
:102E2000D21013430E9A5B00D21013430F9A5B002B
:102E3000D2101343109A5B00D2101343049A5B0024
:102E4000D2101343069A5B00D2101343079A5B001B
:102E5000D2101343089A5B00D2101343189A5B00F8
:102E6000D2101343199A5B00D2101343099A5B00E6
:102E7000D21013431A9A5B00D4101C431CABDA8A9D
:102E8000A24254D1802292009446119BA53A6344F9
:102E900011936B46FF3A9B181B88129A9A4257D996
:102EA000179B1B9399E580239B009C4611986044D7
:102EB000FEF7D6FD73E6FA21890002F0F1FA05006B
:102EC000E6E51C9B9A461D4805F084F8BFE51C9B6F
:102ED00000219A4613001A48220005F07BF8129A46
:102EE0001B99184805F076F801223368A0209A4013
:102EF0001549C0054250154A802194469B01634400
:102F000049041A680A42FCD101210B4A13688B4319
:102F1000136053461B78012B00D0A2E5C0E41C9B34
:102F200001219A46D6E71C9B02219A46D2E71C9BB8
:102F300003219A46CEE7C04600002050B0AE0010F4
:102F4000F8AE0010D8AE0010440400000C00005091
:102F50001D9B9B461C9B1B78012B00D1A2E4FFF715
:102F600091F89FE462681A420CD1002106E662687B
:102F700002211A4200D101E60AE662681A4205D12E
:102F80000121FBE51C9B00219A469CE71C9B01212B
:102F90009A4698E7F0B54546DE4657464E46E0B5B8
:102FA0009846C04B14001B788DB0002B08D100262A
:102FB00030000DB0F0BCBB46B246A946A046F0BDFD
:102FC00000230793E0230007DB0518404346DB0599
:102FD000DB0D1843B44B4902194008438821090608
:102FE000014307AA3520FFF7DBF9061EDFD0079B58
:102FF000C0221900120211408A461342D7D1012083
:10300000AA4B196881431960A949049109780329D9
:103010005CD04725196881431960A649A648996480
:10302000A649D964A6491965A6495965A64999656D
:10303000A649D965A6491966A64958669966DD6606
:1030400018675967A44999670A21D96776315A5098
:10305000A24BEC211868C023DB020A93A04B890520
:103060000B93A04B099303F05FF8071C03F0A2F841
:1030700085B20023002D0ED0280003F073F8011C48
:10308000381C03F04EF88721C90503F064F803F0FB
:1030900091F8C3B21B022D041D430895012500229F
:1030A000002108AB814805F0FFF804230422002129
:1030B0007E48009505F09EF80123022200217B48FE
:1030C000009505F097F80323049A1370864B2000AF
:1030D00019000393FEF7EAFD4346002B00D1D1E02F
:1030E0008022920023009446634402937F4B012583
:1030F0009B466E4C7E4F059623681022AB4323609F
:1031000080231B063B603B607A4B00211A606748B6
:1031100004230C3A009505F06DF8D8230022E25004
:103120005B461968744BC802184019231843A02342
:10313000DB059C46534683262B40B6005B4233405A
:10314000039E8A016244B446634413606B4B536030
:1031500083239360106180222563520263681342C7
:10316000FCD1674BA02223612B008B4019008623E2
:10317000D205DB00D15023682B4323600123534445
:103180009946434570DB01F0C5FD002966D0FA225F
:103190000023920002F0C2F90600236B1D424ED1BB
:1031A00001F0B8FD00293FD0FA220023920002F07E
:1031B000B5F9544B801B9842EFD95B46196801233F
:1031C000A0208B40504AC0058350504B80229C4623
:1031D00089010818520461440B681C001440134212
:1031E000FAD10122314D2B6893432B60D42301691E
:1031F000EB58FE32C9011A40C90F454804F0EAFEF7
:1032000042465146434804F0E5FE042304220021CF
:103210002800009404F0EEFF049B1B78012B00D1E2
:10322000C5E6FEF72FFFC2E6FA21890002F038F961
:10323000344B801B9842C0D8236B1D42B0D08022F3
:10324000920094462368AB432360029B634402933D
:103250004B469BB2984514D9CA464DE7FA218900DE
:1032600002F01EF9060098E71900832329409B000D
:1032700049421940039B02989C466144FEF716FDA3
:1032800081E7059E002304220093002104330748B0
:1032900004F0B0FF049B1B78012B00D188E6FEF7F9
:1032A000F1FE85E61F24012000FEFF0300002050F0
:1032B0001E240120A080000042A1000027A00000E1
:1032C00060600000046100004311000080E0000025
:1032D0002FE0000042B10000CE100000A00F00203F
:1032E0008408403000E00004F81F0120A40F0020F3
:1032F000D010205000202050FD7F00FF10002050F3
:103300001104000010270000440400000C000050CD
:103310004CAF001080AF001010B51A4B82B01B7874
:10332000002B2CD00621022000F070FD0621032086
:1033300000F06CFD0621042000F068FD0621052048
:1033400000F064FD0621062000F060FD0621072044
:1033500000F05CFD0124F8220B4B00211A600B48A1
:103360000123F63A009404F045FF012303220021D3
:103370000648009404F03EFF0022054B1A7002B08C
:1033800010BDC0461F2401203820205000002050CE
:103390001E240120F8B50D4D2B78002B02D10024FE
:1033A0002000F8BD0A4E0B48318804F013FE308827
:1033B000FFF73AF9041E05D1074804F087FD2C7089
:1033C0003480ECE7054804F081FDE9E7182401208A
:1033D00012240120A0AF0010E8AF0010D0AF001001
:1033E00070B582B00021052001AAFEF7D9FF0028A0
:1033F00002D1002002B070BD01A8FFF7B5F8002887
:10340000F7D02C4D0199280004F0E4FD142001F0C0
:103410006BFB0021032001AAFEF7C2FF002841D167
:103420000024254E300004F051FD01A8FFF79CF860
:10343000002810D00199280004F0CCFD1E2001F0D6
:1034400053FB0021032001AA0134FEF7A9FF002845
:1034500020D1032CE6D1194804F038FDFEF7A6FE72
:10346000022001F041FB0021032001AAFEF798FF92
:10347000002808D10121124804F0ACFD01252800E4
:10348000FFF7D2F8B6E7019D0E482D0C290004F095
:10349000A1FDF4E7019D22002D0C29000A4804F04B
:1034A00099FDECE7019D09482D0C290004F092FDDF
:1034B000E5E7C04618B000103CB0001064B0001042
:1034C000B4B0001090B0001000B10010ECB00010CB
:1034D0000048704704B8001000487047E4B7001077
:1034E00070B5002821D0032825D8144B8000C5587A
:1034F000280006F0CBFD04001F2812D8002807D0B2
:1035000000230F4AE95C013311800232A342F9D350
:10351000C023013464009B0023430A489BB203800C
:1035200070BD1F240028EBD1F2E7074B054843800C
:10353000063BFF3BF3E70020F2E7C046D0B70010A0
:103540000A1600200816002009040000F0B5C6463F
:103550001E00474B04000D00984600B5171843465F
:10356000186800280ED00023424A117A002905D09D
:103570001168A14202D85168A1425FD201330C32D6
:103580008342F2D129002000002E0ED0FDF7D0FF9B
:1035900000280ED080239B009C4601346544BC4229
:1035A000DDD1002080BCB846F0BDFDF74FFF0028FC
:1035B000F0D143462F4D186800222B0000280CD074
:1035C000197A002905D01968A14202D85968A14288
:1035D0000ED201320C339042F2D1002E39D026495E
:1035E0002200264804F0F6FC4346186800283DD027
:1035F0002B000022671C197A00290AD01E6859681E
:10360000A64201D8A14215D20131A14228D0BE4222
:1036100021D001320C339042EDD110280AD0431C46
:103620004246136043001B189B00EC50ED18012329
:103630006C602B72FDF716FE0120B3E7002E06D159
:103640000F4922000F4804F0C5FC0120AAE70A49EF
:10365000F7E70B49C4E753009B189B00EC50E9E7E0
:1036600053009B189B00EB185C60E3E70123D7E74E
:1036700074980020B497002058B100108CB100104D
:1036800060B1001068B10010F0B5CE46474680B575
:1036900083B0040001F03EFB00290FD0FA22002382
:1036A000920001F03BFF5F4E5F4F30603B78002B94
:1036B0000ED103B0C0BCB946B046F0BDFA218900B6
:1036C00001F0EEFE574E584F30603B78002BF0D0A3
:1036D0002100564804F07EFCFDF7D2F8D02380226A
:1036E0001B0652029A610A2001F0FEF90120002116
:1036F000404205F049F84E4804F0E8FBFFF70CFEA5
:103700004C48FEF71FFEFFF745FE002815D1642444
:1037100005E06430013C01F0E7F9002C6ED0012097
:103720000021404205F030F8FFF7F6FD4148FEF772
:1037300009FEFFF755FE0028EBD06B46DC1D002389
:10374000237001F0E7FA002952D0FA2200239200F8
:1037500001F0E4FE05003F23984617E0FA2200231B
:10376000920001F0DBFE401B1D281AD82200072121
:103770000120FFF727F8002805D042462378994614
:103780009343402B0FD0012001F0AEF901F0C2FAB3
:103790000029E3D1FA21890001F082FE401B1D2897
:1037A000E4D92378994601F0B5FA002935D0FA22F8
:1037B0000023920001F0B2FE421B49461E4804F06D
:1037C00009FCD02380221B0692029A610023012269
:1037D0003B701A4B1A701A4B1A7001F09BFA0029B1
:1037E00015D0FA220023920001F098FE306060E7C5
:1037F000FA21890001F054FE0500ACE7114804F0FD
:1038000065FBD02380221B0692025A6151E7FA2100
:10381000890001F045FE30604BE7FA21890001F094
:103820003FFEC9E7C49F002020240120ACB1001056
:10383000D4B1001000007A42F4B10010A80F0020AB
:103840001C2401201CB20010F0B557464E46DE463F
:103850004546E0B599468B4B89B002911978802393
:1038600082469B009A4210D2002921D100232122B6
:103870000521002005F0B8FD0120404209B0F0BC50
:10388000BB46B246A946A046F0BD80239B029A42A1
:1038900000D393E0530A04930029E7D07A4B1B68C6
:1038A0009A45E3D252469B1A049A9342DED305E02E
:1038B000754B1B689842D9D2012304934B46002BC9
:1038C00000D18FE07148FFF7DFFE714B1B78002BB2
:1038D00000D0D0E001226F4B52421A606E4B1A604A
:1038E000D02380221B0612039A616C4B069300239F
:1038F00003936B4B00269B466A4B0793654B0593DE
:10390000049B984643469D1B402D00D94025029AB2
:1039100077023B0094466344019353469C195B46EF
:10392000186800280FD000225F4B6719197A002908
:1039300005D019688F4202D959688C4220D90132CA
:103940000C338242F2D14B46002B3AD1059B1B68C7
:103950005A1C06D09C4204D31900621940318A4295
:1039600037D92000019AE9B2FDF7A6F9002814D151
:103970002B0022000699079804F02CFBFDF772FC3F
:103980004B462A0020000199FFF7E0FD039B9C466F
:10399000844463460393002802D176194645B1D387
:1039A000D0244B462406002B2BD080231B036361BD
:1039B000039B002B4BD1049B58025FE7FF2304932A
:1039C0006AE72000019AE9B2FDF742FA0028E4D143
:1039D000CEE7E11A354B490201986A02C91802F094
:1039E00067FCDAE73248FFF74FFE294B1B78002BC4
:1039F00041D1D02380221B06D2029A612D4B06931F
:103A000075E78023DB026361039B002B0BD12A4BFC
:103A1000049A19685244514501D01A60CBE71E49F7
:103A20001A600A60C7E780255146039B049AAD02DD
:103A3000224804F0CFFA5020656101F055F80023C8
:103A4000112203211800A56105F0CEFC14E78025A2
:103A50005146039B049AAD02184804F0BBFA50206B
:103A6000656101F041F80023032218001100A561EF
:103A700005F0BAFC00E7012304220221002005F032
:103A8000B3FCF9E619240120B4990020B4A9001070
:103A900020240120B40F0020B00F002058B10010E6
:103AA000749800203CB20010B4970020E09F0020E2
:103AB000F0A8001060B10010AC0F002080B2001020
:103AC000014B18687047C046C49F0020044B1B7808
:103AD000D8B2002B02D0034B1878C0B27047C04652
:103AE000A80F00201C240120014B1878C0B2704799
:103AF0002024012010B5104804F0E8F9FDF78CFDF2
:103B0000322000F0F1FFFEF7B9FE002810D10220AC
:103B100000F0EAFFFCF7C0FED02380221B06520211
:103B20005A610022054B1A70054B01321A7010BD04
:103B3000044804F0CBF9EAE7C0B20010A80F002057
:103B400020240120E8B200100D4B10B518600123AD
:103B50000C4A13700C4A13700C4A137001F0DAF817
:103B6000002907D0FA220023920001F0D7FC084B6D
:103B7000186010BDFA21890001F092FCF7E7C046F9
:103B8000B499002019240120A80F00201C24012032
:103B9000C49F0020F0B5C64600B58AB08C4602A985
:103BA00098460B00124C170024CC24C3227805AD94
:103BB0001A702B000F4C45CC45C3226860461A6032
:103BC00022791A710C4B6A46009300231371082264
:103BD00002F06EFB29001022380002F069FB04227B
:103BE0006946404602F064FB0AB080BCB846F0BDAE
:103BF00004B3001010B30010303130301D4B70B5DD
:103C00001C68621C31D01C4A1278002A2DD01B4A35
:103C10001278002A29D11A4E013A1A6033689C4260
:103C200023D02500174B40351B689D421DD8164BED
:103C3000186800280ED00022144B197A002905D0EC
:103C400019688D4202D959688C420ED901320C3361
:103C50008242F2D1012340215B4220000C4A3360B2
:103C6000FDF72AF8002801D0346070BDFDF7FAFA9C
:103C7000FBE7C046B00F00201924012020240120BA
:103C8000B40F0020B499002074980020B49700204D
:103C9000E09F0020014B18787047C046192401208E
:103CA000034B1B680B6080239B0013807047C0464A
:103CB000B499002070B5002B01D0002A01D001205A
:103CC00070BD154804F002F9144C2378002BF6D08F
:103CD000134D2B78002BF2D1124804F0F7F8FDF7C2
:103CE0009BFC322000F000FFFEF7C8FD00280ED13B
:103CF000022000F0F9FEFCF7CFFDD02380221B0646
:103D000052025A610023237001332B70D7E7064813
:103D100004F0DCF8ECE7C04624B30010A80F002044
:103D200020240120C0B20010E8B2001070B51E00BF
:103D3000049B0500DC05E40D0800144311001A0083
:103D4000002C04D100233100FFF77EFD70BD064832
:103D500004F040F9002324220521280005F044FB4B
:103D600001204042F2E7C0463CB3001070B51E008F
:103D7000049B0500DC05E40D0800144311001A0043
:103D8000002C04D101233100FFF75EFD70BD064811
:103D900004F020F9002324220521280005F024FB4B
:103DA00001204042F2E7C04668B3001010B5097820
:103DB0000400352901D0912914D1104B1B78002B18
:103DC00001D1002010BD0E4B1B78002BF9D1FDF75F
:103DD00097FC0028F5D100230C220321200005F0D8
:103DE00003FB08E0074804F0F5F800232022052132
:103DF000200005F0F9FA01204042E3E7A80F002077
:103E00002024012094B3001001207047094A830048
:103E10009A1810B514684022544080322240064C53
:103E2000C000A44663441A60044B9C466044416051
:103E300010BDC04604C0014004D001400040014014
:103E4000074B8000C3181B68C90092000A435A4000
:103E50000C231340034A9446604403607047C046F5
:103E600004C0014004D001400123D0228340120647
:103E700093629361094A83009A1811684022514065
:103E800080320A400649C0008C4663441A60054BE4
:103E90009C460523604443607047C04604C001400F
:103EA00004D00140004001408023DB051868000F6A
:103EB0007047C0460FB400B5084883B004F006F858
:103EC000049B002B07D005A91800019103F058FEB0
:103ED000034803F0FBFF012003F06AFEB8B30010B3
:103EE0002CB1001070B5EFF3108C72B60D4D2B682D
:103EF000002BFCD0BFF35F8F0724CB08C618C05C33
:103F000001230C40A3401C000440034207D1184386
:103F10003070BFF35F8F2C608CF3108870BD100081
:103F2000FFF7C8FF2C0100D0F8B54746CE468846BB
:103F300080B5EFF3108C72B61C4D2C68002CFCD0B1
:103F4000BFF35F8F9A4222D807210126894602E0FB
:103F50000132934218D34D4637001540AF40D40884
:103F60000119045D2742F3D110003C430C70BFF3EC
:103F70005F8F00220D4B1A608CF3108800280EDB37
:103F8000C0BCB946B046F8BD01204042EFE7BFF3E0
:103F90005F8F00232B608CF3108801204042434642
:103FA000002BEDD00898FFF785FFC0462C0100D00C
:103FB000044A1078431CDBB2172B00D9102313706E
:103FC0007047C046B80F002010B5064B064C82B0B3
:103FD0000100009318221F232000FFF7A5FF02B065
:103FE00010BDC046C8B30010809900200021044BCA
:103FF000044ABFF35F8F02C39342FAD17047C046B1
:10400000000100D0800100D0054B064A1360064A2B
:10401000136053609360D360136153619361704781
:104020008080808000E400E004E400E01F2318406A
:104030001E3B8340002905D0C021044A490053504B
:1040400013607047802201498B50FAE700E100E0DD
:1040500070B50D00EFF3108672B60F4A1368002B8F
:10406000FCD0BFF35F8F0D4B10309B6884001B5951
:104070000B4A934203D09D4201D001F0BFF8074B99
:104080009B681D51BFF35F8FBFF35F8F0022024B10
:104090001A6086F3108870BD240100D000ED00E0A6
:1040A000C1010010F0B557464E46DE464546E0B524
:1040B00085B0060000911700EFF3108B72B66A4AC4
:1040C0001368002BFCD0BFF35F8F0025674B5D5753
:1040D0009A46002D00DAA9E06B00654C01935B194C
:1040E0009B009846A146C1444B4652469B791036E8
:1040F0001370604BB6009B6899590B1B2F2B33D95B
:104100005D4B994200D0ACE0019B42469C465B4B24
:104110006544AD0063535A4B0232A218043B9B1A0C
:104120001B05584A5B0D651913436B80564B0121E3
:10413000AB80FF23AB71009BEF71AB604B460B4331
:1041400019004C4B9B689951BFF35F8FBFF35F8F92
:104150000022454B1A608BF3108805B0F0BCBB46BB
:10416000B246A946A046F0BD01200A008243D37999
:104170008C46BB4231D84546130044491B1B5B416A
:104180005943090D3D4B63533D4B02356519043BC3
:104190005B1B1B053B4D5B0D2B43AA464D466B80BD
:1041A0000425AC465546E044131F44441B1B1B0525
:1041B0005B0D1D434B46997100999D80996049465E
:1041C000DF71334B01431360BBE75800C018800018
:1041D0002018C179B9422FD902000623D356002BEB
:1041E000F3DA02932B4B61460393131D9A46042383
:1041F0005B429C46E14450464B461B1A1B055B0D37
:104200009C46204B957198466346404603439380F5
:10421000019B5A199200039BA418A380029B1C4A7D
:10422000A371009B2260E771A3608AE700F0E6FFBC
:10423000002553465D574FE7908802934005131DB4
:104240009A46031561469C464046D4446346043072
:104250002018181AE0230005400D1B021843039094
:10426000C5E700F0CBFF4FE7240100D01D2401205B
:10427000BC0F002000ED00E0C101001000A1FFFF15
:10428000EC0F002000E0FFFF01BDFFFFAAAA000025
:104290000148804701BD0000F0B5DE4657464E4656
:1042A0004546E0B50C0083B0EFF3108872B6634A60
:1042B0001368002BFCD0BFF35F8F614B61499A6894
:1042C000030010339F00D55901938D4243D0A5427E
:1042D00054D05D4EAA1B2F2A3DD85C4B9B461B68D1
:1042E000994601231A009C4682404B4613401F22E8
:1042F00099466346024093409A4680225B46504668
:104300009850BFF35F8FEFF305839B46002B37D0A8
:10431000019B5B4501D000F071FF01232A009A4305
:104320009068844208D176E04B005B189B00F3183C
:104330009868844236D01A00062151560029F3DAD3
:10434000844254D04B46002B27D0C02251463F4BCD
:104350005200995019603A4B9B68DD51BFF35F8F53
:10436000BFF35F8F0022354B1A6088F3108803B0CB
:10437000F0BCBB46B246A946A046F0BD0D00EAE738
:104380002A0063469A4390688442D5D1062010568D
:10439000130000280ADA0D0031E0802351462B4A31
:1043A000D150D8E706201856002821DB420011180A
:1043B000890074188B46A1689960E179D97106214A
:1043C00061569971002924DBA488F11A640524152B
:1043D0005C44091909051E4C490D214399801318A5
:1043E0001C4A9B001178F31899711070AAE713000A
:1043F0005946002914D1FF3191711749918015490F
:104400000A789A71154A9B1B5B415A43120D0A7038
:1044100098E71149E2E70620105613000028C5DA94
:104420000F4A1049D21A083A5002400D01439980B0
:104430000D4952080A43DA8084E7C046240100D0BF
:1044400000ED00E0C1010010BC0F002000E100E021
:1044500000E0FFFF1D24012001BDFFFFAAAA00000C
:10446000F60F002000F0FFFF00F8FFFF70B50124F9
:104470000443EFF30581EFF3108C72B6214A136801
:10448000002BFCD0BFF35F8F1F4B05001F4AED1AB6
:104490006D416A43120D1E4D8900AE6852B27658C6
:1044A000A6421CD00621595691421CD012215956C1
:1044B000914222D01E215956914220D02A2159568C
:1044C0000324914210D0134B19781A708171BFF3F5
:1044D0005F8F00220B4B1A608CF3108870BDAB68A5
:1044E0000D4C5C50EFE700246100091989005B184E
:1044F000FF21997109499980E5E70124F4E7022435
:10450000F2E7C046240100D0BC0F0020AAAA000098
:1045100000ED00E01D240120C101001001BDFFFFDE
:10452000024B9C46614489000160704740000034A2
:1045300070B5114C114DAC420FD2FF262368002BF1
:104540000CD0FFF735FD01002000FFF7E9FFA68042
:10455000BFF35F8F0834AC42F0D370BDFFF728FD86
:1045600001002000FFF7DCFF2671BFF35F8F0834E6
:10457000AC42E3D3F1E7C046781000208010002061
:1045800010B50400FFF714FD01002000FFF7C8FF7D
:10459000FF232371BFF35F8F10BDC04610B5040029
:1045A0000120FFF711FD034BC3189B002360BFF3ED
:1045B0005F8F10BD400000340A4B1968EFF3108084
:1045C00072B60A68002AFCD0BFF35F8F1B68BFF386
:1045D0005F8F00221A6080F3108840BF0020002106
:1045E0007047C046EC1F0120F0B5DE4657464E46E8
:1045F0004546E0B587B0EFF30583032201251A4055
:10460000954091008846A946B34B03925C58B34B42
:104610001D60B34B04934B46B24843630823E55EE9
:10462000002D37DAA3881BB2002B00DBADE0A379A5
:10463000002B00D0EEE00823E05E002820DB4300E2
:1046400062691B18DB00D3189E68DD68731C00D1FB
:1046500011E1A44801004144826A0B69B71A9B1A10
:104660009F4215D30123026A039883401A420FD058
:104670009C4800F047FB8D4202DCCCD18642CAD96F
:1046800040BF07B0F0BCBB46B246A946A046F0BD4D
:104690000E61EDE762696B0092465B19DB009A449C
:1046A00053469E68DF6800F02DFB8F42BADC00D1D4
:1046B00003E1002F00DAE8E05246534652691B69D5
:1046C0009346049A934200D1D9E052460821605E95
:1046D0005288000459461043984700900191009970
:1046E000019A0B001000134300D1CEE013000A0022
:1046F000B61A9F41002806DB7A4800F003FB009EB3
:10470000019F36184F4153469E60DF6000229A5E3B
:10471000002A00DA86E7530099186069C900411839
:1047200002938B68C9689B46B94200DD7AE702D1E3
:10473000B34200D976E708239C46A4440595654614
:104740002281A446029B2C0006E053009918C90060
:1047500041188D68C968AB469B18DB00C318B94285
:1047600006DC00D1B3E01C000023E25E002AECDA94
:10477000230064469C4653461A806346059D1D806F
:10478000A3881BB2002B00DA51E72269EFF31081F6
:1047900072B61368002BFCD0BFF35F8F0123A7888C
:1047A0005B42A3803FB22369BFF35F8F00221A6090
:1047B00081F31088002F00DA39E723000833220044
:1047C0009A4666697B00DB19DB00F318996850464E
:1047D0008C460824115FDD68002910DB029306E097
:1047E000AB4244D00023E15E2000002906DB4C00F0
:1047F0006418E4003419E368AB42F1DD029B0780E2
:1048000000201F5E1980002FDCDA1400A379002B32
:1048100000D110E70023A37126000823E15E0836CB
:104820004B1C00D12CE70800A246656902E03E005F
:104830004B1C1AD04B005B18DB00EF180A008C46AB
:10484000E95E7B881BB2002BF1DA01235B42DC17A7
:10485000BB60FC60824205D0534631801B893B809F
:1048600053461A8160464B1CE4D15446E5E6A368E2
:104870006345B7D9C2E76B1C00D0EAE6F8E65B46B1
:1048800058461B69984700281BD153461B8822694C
:104890002381EFF3108372B611680029FCD0BFF3B7
:1048A0005F8F514662880A8022696580BFF35F8FFF
:1048B0000021116083F31088B4E6864200D8F8E640
:1048C000B0E65B461A685B680092019307E7B34560
:1048D00000D848E74CE7C046D09F00203C70054018
:1048E000E94500100040054070B52E4C2569002DAB
:1048F00004D00A212C48FFF713FE70BD2B4E032174
:10490000300000F0F5F9E660FFF752FB284B032278
:104910009C46D02322701B061B6801216370254B27
:104920006044A3600F2380002061022063806369DC
:104930004942A18019800231198647311D8358529E
:1049400018315A5275325C399952183201319952E4
:104950001832013199521832013199520835183202
:104960009D5202311832995218320131995218323F
:10497000013199521832013199521832013199524C
:104980001832013199520C4B0C49DC600130356210
:10499000FFF75EFB01210320FFF748FB084B1D607A
:1049A000A7E7C04604100020EC1F0120004005408E
:1049B00040000034FFFF1000D09F0020E9450010A8
:1049C0003860054070B501000469EFF3108C72B6D1
:1049D00020680028FCD0BFF35F8F02200D5E4C6979
:1049E00068004019C00024180869002D36DB2688AD
:1049F0004E80BFF35F8F002606608CF31088E36063
:104A000063880498013320615B0405985B0CA26005
:104A100060611A1C002B1FD093B2280462801843D7
:104A20000A69EFF3108C72B61368002BFCD0BFF349
:104A30005F8F8B8823808D800B69BFF35F8F00228F
:104A40001A608CF310880B7801329A40CB680849C1
:104A50008C4663441A6070BD0122DDE7BFF35F8FAF
:104A6000002303608CF3108801204042F3E7C04626
:104A70003C20000010B543890A1493421ADD53000C
:104A80009B184269DB00D3180469EFF3108C72B6EF
:104A90002268002AFCD0BFF35F8F5A88090494B2C1
:104AA000090C8A4208D00369BFF35F8F00221A60A5
:104AB0008CF31088002010BD8022120214435C8009
:104AC000012302698371BFF35F8F002111608CF3B2
:104AD0001088044902788C469340C26801206244E1
:104AE0001360E8E73C200000F0B5C64600B582B090
:104AF000040000F00FF9FA2206000F002000002346
:104B00000021920001F0F0FA8019794104000D1E95
:104B100002DA01242E4D644206267642F717361932
:104B20006F41AF4214D811D000F0F4F832003B00CE
:104B3000121A8B41002B15DC002B46D020002900D7
:104B400000F026F902B080BCB846F0BDA642EBD911
:104B50000026002700F0DEF832003B00121A8B41DD
:104B6000002BE9DD00F0D6F832003B00121A8B4131
:104B7000002B0ADB00230193164B320000931648EA
:104B80003B00FFF71FFF0130D8D000233900B046AB
:104B90009C46124A1248536A994204D8966A46457E
:104BA000CCD29942CAD10668EFF3108772B6336847
:104BB000002BFCD0BFF35F8F0368BFF35F8F6646A7
:104BC0001E6087F3108820BFE5E7002AB6D0C9E74A
:104BD000FFFFFF7FB9450010041000200040054092
:104BE000EC1F0120F0B557464E46DE464546E0B57F
:104BF00006000F0085B0EFF3058399468B46002B26
:104C000012D0384900204B6ABB4206D38A6ADB1BAC
:104C1000591E8B41B2424041184305B0F0BCBB461F
:104C2000B246A946A046F0BD2F4B9A46DB6898468F
:104C300053461B784046039300F064F84246039BBA
:104C4000040004339B009B580D001B1A39003000F0
:104C5000001BA941894510DC0DD020BF214A00204E
:104C6000536A5B45D9D3926ADB1B591E8B41B24212
:104C700040411843D1E78342EFD900F04BF83200AE
:104C80003B00121A8B41002B1ADB00230193174BB8
:104C90003200009350463B00FFF794FE011E0FDDEB
:104CA000104B5A6A5A451BD39B6AB34216D35046DF
:104CB000FFF7E0FE0B4A0020536A5B45ADD3D2E715
:104CC000084A0020536A5B45A7D30020926ADB1B89
:104CD000B24240415A1E934118439EE75A45E6D1DD
:104CE00020BFE4E70040054004100020B945001053
:104CF00010B5024A0248FFF7F5F810BDE4B3001002
:104D0000849900200300416A0A00986A596A8A421D
:104D1000FAD17047034B596A0A00986A596A91425E
:104D2000FAD170470040054070B504000D00174AE5
:104D3000536A1900966A536A8B42FAD130001900FF
:104D400024184D41AB4216D813D0104B2A005B6A91
:104D50009D4203D90D494B6A9342FCD3934207D13C
:104D60000A4A02E0516A994202D1916AA142F9D3FA
:104D700070BDA642E9D9054B5B6A1C005A1CEFD0F6
:104D8000012201246442E5175242E3E70040054056
:104D9000064A536A9942FCD807D1044B02E05A6A8A
:104DA000914202D19A6A9042F9D87047004005407A
:104DB000F8B5040006200D0000F078F9002844D072
:104DC000374B3849E3185A1E934180221204944607
:104DD0005B429B0D344A9B0563441360334A136066
:104DE00018000A689043FBD12D4B314AE318594211
:104DF0004B4180215B0049000620995200F056F992
:104E00002900C00000F04CFB0130C3091ED140272F
:104E100001226262A362266BF30722D4E36A254B68
:104E20000620E51800232B60266300F03FF93900C7
:104E3000800000F035FB7023E26A5A400E331340C5
:104E40002B601D4B23630323A364F8BD1B4A9342CD
:104E50001ED900231A4A1B4F6262A362266BF30716
:104E6000DCD5194B144AE3181A60656AA36A062058
:104E7000AD01ED1800F01AF9144900F011FBAD0274
:104E80000100280000F00CFB0021FFF74DFFC5E7F3
:104E90004006800E9F011A003F180300B9E7C04684
:104EA0000080FCBF08C0004000E0004000F000406F
:104EB000F01F01202C10000001030000FEFF000085
:104EC000FFFF0000C0FF3F00303000004E0E00002A
:104ED000F8B5DE464E4657464546E0B58B460500DA
:104EE0000A991800160000F0DBFA0A9B6C001F02FA
:104EF000324B64199C46A4006444636881469F4217
:104F000000D967602B1FDBB29846012B30D9C02334
:104F100080229B01E31812011A60294BAD005959F8
:104F20009A4600291BD17301E026226853401E4097
:104F3000802342465B01E3181E60012A30D980239A
:104F400080229B01E31812011A6053464A466760AB
:104F50005A51F0BCBB46B246A946A046F8BD5869B6
:104F600000F09EFA013043001B18033BFDD2DAE744
:104F70005B46012BCBD1C02303229B01E3181A60AF
:104F8000023AA3681A42FCD07301E0262268AD0001
:104F900053401E4080230A4A5B019246E3181E607C
:104FA0005A462168514003220A401A6001225B469A
:104FB0009A40A3681A42FCD0C1E7C0460080004076
:104FC0008C990020F0B546464F46D646C0B51F0026
:104FD000344B44009C462418A4006444636888460B
:104FE0001600FF2B02D880235B006360031FDBB237
:104FF0009A46012B30D9C02380229B01E31812016D
:105000001A60294B85005959994600291BD1730113
:10501000E026226853401E40802352465B01E3187D
:105020001E60012A30D9802380229B01E3181201DF
:105030001A6080235B0063604B465F51E0BCBA4658
:10504000B146A846F0BD586900F02AFA0130430085
:105050001B18033BFDD2DAE74346012BCBD1C0231B
:1050600003229B01E3181A60023AA3681A42FCD09B
:105070007301E0262268850053401E4080230A4ABF
:105080005B019146E3181E604246216851400322AD
:105090000A401A60012342469340A2681342FCD0A2
:1050A000C1E7C046008000408C990020014B800081
:1050B000C05870478C990020F8B5040021481E00A4
:1050C00017000D0000F0ECF90100380000F0E8F9DD
:1050D000069B36041B031E432368002B20DB1A4B60
:1050E0001A49E3185A1E93418022920194465B426A
:1050F0001B0B174A1B0363441360164A13601F00FF
:105100000A689743FBD1144B2560E2182123A06065
:1051100013602368002BFCDA0823E6601360F8BDF7
:105120003F2322681340AB42D9D1A3681B051B0D56
:105130008342D4D1EE22E368D2021340B342CED1EF
:10514000EDE7C046001BB7000040FDBF08C00040AF
:1051500000E0004000F00040043000008023024ADC
:105160009B000B43D362704700800540002310B5BD
:105170000100988A1B8B984710BDC046162310B5B6
:105180000100188802331B88984710BDF8B54746C0
:10519000CE4680B50F1E18D0142399460433040060
:1051A0000025012698464B461888434621681B88EF
:1051B000984701C4431E984101350640AF42F2D1E1
:1051C0003000C0BCB946B046F8BD0126F8E7C0467D
:1051D000AA23064A1B0113608D235B00D360044998
:1051E000044B19605368002BFCDA70470040024002
:1051F00000B0FA00006002407047C04610B5014898
:10520000FEF758FE08B4001070B5074D074EB542C2
:1052100009D20024013E761BB60808CD984723002A
:105220000134B342F9D170BD28A3001064A300106B
:10523000054B064A06491A60064A074B1A601000D9
:105240000B689843FBD1704700E00040BFCDFBFEE8
:1052500008C00040FE7F3C0000F00040044BDB6CC7
:10526000002B03D18022034BD2021A607047C04644
:10527000000011504C201150044A054B1A60054A99
:105280001368DB018033FBD17047C046FFFFFF018D
:1052900000F0004008C000404022034B9A675A6764
:1052A0001A67DA667047C04600F0014010B5FEF795
:1052B0009DFE10BDF8B52749274C284D641AA6104D
:1052C0003200302E00D930222800920000F0F0FF8A
:1052D000BC2C3BD830202F232C196407204A801B7C
:1052E000E40F9B1B052B16D93700002C02D0B3000E
:1052F000771CEA50001B33199B004108EB18C900CA
:10530000C9181A605A6008339942FAD1012303423E
:105310001CD09843C619B300EA50731C2F2E15D029
:105320009B00EA50B31C2E2E10D09B00EA50F31CB9
:105330002D2E0BD09B00EA50331D2C2E06D09B0047
:10534000EA50731D2B2E01D09B00EA50054B9D6047
:10535000F8BDC04600010010C00100100000002090
:10536000C101001000ED00E0002310B5294C82B00F
:10537000A367FFF72DFF0122274B1A60636C012BF7
:10538000FCD10322254B1A60224A936B012BFCD1DE
:10539000013300930121224A22480433FFF78CFE97
:1053A000052301210093204A2048FFF785FE0022B3
:1053B000022104201E4BFFF705FE002201210520DB
:1053C0001C4BFFF7FFFD0022002107201A4BFFF7BF
:1053D000F9FD002200210820174BFFF7F3FD802381
:1053E000DB000093002200210920134BFFF770FD22
:1053F0000022104B00210620FFF7E4FD0420FFF7F8
:1054000055FE0E4900F04CF801000020FFF7A6FE03
:1054100002B010BD008000403CB0004030B0004001
:10542000002F685900800240008C864700C002406F
:10543000001BB70040597307006CDC0240420F00AC
:1054400001480421014B1847201000208D51001005
:10545000124A936F9B0815D29066D166002905D039
:10546000FFE7FFE7FFE7516F106F704704B580213A
:105470000906C2175140002800D0C84304F01CFFA1
:10548000002104BDF0B5146E556E576F166FFFF70F
:10549000E3FF1466556657671667F0BD000000D03D
:1054A000114A936F9B0813D210665166002905D0EC
:1054B000FFE7FFE7FFE7516F106F704704B5002863
:1054C00001D00020C04304F0F7FE002104BDC04617
:1054D000F0B5146E556E576F166FFFF7E5FF146643
:1054E000556657671667F0BD000000D094464A4ADB
:1054F000926F9208624601D228E0C046F0B5464E4F
:10550000346E756E776F366F00F020F89446424A1D
:1055100014665566576716676246F0BD94463E4A64
:10552000926F9208624601D254E0C046F0B53A4EFE
:10553000346E756E776F366F00F04CF89446364ACD
:1055400014665566576716676246F0BD002B24DB6C
:1055500011D000293EDA00B5C943404200D10131E3
:1055600000F038F8C943404200D10131DB435242D8
:1055700000D1013300BD002AEBD1002801D1002960
:1055800005D00020C90FC90701D1C043410800B5AB
:1055900004F082FE0022002300BD00B500290ADBD2
:1055A000DB43524200D1013300F014F8C9434042BA
:1055B00000D1013100BDC943404200D10131DB437C
:1055C000524200D1013300F005F8DB43524200D1D2
:1055D000013300BD002923D1002B18D1002A0CD0A3
:1055E000BC460D4F38667A6600210023FFE7FFE7CF
:1055F000FFE77A6F386F67467047002801D0074889
:10560000010000B504F048FE0022002300BD0200A6
:105610000B00002000217047000000D0FFFFFFFFBB
:10562000002B00D0BFE0130C28D1002AE7D080B4B3
:10563000114F39667A66FFE7FFE730B4040C7B6FE1
:10564000396F1B0423433B667A66FFE7FFE7FFE7FA
:10565000C04684B27B6F3D6F1B0423433B667A6672
:10566000FFE7FFE7C04600232C042D0C7A6F386F4C
:1056700000196941B0BC7047000000D0F0B59446F5
:105680000025140E01D112020835140F01D11201A8
:105690000435940F01D192000235D40F01D152008C
:1056A0000135D40B0134254F7C66254C3C660E0C2D
:1056B00093B2FFE7FFE7FFE73C6F6643360C7703E3
:1056C000BE467343DF0B5B04C01AB941130C73432E
:1056D000DB18C91ACE086643360CB64493B273433E
:1056E0001F0F1B01C01AB941130C73431F0B1B057D
:1056F000C01AB941860D8F023E436643360C092D10
:1057000024DB520A7243801A7703460A6643360C3A
:1057100016235B1BDE40DF40BF1964466643821BD5
:105720007046043506330100D940A840C01900D3A3
:105730000131A24206D20023F0BD0000000000D0DB
:10574000FFFFFFFF121B0130F3D3F1E709277F1B97
:10575000FE406446A2B27243801A00D20139220C84
:105760007243130C1204821A99410B0070460435DF
:1057700013370100F940A840801900D30131002BF4
:1057800002D1A2420AD2F0BD013000D30131121B76
:10579000FAD2013BF8D1A24200D2F0BD013000D3D1
:1057A0000131121BF7E7F0B51C0C00D080E00CB4FF
:1057B00000251C0A04D11B02160E334312020835C1
:1057C0001C0B04D11B01160F3343120104359C0B33
:1057D00004D19B00960F334392000235DC0B02D1BB
:1057E00092185B4101351C00971864410134464F03
:1057F0007C66464C3C660E0CFFE7FFE7FFE7C046C1
:105800003C6F6643360C7703BE4697B27743C01BA6
:1058100000D20139C01B00D201399FB27743C91BA6
:10582000C91B170C77437E04FF0B801BB941CE08C0
:105830006643360C0C2D33DBB644120B1F053A437E
:105840001B0B97B27743C01B00D201399FB277433D
:10585000C91B170C77433E043F0C801BB941860DD2
:105860008F023E43664329277F1BFE400C3D77464F
:10587000AF40BF1930BCA2B2ABB272437343801ABF
:105880009941220C7243130C1204801A99410200B0
:105890000B000137001BA941F9D2781E0021F0BD91
:1058A0000C277F1BFE4077467F0BAF40FF19E0E7D8
:1058B00000245D1C07D0144F7D663966FFE7FFE7C3
:1058C000FFE7FFE73C6F95B29EB265436643401B1E
:1058D000B141150C1E0C6543664336042F0C3E4344
:1058E0002D04401BB141994204D202000B0020005C
:1058F0000021F0BD01D19042F7D3801A99410134C3
:105900009942F2D3F6E70000000000D0FFFFFFFF4E
:1059100048404140484018B41B4B5B68FC4601932B
:1059200008BD04DFBB5B001018B4174B1B68FC46B6
:10593000019308BD00DFC55B00109446134A926FC7
:10594000920809D2624618B40F4BDB68FC460193FB
:1059500008BD0CDF7D5E00100C4AF0B5146E556E6C
:10596000576F166F6246FFF7EEFF084A14665566DA
:1059700057671667F0BD18B4034B9B68FC4601934C
:1059800008BD08DF215D001000120020000000D0DB
:10599000FFB550404240504059404B40594000E014
:1059A000FFB5154F4C00640D03D0BC4204D10C036D
:1059B00014D80020090D09055C00640D03D0BC4219
:1059C00004D11C030AD800221B0D1B0501264B40E5
:1059D00009D44B4003D58B4200D18242FFBD99428E
:1059E000FCD19042FFBD0B43DB1803431343F5D0BA
:1059F000C9434918FFBD0000FF07000000B5FFF7CD
:105A0000CFFF804100BDC04600B5FFF7C9FF01D9F7
:105A1000002000BD012000BD00B5FFF7B9FF01D98E
:105A2000002000BD012000BD00B5FFF7B1FF80419F
:105A300000BD012040054A00121804D85A0012186F
:105A400001D8002070470120704700000021002885
:105A500005D17047C1174840401AFAD0C90713B59D
:105A6000064B1B6898470CBC441CA2401005120B47
:105A70000349091B09051943114310BDE81F012003
:105A80001F04000010B54C00620D8023D218DB000B
:105A9000D21A5B057E2A10DD9E3A13DACC17090371
:105AA000490819435242D140640001341532202A7A
:105AB00005DAD0400843604310BD002010BD084601
:105AC000604310BDC80FC018013810BD18B4044B96
:105AD0005B6AFC46019308BD24DF2D6000100000C6
